:020000040800F2
:20000000102B00203D020008710A0008690A00086D0A0008250500082D1500080000000045
:20002000000000000000000000000000D51300082905000800000000890A0008C114000822
:20004000570200085702000857020008570200085702000857020008570200085702000898
:20006000570200085702000857020008570200085702000857020008570200085702000878
:200080005702000857020008570200080000000000000000000000000000000057020008DC
:2000A000570200085702000857020008570200085702000857020008570200085702000838
:2000C000570200085702000857020008570200085702000857020008570200080000000079
:2000E00057020008570200085702000800000000000000000000000000000000570200087C
:200100000000000057020008570200085702000800000000000000000000000000000000BC
:200120005702000857020008570200085702000857020008000000000000000000000000DA
:200140000000000000000000000000005702000857020008570200085702000857020008BA
:200160005702000857020008000000000000000000000000000000000000000000000000BD
:20018000000000005702000800000000000000005702000800F002F800F040F80AA090E869
:2001A000000C82448344AAF10107DA4501D100F035F8AFF2090EBAE80F0013F0010F18BFA2
:2001C000FB1A43F001031847EC3A00000C3B0000103A24BF78C878C1FAD8520724BF30C85B
:2001E00030C144BF04680C60704700000023002400250026103A28BF78C1FBD8520728BF6D
:2002000030C148BF0B6070471FB503F0F9FA9DE8030000F0A9F81FBD10B510BD00F000F99A
:200220001146FFF7F1FF02F098FE00F01EF903B4FFF7F2FF03BC00F04FF900000948804745
:2002400009480047FEE7FEE7FEE7FEE7FEE7FEE7FEE7FEE7FEE7FEE704480549054A064BDA
:2002600070470000C51400089501000810070020102B0020102700201027002070B5064697
:2002800000F056F8056806F10B0020F00704B4429CBF002070BD2B466A68BAB11068A042F0
:2002A00010D304F1080188423CBF5068586007D35168101941601168091B016058601460A1
:2002C000101D70BD13465268002AE7D12146284600F036F80028DED170BD70B50446051F45
:2002E00000F026F80068002C14BF446870BD002C18BFAC423CBF20466468F8D301680A183C
:20030000AA4218BF456003D12A6805461144016028684119A1421CBF6C6070BD61686960DB
:2003200021680844286070BD704770477047000000487047B8060020704770477047704755
:2003400038B504460A4600206946AFF30080002808BF38BD02460099204600F03FF80120B2
:2003600038BD012000F054B8F8B5AFF30080054600200C46102000BF0646A819A0420DD91B
:20038000324669460020AFF30080070008BF00F03FF80098A04218BF0546C419FFF7C8FFC9
:2003A00005600746F01D20F007004619284600F00AF8B44208BFF8BDA21B31463868BDE8BD
:2003C000F84000F00BB800210160C0E9011070471020704700487047B00600200346406892
:2003E0008C46002818BF88423CBF03464068F8D318681844884207D00CF1030020F0070017
:20040000001D411A521A0146081D0A60FFF765BF10B500F039F8BDE8104000F02FB870479F
:200420007546FFF7D7FFAE4605006946534620F00700854618B020B5FFF70EFFBDE820406D
:200440004FF000064FF000074FF000084FF0000B21F00701AC46ACE8C009ACE8C009ACE827
:20046000C009ACE8C0098D46704710B50446AFF300802046BDE81040FFF7D9BE002801D0BA
:2004800000F02AB87047000010B5012805D0002103A000F027F8012010BD09A1F8E70000C6
:2004A00053494752544D454D3A204F7574206F662068656170206D656D6F727900000000D6
:2004C0003A2048656170206D656D6F727920636F727275707465640001491820ABBEFEE7C3
:2004E0002600020070B505460C460A2000E06D1C00F011F835B128780028F8D102E0641CAD
:2005000000F009F814B120780028F8D1BDE870400A20AFF3008008B569468DF800000320E7
:20052000ABBE08BD00BFFEE77047000001490860704700000C3C024030B10749096841F468
:200540008061054A116005E00349096821F48061014A116070470000003C024070B5044602
:200560000A460026092502B909E0012A01D1160205E0022A01D1160201E04FF4407600F059
:200580009FF80546092D28D11548006820F4407013490860084600683043086008460068B6
:2005A00020F0F80008600846006844F0020108430B4908600846006840F48030086000F0E5
:2005C0007FF805460648006820F00200044908600846006820F0F8000860284670BD00001B
:2005E000103C024009201349096801F48031B1F5803F01D101201CE00E49096801F01001B3
:2006000009B1062015E00B49096801F4807109B102200EE00749096801F0E00109B107201C
:2006200007E00449096801F0020109B1082000E0092070470C3C02400348006840F00040D2
:200640000149086070470000103C024030B502460C46092500F034F80546092D19D10E4819
:20066000006820F440700C4908600846006840F4007008600846006840F00100086014600C
:2006800000F01EF805460448006820F0010002490860284630BD0000103C024005480068F3
:2006A00000F0004028B1044802490C390860034808607047103C024023016745AB89EFCD35
:2006C00008B509200090FFF78DFF009002E0FFF789FF00909DF800000128F8D09DF8000087
:2006E00008BD000010B504464148844208D10121084600F0CBF90021012000F0C7F976E092
:200700003C48844208D10121022000F0BFF90021022000F0BBF96AE03748844208D1012159
:20072000042000F0B3F90021042000F0AFF95EE03248844208D10121082000F0A7F90021CA
:20074000082000F0A3F952E02D48844208D10121102000F09BF90021102000F097F946E0D2
:200760002848844208D10121202000F08FF90021202000F08BF93AE02348844208D1012175
:20078000402000F083F90021402000F07FF92EE01E48844208D10121802000F077F900214E
:2007A000802000F073F922E01948844208D10121801500F06BF90021A01500F067F916E014
:2007C0001448844208D10121401500F05FF90021601500F05BF90AE00F48844207D1012184
:2007E000001500F053F90021201500F04FF910BD000002400004024000080240000C02402D
:20080000001002400014024000180240001C0240002002400024024000280240F0B50A4651
:2008200000210023002400BF3DE0012505FA01F3156805EA03049C4234D105684F00032620
:20084000BE40B543056015794E00B5400668354305601579012D02D01579022D16D1856802
:200860004F000326BE40B543856055794E00B540866835438560456801268E40B54345608A
:20088000456896798E40B6B235434560C5684F000326BE40B543C560D5794E00B540C668CA
:2008A0003543C560491C1029BFD3F0BDF0B504460B46200AE1B24E4D2D680126864035432C
:2008C0004B4E35604B4D55F820502D684F000326BE40B543474E56F82060356003F003059F
:2008E0004E00B540434E56F8206036683543414E56F8206035603F4D55F82050ED684F0061
:200900000326BE40B5433B4E56F82060F560394D55F82050ED684F00C3F34116BE403543A2
:20092000344E56F82060F56003F00305012D03D003F00305022D2FD12E4D55F820506D68DF
:2009400001268E40B5432B4E56F820607560294D55F820506D68C3F380068E403543254E91
:2009600056F820607560234D55F82050AD684F000326BE40B5431F4E56F82060B5601D4D6A
:2009800055F82050AD684F00C3F3C106BE403543184E56F82060B56003F00305022D25D1DA
:2009A000144D55F820502035CE1055F826504E07F70E0F26BE40B5430E4E56F8206020361E
:2009C000CF1046F827500B4D55F820502035CE1055F826504E07F60E02FA06F63543054E5C
:2009E00056F820602036CF1046F82750F0BD0000303802400C380008F0B5002300244D075C
:200A0000ED0E02FA05F3CE1000F1200555F826504E07F70E0F26BE40B543CF1000F12006B5
:200A200046F82750CE1000F1200555F8265045EA0304CE1000F1200545F82640F0BD0000D0
:200A400030B5020AC3B231B101249C40054D55F822502C8305E001249C40024D55F8225099
:200A60006C8330BD0C38000800BFFEE700BFFEE77047000002490143024A1160704700004C
:200A80000000FA050CED00E07047000029B1064A12680243044B1A6004E0034A12688243A5
:200AA000014B1A60704700001038024029B1064A12680243044B1A6004E0034A126882430D
:200AC000014B1A60704700002038024029B1064A12680243044B1A6004E0034A12688243DD
:200AE000014B1A60704700004438024029B1064A12680243044B1A6004E0034A1268824399
:200B0000014B1A60704700002438024010B50824012000F045F902E0FF2000F055F9201EFD
:200B2000A4F10101CCB2F7D110BD10B5002218210420FFF7BBFE002000F042FA10BD70B5DA
:200B400005464FF6FF7401E0601E84B2FF2000F03BF9A84201D0002CF6D10CB9FF2070BDFB
:200B60000020FCE7F8B500F022F900F0B2F9002504E0FF2000F028F9681C85B20A2DF8DB21
:200B8000142600BF95220021084600F032F90446012C04D0301EA6F101018EB2F2D10020C6
:200BA00053490870012C75D192E087224FF4D571082000F01EF9012847D1002506E0FF2070
:200BC00000F002F90DF80500681C85B2042DF6DB9DF8020001287BD19DF80300AA2877D1A5
:200BE0004FF6FE7600BF01220021372000F001F901229107292000F0FCF8044624B1301EA3
:200C0000A6F101018EB2EED1002E61D0012200213A2000F0EEF800285AD1002506E0FF20EC
:200C200000F0D2F80DF80500681C85B2042DF6DB9DF8000000F0400018B106202C49087092
:200C400002E004202A49087043E001220021372000F0CFF801220021292000F0CAF80446A5
:200C6000012C18DC0220224908704FF6FE7600BF01220021372000F0BCF80122002129200A
:200C800000F0B7F80446C4B1301EA6F101018EB2EED112E01EE00120154908704FF6FE7670
:200CA00000BF01220021104600F0A3F8044624B1301EA6F101018EB2F3D12EB101225102F1
:200CC000102000F096F810B100200949087000E06BE700BFFFF71AFF00F0F5F8044800781A
:200CE00008B10020F8BD0CB12046FBE7AA20F9E70C0000202DE9F04106460F4615461948E7
:200D00000078062800D07F02012D0CD101223946112000F06EF80446FCB96902304600F0D8
:200D200023F8044619E001223946122000F061F8044600BF4FF40071304600F015F80446BE
:200D400006F50076681EC0B2051E01D0002CF1D0012200210C2000F04CF8FFF7D7FE204674
:200D6000BDE8F0810C00002070B504460D46FE20FFF7E5FE08B1012070BD04E0FF2000F07E
:200D800023F82070641C281EA5F101018DB2F5D1FF2000F019F8FF2000F016F80020EBE716
:200DA00010B5044621460420FFF74AFE10BD10B5002219210420FFF779FD002000F0F6F8DF
:200DC0000120FFF7EDFF10BD10B504462146002000F038FAC0B210BD10B50020FFF7E0FF92
:200DE00000F07DF808B9002010BDFFF78FFE0120FAE72DE9F04105460C4617464FF00008D3
:200E0000FFF784FEFFF7E8FF10B1FF20BDE8F08100F065F808B1FF20F8E745F04000FFF718
:200E2000D3FF200EFFF7D0FFC4F30740FFF7CCFFC4F30720FFF7C8FFE0B2FFF7C5FF3846C9
:200E4000FFF7C2FF0C2D02D1FF20FFF7BDFF4FF01F0800BFFF20FFF7B7FF064606F080004C
:200E600030B1B8F10000A8F1010101F0FF08F1D13046CBE770B506460D4600F030F808B1D6
:200E8000012070BD2846FFF79FFFFD2D19D0002404E0305DFFF798FF601C84B2B4F5007FF3
:200EA000F7DBFF20FFF790FFFF20FFF78DFFFF20FFF78AFF044604F01F00052801D0022000
:200EC000DFE70020DDE710B50021084600F062F910BD10B50721002000F05CF910BD10B538
:200EE000002406E0FF20FFF76FFFFF2801D1002010BD2046641C4FF6FF718842F2D3012034
:200F0000F6E700002DE9F04106460F46154620480078062800D07F02012D0CD101223946A5
:200F20001820FFF766FF04466CBBFE213046FFF7A1FF044627E016480078012809D0012236
:200F400000213720FFF755FF012229461720FFF750FF012239461920FFF74BFF044694B90F
:200F600000BFFC213046FFF785FF044606F50076681EC0B2051E01D0002CF2D0FD210020D2
:200F8000FFF778FF0446FFF7C1FD2046BDE8F0810C00002021B1028842F04002028004E008
:200FA00002884FF6BF731A400280704710B50446204600F017F80721204600F0EBF810BDFB
:200FC00010B50446054951F82400FFF78BFB044951F8240000F05AF810BD000000000020E2
:200FE000303800081CB504461E4951F824000121FFF76CFD1C4830F814001C4931F81410BF
:2010000008431B4931F814100843009002208DF8040000208DF8060003208DF805000120D5
:201020008DF8070069461348FFF7F8FB124B1A5D124B195D124B53F82400FFF7DDFC0E4B96
:201040001A5D104B195D0E4B53F82400FFF7D4FC094B1A5D0C4B195D094B53F82400FFF769
:20106000CBFC1CBD3C380008483800084E3800085438000800000240633800085A3800082B
:20108000000000205D3800086038000810B504462448844208D101218014FFF727FD0021E8
:2010A000A014FFF723FD3CE01F48844208D101210014FFF7FBFC00212014FFF7F7FC30E0D3
:2010C0001A48844208D10121C013FFF7EFFC0021E013FFF7EBFC24E01548844208D1012126
:2010E0004014FFF703FD00216014FFF7FFFC18E01048844209D101210805FFF7F7FC0021F7
:201100004FF48010FFF7F2FC0BE00B48844208D101214805FFF7EAFC00214FF40010FFF786
:20112000E5FC10BD0030014000380040003C00400034014000500140005401400246002099
:2011400013890B400BB1012000E0002070470146888970478181704710B50022028802F4E5
:2011600041520B884C8823438C882343CC8823430C8923434C8923438C892343CC8923436F
:201180001A430280838B4FF2FF74234083830B8A038210BD70B586B005460E46082E15D247
:2011A000DFE806F012100E0C0A08060438240FE030240DE028240BE0202409E0182407E007
:2011C000102405E0082403E0002401E0382400BF00BF45B901210803FFF788FC00214FF4FF
:2011E0008050FFF783FC0020ADF804004FF48270ADF806000020ADF808000220ADF80A0063
:201200000120ADF80C004002ADF80E00ADF810400020ADF812000720ADF81400084951F8C1
:20122000250001A9FFF798FF054951F825000121FFF7B0FEFF21002000F004F806B070BDC1
:20124000303800082DE9F04104460F46002506E0681CC5B2C82D02DD0020BDE8F0811349CC
:2012600051F824000221FFF769FF0028F0D00F4951F824003946FFF76DFF002505E0681C64
:20128000C5B2C82D01DD0020E7E7084951F824000121FFF753FF0028F1D0044951F824004B
:2012A000FFF755FFC6B23046D7E700003038000801461C48814201D2002070471A4881428B
:2012C00001D20820F9E71948814201D21020F4E71748814201D21820EFE71648814201D23A
:2012E0002020EAE71448814201D22820E5E71348814201D23020E0E71148814201D2382088
:20130000DBE71048814201D24020D6E70E48814201D24820D1E70D48814201D25020CCE7E6
:201320005820CAE7004000080080000800C0000800000108000002080000040800000608BF
:201340000000080800000A0800000C0800000E0801460868704710B5FFF7A0F940F2F3104A
:20136000FFF7E4F8FFF768F910BD000070B50925FFF794F90020FFF7DFF8134C1348844234
:2013800015D210E02046FFF7E3FF401C50B12046FFF78EFF06460221FFF7E0F80546092D34
:2013A00001D003E0241D0A488442EBD300BF0120FFF7C2F8FFF740F9092D01D1002070BD4E
:2013C0004FF0FF30FBE70000008000080000FF1FFBFF0308704700000CB500200190009059
:2013E0003348006840F480303149086000BF3048006800F4003000900198401C01900098D3
:2014000018B90198B0F5A04FF1D12948006800F4003010B10120009001E000200090009874
:20142000012844D122484030006840F080502049403108601F48006840F440401D49086099
:201440001B48083000681A49083108600846006808600846006840F4805008601648091FBF
:201460000860081F006840F08070091F086000BF0F48006800F000700028F9D040F2027052
:201480000E4908600A480830006820F003000849083108600846006840F00200086000BF87
:2014A00003480830006800F00C000828F8D10CBD00380240007000400C544107003C024033
:2014C0007047000010B51548006840F47000134908601348006840F001001149086000208D
:2014E0000F49083108600E4800680E4908400C4908600D48091D0860081F006820F48020B3
:20150000091F0860002006490C310860FFF764FF4FF0006001498039086010BD88ED00E0A2
:2015200000380240FFFFF6FE1030002400BFFEE72DE9FC4100F0A7F800F09DF810B10520EA
:20154000BDE8FC8100F0E2F805460DB12846F7E7002600BF4FF0FF30009001AB04226946E6
:201560002B4801F05DF80446019868B1009800F0F9F805460DB9761C06E0254800F010FF48
:2015800001F092FB0620DBE714B901980028E1D100F0DEF801221FA11D4800F03DFF044621
:2015A0001CB101F081FB0720CAE71E4F002600BF4FF0FF30009001AB04226946144801F0FB
:2015C0002FF80446019868B138680099884202D13F1D761C06E00E4800F0E2FE01F064FBC8
:2015E0000720ADE714B901980028E1D1084800F0D7FE0DA001F041FB10B10BA001F0CCF9DF
:2016000009A104A001F0DAF801F04EFB002097E7880400206669726D776172652E62696E71
:2016200000000000008000086F6C642E62696E0000B500F005F808B9002000BD0420FCE735
:2016400005480068A0F10050B0F5803F01D8002070470220FCE70000008000080146B1F566
:20166000603F01D8002070470320FCE710B5FFF75CFA002010BD10B5FFF778FE08B9002005
:2016800010BD0520FCE710B5FFF765FE002010BD10B501F005FB08B9012010BD01220DA134
:2016A000104800F0B9FE18B101F0FEFA0220F4E70C49C868FFF7D2FF30B10A4800F070FE9F
:2016C00001F0F2FA0320E8E7064800F069FE0020E3E700006669726D776172652E62696EE8
:2016E000000000008804002070B5064844682546054908600146086880F3088800BFA84796
:2017000070BD00000080000808ED00E010B5012208A10C4800F080FE04461CB101F0C4FA26
:20172000022010BD084809490860FEF7B7FF0020F7E700006669726D776172652E62696E43
:201740000000000088040020008000081C00002010B5FEF771FF024800F022FE002010BDA8
:201760008804002010B50446144800681449884204D8124800681349884203D2FEF75CFFDA
:20178000062010BD21460D480068FEF75FFF09280ED10A4800680068A04203D0FEF74CFFB8
:2017A0000620EEE705480068001D0449086003E0FEF742FF0620E4E70020E2E71C00002078
:2017C000FCFF03080080000870B504460D460020E070401E20632946204601F061FD08B18B
:2017E000042070BD04F2322001F0B1FB4AF65521884201D00320F4E700BF94F83400E928D4
:2018000007D094F83400EB2803D094F83400E82811D1032209A104F16A0001F0B5FB08B909
:201820000020DEE7052206A104F1860001F0ACFB08B90020D5E70220D3E70000464154008E
:201840004641543332000000024600E0521C107810B110788842F9D1107870470246891E1F
:201860009069801E884201D8002070475389D06A03FB0100F9E700002DE9F04780460C46FD
:2018800004F11A0001F063FB10B10020BDE8F087207800F03F00401E00EB800101EBC005AB
:2018A0004FF00109002621E01849895D081901F04EFB0746B9F1000F11D0FF2D0BD83846A2
:2018C00001F0F8F8824629466D1C38F8110001F0F1F8824501D00020D8E7B94605E04FF6AC
:2018E000FF70874201D00020D0E7761C0D2EDBD3207800F0400038B1B9F1000F04D038F81F
:20190000150008B10020C1E70120BFE7703800082DE9F04782468846DAF80040B8F1000F0D
:2019200006D1276917B1A069B84215D8012713E04146504601F022FA0546022D02D20120D4
:20194000BDE8F087681C08B92846F9E7A069A84201D92846F4E74746606908B90020EFE7B5
:201960000026474518D17E1CA069B04200D802263146504601F002FA0546012D01D0681C6F
:2019800008B92846DCE73DB12569022D03D3A069A84200D92F460026E6B93E4600BF761CF9
:2019A000A069B04204D80226BE4201D90020C7E73146504601F0E2F9054605B909E0012D87
:2019C00001D0681C08B92846BAE7BE42E7D10020B6E700BF4FF0FF323146204601F0C0FCB4
:2019E0008146B9F1000F08D1B8F1000F05D032464146204601F0B4FC8146B9F1000F0DD19D
:201A00002661D4E90510801E814202D86069401E6061207940F00100207107E0B9F1010F4E
:201A200002D14FF0FF3000E001200646304687E72DE9F34F83B08146049800680090D9F87D
:201A40000000D0F80CA0002500BF684601F054FE83460BF1010018B9062005B0BDE8F08FA7
:201A6000BBF5803F05D34FEA1B4228466D1C2AF810201FFA8BF4202C03DB2F2C01D05C2CCA
:201A800000D111E0802C06DA21467BA0FFF7DCFE08B10620E1E7FF2D01D30620DDE72846A7
:201AA0006D1C2AF81040D0E700BF202C01DA04260CE0002602E00098401C009000980078DC
:201AC0002F28F8D0009800785C28F4D000990498016008E0681E3AF81040202C02D02E2C91
:201AE00000D002E06D1E002DF4D100BF00202AF815000DB90620B0E7002700E07F1C3AF84A
:201B000017002028FAD01FB93AF817002E2801D146F0030600E06D1E25B1681E3AF810000B
:201B20002E28F8D10B22202109F1200001F04BFA4FF00008CDF808800820019000BF38463E
:201B40007F1C3AF8104004B96AE0202C03D02E2C04D1AF4202D046F00306F0E7DDE9011063
:201B6000884201D2AF4216D101980B2802D146F0030655E0AF4201D046F00306AF4200D912
:201B80004EE02F46082002900B2001904FEA88604FEA1068D3E7802C0EDB46F0020640F29B
:201BA000B511204600F066FF044604F0800018B104F07F0033490C5CFF2C11DD0198401EB6
:201BC0000299884204D846F0030601980290B6E722120298411C029109F120010A5418E08E
:201BE00024B1214628A0FFF72FFE18B15F2446F003060EE0412C03DB5A2C01DC48F0020855
:201C0000612C06DB7A2C04DC48F00108A4F1200084B20298411C029109F120010C548EE72A
:201C200000BF99F82000E52802D1052089F820000198082803D14FEA88604FEA106808F027
:201C40000C000C2803D008F00300032801D146F0020606F0020048B908F0010008B146F05A
:201C6000100608F0040008B146F008062B2000F809600020F1E60000222A3A3C3E3F7C7F78
:201C8000000000007D3800082B2C3B3D5B5D0000014609B1002070470020FCE72DE9F041DE
:201CA00004460E46D4F800800021204600F0A6FA0546EDB9002700BF4046A16901F0F0FAE1
:201CC000054605B113E0E0690078E52802D0E069007820B9781C0746B04201D107E0002723
:201CE0000121204600F0EBF80546002DE4D000BF042D00D107252846BDE8F0812DE9F0479F
:201D000004468946204601F0D1FC10B10120BDE8F08749462046FFF7A1FD074627634FF4E5
:201D20000072002104F1340001F04DF960894FF40041B1EB402F01D8084601E06089400205
:201D400006464FF0000800E07608B6F5007F05D9304600F083FEB0F10008F5D0B6F5007F0B
:201D600017D932460021404601F02DF9760A002500E035446089A84207D97A1960783346A8
:201D8000414600F0E1FA0028F3D0404600F06CFE10E004F134080126002500E03544608977
:201DA000A84207D97A1960783346414600F0CCFA0028F3D06089A84201D00120A7E70020DA
:201DC000A5E72DE9F0470446D4F800A00021204600F014FA064616B13046BDE8F0874FF00B
:201DE000FF08C1464FF0FF30E06200BF5046A16901F056FA064606B15EE0E06905780DB9B8
:201E0000042659E0E069C07A00F03F07A771E52D04D007F0080038B10F2F05D04FF0FF0867
:201E20004FF0FF30E06240E00F2F22D12B20005D00F0400098BB05F0400038B1E06990F887
:201E40000D9005F0BF05A8462069E06245450CD1E069407B484508D1E169DAF80C00FFF784
:201E60000BFD10B1A8F1010000E0FF2000F0FF081BE0B8F1000F05D1E06901F0BEFB484500
:201E800000D119E02B20005D00F0010040B90B2204F12001E06901F077F808B90CE004E069
:201EA0004FF0FF084FF0FF30E0620021204600F006F80646002E99D000BF30468DE72DE915
:201EC000F041044688462768206900F12006B6F5001F01D30020A061A06910B90420BDE830
:201EE000F081C6F30800002845D1A069401CA061606938B93889B0EB561F3CD80020A0614C
:201F00000420ECE77889401E00EA562098BB2046616900F033FF0546012D01D80220DEE72D
:201F2000681C08B90120DAE7B869A8421DD8B8F1000F03D10020A0610420D0E720466169C2
:201F4000FFF7E6FC05460DB90720C8E7012D01D10220C4E7681C08B90120C0E729463846FB
:201F6000FFF7CCFE08B10120B9E7656129463846FFF774FCA0612661C6F3080107F1340098
:201F80000844E0610020AAE72DE9F05F044689460426D4F800A04FF0FF08C34653E05046D7
:201FA000A16901F07DF9064606B14FE0E06905780DB904264AE0E069C07A00F03F07A771CD
:201FC000E52D0AD02E2D08D027F02000082801D1012000E00020484502D04FF0FF082BE0D8
:201FE0000F2F1DD105F0400038B1E06990F80DB005F0BF05A8462069E06245450CD1E069E7
:020000040800F2
:20200000407B584508D1E169DAF80C0001F062F910B1A8F1010000E0FF2000F0FF080BE0DF
:20202000B8F1000F04D1E06901F0E7FA584502D04FF0FF30E06209E000212046FFF73FFF35
:20204000064606B102E0A0690028A8D100BF0EB10020A0613046BDE8F09F2DE9FE4F0446FB
:2020600026682B20005D00F0A00010B10620BDE8FE8F4FF0000901E009F10109F06830F8D4
:2020800019000028F8D10C2204F12001684600F08DFF9DF80B0000F0010028B340212B20B0
:2020A00001554FF001080EE04346694604F12000F26800F0FDFD2046FFF783FE054605B125
:2020C00004E008F10108B8F1640FEDD300BFB8F1640F01D10720CAE7042D01D02846C6E79C
:2020E0009DF80B102B2001559DF80B0000F0020030B109F10C000D21B0FBF1F0401C00E020
:202100000120074639462046FFF7C8FD05464DBB781E071E26D02069A0EB4711204600F0EB
:202120006DF80546F5B904F1200001F066FA824600BF3046A16901F0B3F8054605B110E047
:20214000FAB2E1695346F06801F0A6F90120F07000212046FFF7B3FE054615B9781E071E85
:20216000E7D100BFC5B93046A16901F099F8054695B920220021E06900F025FF0B2204F1ED
:202180002001E06900F012FF2B20005D00F01800E16908730120F070284668E72DE9F041DA
:2021A000044626682769E06A401C08B9002003E02046E16A00F022F80546E5B900BF304674
:2021C000A16901F06DF8054605B110E000BFE520E16908700120F0702069B84200D306E06B
:2021E00000212046FFF76BFE0546002DE7D000BF042D00D102252846BDE8F0812DE9F04117
:2022000004460D462668B5F5001F02D205F01F0010B10220BDE8F0812561A7681FB93078D4
:20222000032800DBB76A47B93089B0EB551F01D80220EFE7B06AA0611CE070894FEA40282D
:2022400011E03946204600F099FD0746781C08B90120DFE7022F02D3B069B84201D8022085
:20226000D8E7A5EB08054545EBD239463046FFF7F5FAA0616761A06908B90220CAE7A06972
:2022800000EB5520A061C5F3080106F134000844E0610020BEE7000070B50446002504E027
:2022A00001200D494855681CC5B2022DF8DB14B1012C0BD109E0FEF755FC28B90648005D84
:2022C00020F001000449085502E001E0042070BD00BF0148005DFAE70D00002003460BB9AF
:2022E000002070470420FCE72DE9F04104460E4617461D4615B90420BDE8F0810C48005DA2
:2023000000F0010008B10320F6E714B1012C0CD109E0EAB239463046FEF7ECFC08B900200C
:20232000EAE70120E8E70120E6E70420E4E700000D0000200146022901DB01207047014863
:20234000405CFBE70D0000202DE9F04104460E4617461D4615B90420BDE8F0810F48005D71
:2023600000F0010008B10320F6E70C48005D00F0040008B10220EFE714B1012C0CD109E0A5
:20238000EAB239463046FEF7BDFD08B90020E3E70120E1E70120DFE70420DDE70D0000206D
:2023A00038B50546284600F0A7FA04463CB96946284601F007FA04460CB90020286020467B
:2023C00038BD0000F7B582B016460398019001A800F044FD0546002D02DA0B2005B0F0BDE7
:2023E0000C4850F825400CB100202070029810B10020029908700749029841F825000EB9D2
:202400000020EBE7002202A903A800F0F5FD07463846E3E7100000202DE9F74F8EB00446C7
:2024200016461CB9092011B0BDE8F08F06F03F06324601A90FA800F0DFFD0546002D74D1C0
:20244000019802904FF4007000F008FB8346BBF1000F01D11120E6E70198C0F80CB002A8A0
:202460000F9900F0BBFB05462DB99DF8330000F0800000B1062506F01C0000284DD045B17C
:20248000042D03D102A8FFF7E8FD054646F008060AE09DF80E0000F0110008B1072503E0CD
:2024A00006F0040000B10825002D48D106F00800002844D00999019800F02AFD8146099909
:2024C00001F10E00554901F086F820200999C87200220999019801F06CF8099901F11C0071
:2024E000002101F078F801200199C870B9F1000F25D00198D0F830A00022494602A801F03C
:202500000BF80546DDB95146019800F0C9FE0546A9F101000199086111E085B99DF80E0035
:2025200000F0100010B1042509E071E006F0020028B19DF80E0000F0010000B107254DB92F
:2025400006F0080008B146F040060198006B206209986062002D58D10999019800F0D8FC0A
:20256000A060099901F11C0000F0E5FCE060019820600198C088A080267400206074E061B1
:2025800060614FF40072002104F1280000F01BFD06F0200058B3E06848B3E0686061019879
:2025A000408940020090A768D4F80C800DE03946204600F0E3FB0746012F00D80225781C69
:2025C00000B901250098A8EB000815B900988045EDD8A7615DB9C8F3080040B1394601980F
:2025E000FFF73CF98246BAF1000F01D102250CE00AEB5820E061E26901994878012304F1DD
:202600002801FFF771FE00B10125584600F02CFA0DB100202060284605E700000000214E7A
:202620002DE9FF4F85B0044615469A46DDF818B00020CAF8000003A9204601F0C3F80490AB
:20264000049810B9607C049018B1049809B0BDE8F08F207C00F0010008B90720F6E7616947
:20266000E068401A01900198854200D9019DA0E0A08AC0F3080000287ED103984089401EB2
:20268000616900EA5129B9F1000F17D1606910B9A068029004E02046A16900F06FFB0290FF
:2026A0000298022802D202206074CFE70298401C10B901206074C9E70298A061A169039832
:2026C000FFF7CCF8064616B902206074BEE74E444FEA5528B8F1000F29D009EB08000399F9
:2026E0004989884203D903984089A0EB090803994878434632465946FFF7F6FD10B101209B
:202700006074A3E7207C00F0800068B1E069801B404509D2E169891B0BEB41204FF40072F8
:2027200004F1280100F042FC4FEA482737E0E069B04220D0207C00F0800078B1E269039947
:202740004878012304F12801FFF7FEFD10B1012060747BE7207C00F07F0020740399487873
:202760000123324604F12801FFF7BEFD18B1012060746BE700E0E661A08AC0F30800C0F51D
:202780000077AF4200D92F46A08AC0F3080204F1280011183A46584600F008FC00BFED1B7D
:2027A000DAF800003844CAF80000BB44606938446061002D7FF45CAF002047E72DE9F341C1
:2027C000A2B023A800F04AFB022209A922A800F013FC0446002C7DD1099816904FF400704A
:2027E00000F03CF907461FB9112024B0BDE8F0810998C76016A8229900F0F0F904462CB92B
:202800009DF8830000F0A00000B10624002C6ED1202201A81D9900F0C9FB302216A90AA8B2
:2028200000F0C4FB0AA8239900F0D8F904465CB918990C98884205D11A990E98884201D171
:20284000042000E008200446042C46D10AA8FFF704FC0446002C40D1119D13220DF1110199
:2028600005F10D0000F0A2FB9DF80F00E872E87A00F0100018B9E87A40F02000E87201206A
:202880000999C870E87A00F0100030B30C991898884222D02946099800F03AFB8046414686
:2028A0000998FEF7DBFF06460EB9022415E03146099800F0F5FC0446099800F1540564B92F
:2028C00068782E2809D129460C9A099800F071FE012000E00EE00999C87044B916A8FFF759
:2028E0005DFC04461CB9099800F098FE0446384600F0BAF8204678E7F8B5044669462046FE
:2029000000F060FF0646002E42D1207C00F0400000283DD0207C00F0800070B1E2690099C9
:202920004878012304F12801FFF70EFD08B10120F8BD207C00F07F002074164F216A0098DE
:2029400000F0AEFC06461EBB656AE87A40F02000E8722946A268206800F02BFE05F11C00B1
:20296000E16800F038FE394605F1160000F033FE002105F1120000F03AFE01200099C870F9
:20298000009800F04BFE0646207C00F0BF0020743046CDE70000214E71B599B000260222E9
:2029A000694619A800F028FB0446002C54D100980D904FF4007000F051F8054615B911208E
:2029C0001AB070BD0098C5600DA8199900F006F9044600BF002C3CD19DF85F0000F0800047
:2029E00008B1062405E09DF83A0000F0010000B10724E4B91499009800F08AFA06469DF83C
:202A00003A0000F0100090B1009801900396002101A8FFF7F3FB04464CB9002101A8FFF7BC
:202A2000B3FA044604B90724042C00D1002484B90DA8FFF7B3FB044634B92EB1002231464D
:202A40000DA800F069FD04461CB9009800F0E6FD0446284600F008F82046B1E710B504462C
:202A60002046FDF70BFC10BD10B504462046FDF734FC10BD10B5024600200D4B802A01D2C0
:202A800090B213E0B2F5803F10D240F2B514A1420CD1002001E0441CA0B2802803DA33F89B
:202AA00010409442F7D100F18004E0B210BD0000FE38000870B5B0F5803F4DD281B2B1F595
:202AC000805F01DA254E00E0254E324600BF32F8023B0BB1994200DA3CE032F8024B25129D
:202AE000E4B21E198E4230DD092D2CD2DFE805F005090F13171B1F232700CE1A32F8161039
:202B000021E0CE1A06F001068E1BB1B21BE0A1F11006B1B217E0A1F12006B1B213E0A1F126
:202B20003006B1B20FE0A1F11A06B1B20BE001F10806B1B207E0A1F15006B1B203E0A1F5FF
:202B4000E356B1B200BF00BF04E0002DBFD102EB4402BCE700BF084670BD0000FE3900086B
:202B6000F03B00082DE9FF4107460D4600213846FEF72AFE0646022E06D0032E00D21DB945
:202B8000304604B0BDE8F08100BF00240AE007F5F97101EB041101F1080000F0CCF94DF8CD
:202BA0002400641C042CF2D30DB1681E00E00020044600BF5DF8240028B15DF824103846D6
:202BC000FEF702FE00E0032006462DB9022E03D3601C04460428EDD33046D2E72DE9F3419A
:202BE0000446276802E00198401C0190019800782F28F8D0019800785C28F4D00020A060EB
:202C000001980078202808D280212B20015500212046FFF7F3FA05462CE000BF01A92046AF
:202C2000FEF706FF054605B123E02046FFF7C9F805462B20065D3DB1042D04D100BF06F0D7
:202C4000040000B9052514E006F0040000B110E0A07900F0100008B905250AE0208AC0F3B3
:202C6000080207F134001118384600F051F9A060D4E700BF2846BDE8FC8110B5ADF50A7D45
:202C80000446002221466846FFF7C6FB30B96846FFF786FB01200DF50A7D10BD0020FAE776
:202CA00010B500F099F910BD10B500F07DFD10BD2DE9FF4F83B0804691461E460B224046B9
:202CC000049900F073F9052E18D9374611E039F802BB00250BE0584667F35F0007464FEA8E
:202CE0006B0B07F4803008B1234847406D1C102DF1D3B9F800000028E9D13E46072500BF7C
:202D000006F00F0000F1300ABAF1390F03DD0AF1070000F0FF0A28466D1E01A901F800A079
:202D20003609002EECD17E20485500240AE018F80400FEF7ADFF20B1681EA04200D107E07A
:202D4000641C641CAC4203D218F804002028EED100BF00BF082D04D228466D1C01A9085C07
:202D600000E020202146641C08F80100082CF1D307B0BDE8F08F0000211001002DE9F047F9
:202D800081460C46D9F80050022C02D3A869A04202D84FF001085EE04FF0FF382878012864
:202DA00004D002282CD0032851D13CE0264606EB5606686A00EB5621284600F071FA00B149
:202DC00048E03046761CC0F3080105F13400475C686A00EB5621284600F062FA00B139E082
:202DE000C6F3080105F13400405C47EA002704F0010008B1380901E0C7F30B00804629E08F
:202E0000686A00EB1421284600F04AFA00B121E040F2FF1101EA440205F13401501800F076
:202E200096F8804616E0686A00EBD411284600F037FA00B10EE040F2FF1101EA840205F1CF
:202E40003401501800F077F820F0704802E04FF0010800BF00BF4046BDE8F087F0B5064673
:202E60004FF0FF30D6F800C06146634601B9F0BD00BF13F8012B202A01D33A2AF9D13A2AF9
:202E800040D1022591F800C0BCF1300F0DDB91F800C0BCF1390F08DC01F1020C9C4504D105
:202EA00091F800C0ACF1300527E0002500BFDFF85CC05CF82570316800BF17F8014B11F874
:202EC000012B612C05DB7A2C03DCA4F1200C0CF0FF04612A05DB7A2A03DCA2F1200C0CF06B
:202EE000FF020CB19442E8D00CB9994205D005F1010C6546BCF1020FD9DB022D01DA284679
:202F00003360B4E7002000BFB1E700006838000870B505460C4604F11A0000F018F8064647
:202F20002878032805D104F1140000F010F846EA0046304670BD0146C8788A7842EA002001
:202F40004A7842EA00200A7842EA00207047014648780A7842EA002070474FF4A060FDF71B
:202F600089FDFEF795FB00B108E0FEF7E1FA00B104E0FEF75DFB00B100E000BFFEF776FB45
:202F8000FEF7B2FB00BFFEE7F0B503461D460C46002000BF15F8017B14F801CBA7EB0C006A
:202FA000561E321E01D00028F4D0F0BD30B503460C463AB100BF14F8015B03F8015B551E87
:202FC0002A1EF8D130BD10B5034600BF03F8011B541E221EFAD110BD10B5012204A10548EB
:202FE000FFF7F0F908B9012010BD0020FCE7000053443A00200000202DE9F74F84B000217E
:20300000059801600498FFF729FF03900398002803DA0B2007B0BDE8F08F9C49039851F8F6
:2030200020400CB90C20F5E705980460069800F0FE000690207878B16078FFF77BF90746F0
:2030400007F0010040B9069820B107F0040008B10A20DFE70020DDE700202070039860706D
:203060006078FFF719F9074607F0010008B10320D0E7069820B107F0040008B10A20C9E79B
:2030800000212046FFF76EFD0546042D01D10120C0E7022D01D30D20BCE7D4F8309004F1DE
:2030A0003F00FFF754FFB0F5007F01D00D20B1E704F14A00FFF74BFF064626B904F15800D7
:2030C000FFF739FF0646E6614420005DA070A078012804D0A078022801D00D209AE7A07870
:2030E00046434120005D6081608918B16089411E084008B10D208DE704F14500FFF727FFB6
:203100002081207A00F00F0008B10D2082E704F14700FFF71CFF8246BAF1000F04D104F18D
:203120005400FFF708FF824604F14200FFF70FFF8346BBF1000F01D10D206BE70BEB06006A
:20314000218900EB111002900298824501D20D2060E70298AAEB00006189B0FBF1F8B8F129
:20316000000F01D10D2055E700254948804500D803254FF6F570804500D8022540F6F57081
:20318000804500D801250DB90D2043E708F10200A061C4F8209009EB0B0060620298484400
:2031A000E062032D13D104F15E00FFF7D0FE08B10D202FE7208908B10D202BE704F16000B0
:2031C000FFF7B9FEA062A0698000019014E0208908B90D201EE7606A3044A062022D02D154
:2031E000A069400007E0207E00F00100A16901EB410100EB51000190E169019800F2FF1027
:20320000B1EB502F01D20D2004E74FF0FF306061206180202071032D2DD104F16400FFF74A
:2032200096FE012827D109F10101204600F038F808BB0020207104F23220FFF788FE4AF6DF
:203240005521884217D104F13400FFF774FE1149884210D104F50670FFF76DFE0E498842BF
:2032600009D104F50770FFF766FE606104F50870FFF761FE2061257008480088401C80B2A7
:2032800006490880E0800020C4E6000010000020F5FFFF0F525261417272416118000020F7
:2032A00070B504460D460026206BA84210D0204600F0FCF906465EB9607801232A4604F1C2
:2032C0003401FFF711F810B14FF0FF3501262563304670BD2DE9F04780460C4604F11A00C0
:2032E000FFF735FE10B10020BDE8F087207820F04000401E00EB800101EBC0054FF00109FC
:20330000002619E01549895D0819FFF720FE0746B9F1000F09D0FF2D01D90020E4E7B94646
:2033200028466D1C28F8107005E04FF6FF70874201D00020D8E7761C0D2EE3D3207800F0D9
:20334000400048B1B9F1000F06D0FF2D01D90020CAE7002028F815000120C5E770380008FC
:203360002DE9F04704460D4616464FF00209022D74D3A069A84271D92078012804D002284B
:2033800049D003280DD15EE02F4607EB5707606A00EB57212046FFF783FF8146B9F1000F7D
:2033A00000D075E038467F1CC0F3080104F1340001EB000805F0010028B1F1B298F80000F4
:2033C00061F31F1000E0304688F800000120E070606A00EB57212046FFF762FF8146B9F1C8
:2033E000000F00D054E0C7F3080104F1340001EB000805F0010010B1C6F3071006E098F8DD
:20340000000000F0F000C6F30321084388F800000120E0703CE0606A00EB15212046FFF750
:203420003FFF8146B9F1000F00D031E0B1B240F2FF1202EA450304F13402981800F0D7F879
:203440000120E07024E0606A00EBD5112046FFF727FF8146B9F1000F01D019E019E040F265
:20346000FF1101EA850204F134015018FFF763FD66F31B00064640F2FF1101EA850204F179
:2034800034015018314600F0A6F80120E07000BF00BF4846BDE8F0872DE9F04707460C4605
:2034A0001546984684F80D800F20E07200202073002104F11A0000F09AF8681E00EB8001F2
:2034C00001EBC00900200646824600BF4FF6FF70864204D0484609F1010937F810600D496D
:2034E00011F80A100819314600F081F80EB94FF6FF760AF1010082460D28E7D34FF6FF70C0
:20350000864202D037F8190008B945F040052570BDE8F087703800082DE9F04781460E46C5
:2035200017464FF00008D9F80040022E02D3A069B04202D80220BDE8F08767B100BF4FF0A8
:20354000FF3239462046FFF70BFF8046B8F1000F01D04046EFE700BF31464846FFF70EFCE6
:20356000054605B922E0012D01D10220E3E7681C08B90120DFE7002231462046FFF7F0FE45
:203580008046B8F1000F01D04046D4E7D4E90510801E814206D26069401C6061207940F0E1
:2035A000010020712E46A069B042D5D800BF0020C1E770B506460C461546A9B204F11A004E
:2035C00000F015F83078032804D1290C04F1140000F00DF870BD00F8011B090A00F8011BAB
:2035E000090A00F8011B090A00F8011B704700F8011B091200F8011B704730B50146002080
:203600000B2200BF431003EBC01411F8015B6319D8B2531E1A1EF5D130BD000070B5044673
:20362000204600F043F80546002D38D1207803282ED1207901282BD14202002104F134006A
:20364000FFF7C1FC4AF6552104F23220FFF7CFFF144904F13400FFF7BEFF134904F50670F1
:20366000FFF7B9FF04F507706169FFF7B4FF04F508702169FFF7AFFF206A401C20636078D9
:20368000012304F13401226BFEF75EFE00202071607800221146FEF721FE00B101252846A3
:2036A00070BD0000525261417272416170B504460025E078E8B16078012304F13401226BD9
:2036C000FEF742FEA0B90020E070616A206B401AE16988420DD2A07802280AD1E369216B54
:2036E000CA186078012304F13401FEF72DFE00E00125284670BD000070B50446226812F8FE
:20370000011B01F08000002847D001F0E000C02803D101F01F01012312E001F0F000E02840
:2037200003D101F00F0102230AE001F0F800F02803D101F00701032302E04FF0FF3070BD34
:2037400000BF12F8015B05F0C000802802D04FF0FF30F4E7284661F39F100146581E031E7D
:20376000EFD1802908D3B1F5584F02D3B1F5604F02D3B1F5881F02D34FF0FF30DFE7B1F5BD
:20378000803F0AD3A1F58030054E06EA8010054E3043C1F3090640EA060122600846CEE735
:2037A0000000FF0300DC00D810B5012204A10020FEF708FE08B9012010BD0020FCE70000F9
:2037C00053443A0070B504460D4609268CB1206878B12068007860B1A0882168C98888425C
:2037E00007D121684878FEF7A5FD00F0010000B900260EB9206800E000202860304670BDC7
:203800004FF04070E1EE100A70470000000002400004024000080240000C024000100240A7
:203820000014024000180240001C0240002002400030014000380040003C004001100000A2
:203840000240000002800000200000200800400000401000800000802000050D08060E106E
:20386000070F200505060000AC3C0008B03C000801030507090E10121416181C1E809A45FA
:20388000418E418F804545454949498E8F9092924F994F555559999A9B9C9D9E9F41494F37
:2038A00055A5A5A6A7A8A9AAABACADAEAFB0B1B2B3B4B5B6B7B8B9BABBBCBDBEBFC0C1C205
:2038C000C3C4C5C6C7C8C9CACBCCCDCECFD0D1D2D3D4D5D6D7D8D9DADBDCDDDEDFE0E1E298
:2038E000E3E4E5E6E7E8E9EAEBECEDEEEFF0F1F2F3F4F5F6F7F8F9FAFBFCFDFEFF00C700B4
:20390000FC00E900E200E400E000E500E700EA00EB00E800EF00EE00EC00C400C500C90078
:20392000E600C600F400F600F200FB00F900FF00D600DC00A200A300A500A7209201E10035
:20394000ED00F300FA00F100D100AA00BA00BF001023AC00BD00BC00A100AB00BB00912593
:20396000922593250225242561256225562555256325512557255D255C255B2510251425FB
:2039800034252C251C2500253C255E255F255A25542569256625602550256C2567256825FA
:2039A0006425652559255825522553256B256A2518250C25882584258C2590258025B10368
:2039C000DF009303C003A303C303B500C403A6039803A903B4031E22C603B5032922612291
:2039E000B1006522642220232123F7004822B0001922B7001A227F20B200A025A00061002C
:203A00001A03E0001703F8000703FF00010078010001300132010601390110014A012E01E3
:203A20007901060180014D0043028101820182018401840186018701870189018A018B0128
:203A40008B018D018E018F0190019101910193019401F60196019701980198013D029B011C
:203A60009C019D0120029F01A001A001A201A201A401A401A601A701A701A901AA01AB017F
:203A8000AC01AC01AE01AF01AF01B101B201B301B301B501B501B701B801B801BA01BB01E3
:203AA000BC01BC01BE01F701C001C101C201C301C401C501C401C701C801C701CA01CB018B
:203AC000CA01CD011001DD0101008E01DE011201F3010300F101F401F401F80128012202C3
:203AE00012013A020900652C3B023B023D02662C3F0240024102410246020A0153024000A1
:203B000081018601550289018A0158028F015A0290015C025D025E025F0293016102620280
:203B200094016402650266026702970196016A02622C6C026D026E029C01700271029D01BC
:203B4000730274029F0176027702780279027A027B027C02642C7E027F02A601810282023E
:203B6000A9018402850286028702AE014402B101B20145028D028E028F0290029102B7014F
:203B80007B030300FD03FE03FF03AC0304008603880389038A03B1031103C2030200A3038C
:203BA000A303C4030803CC0303008C038E038F03D8031801F2030A00F903F303F403F50335
:203BC000F603F703F703F903FA03FA033004200350041007600422018A043601C1040E0120
:203BE000CF040100C004D00444016105260400007D1D0100632C001E9601A01E5A01001F6D
:203C00000806101F0606201F0806301F0806401F0606511F0700591F521F5B1F541F5D1F7D
:203C2000561F5F1F601F0806701F0E00BA1FBB1FC81FC91FCA1FCB1FDA1FDB1FF81FF91FF0
:203C4000EA1FEB1FFA1FFB1F801F0806901F0806A01F0806B01F0400B81FB91FB21FBC1FB9
:203C6000CC1F0100C31FD01F0206E01F0206E51F0100EC1FF31F0100FC1F4E210100322177
:203C800070211002842101008321D0241A05302C2F04602C0201672C0601752C0201802C1C
:203CA0006401002D260841FF1A0300005344000055000000D43C00080000002020000000A3
:203CC000D0010008F43C000820000020F02A0000EC010008000002400004024000040240B6
:203CE0000001010000000000000000000000000000800008FFFFFFFFFFFFFFFFFFFFFFFF46
:203D0000FFFFFFFFFFFFFFFFFFFFFFFFFFFFFFFFFFFFFFFFFFFFFFFFFFFFFFFFFFFFFFFFC3
:203D2000FFFFFFFFFFFFFFFFFFFFFFFFFFFFFFFFFFFFFFFFFFFFFFFFFFFFFFFFFFFFFFFFA3
:203D4000FFFFFFFFFFFFFFFFFFFFFFFFFFFFFFFFFFFFFFFFFFFFFFFFFFFFFFFFFFFFFFFF83
:203D6000FFFFFFFFFFFFFFFFFFFFFFFFFFFFFFFFFFFFFFFFFFFFFFFFFFFFFFFFFFFFFFFF63
:020000040800F2
:020000040800F2
:20800000000001209DB9000899B9000899B9000899B9000899B9000899B9000899B90008C5
:2080200099B9000899B9000899B9000899B9000899B9000899B9000899B9000831BC0008D5
:2080400099B9000899B9000899B9000899B9000899B9000899B9000899B9000899B9000850
:2080600099B9000899B9000899B9000899B9000899B9000899B9000899B9000899B9000830
:2080800099B9000899B9000899B9000899B9000899B9000899B9000899B9000899B9000810
:2080A00099B9000899B9000899B9000899B9000899B9000899B9000899B9000899B90008F0
:2080C00099B9000899B9000899B9000899B9000899B9000899B9000899B9000899B90008D0
:2080E00099B9000899B9000899B9000899B9000899B9000899B9000899B9000899B90008B0
:2081000099B9000899B9000899B9000899B9000899B9000899B9000899B9000899B900088F
:2081200099B9000899B9000899B9000899B9000899B9000899B9000899B9000899B900086F
:2081400099B9000899B9000899B90008FDB7000810B4D0E906144A69836862404A6190F84B
:20816000301081F00102C90754BFC168016980F8302052070B4403D4836010BC0120704707
:208180004269991A0029F7DB034B43601346836010BC0120704700BFAD820008704700BF49
:2081A00010B48268D0E90034EFF3108172B6DBB2012B0CD0022B05D0D2B2227081F31088D0
:2081C00010BC7047226081F3108810BC704792B2228081F3108810BC704700BF70B40D4A5C
:2081E00003780D4C126825780133DCB202EBC40204E052F8084B8C4207D00133DBB29D4259
:208200001646F6D8002070BC70470370706870BC704700BF8C000020880000200D4B1988F7
:20822000B1B130B40C4A0D4B15681878013907D02B1800221C1A01328A4223600344F9D1FE
:2082400001FB00F1064B00226A501D6030BC7047704700BF80000020840000208200002088
:208260005C020020002070470849094B886830B400F18012074D084C034402F53052002025
:208280002072AB6001208A6030BC70471C000020802C8080280000201000002008B501462F
:2082A00072B6014805F07AF81C010020816AF8B5002900F08B808C68474E0A68D6F800C064
:2082C0008262002C14BF01250025D0E906E33AD11B04CEF81830C1F800C0316090F83030A4
:2082E000B4FA84F683F01001C1F3001176098E421FD0016AE9B1866845F004053144002AFF
:2083000050D190F83030416103F010032B4380F83030AB0705F0040256D52644002A51D1D8
:20832000476A2E4A42603F1B0761C0E902640120F8BD03F010035BB2EAB92B4380F83030CF
:2083400042611046F8BD476ACEF81830A742C1F800C03160C2D9016AF9B990F8303003F02A
:2083600010035BB25ABB8168426143F0030380F830306618D5E745F0040569B200255268B9
:2083800042610B4380F8303025B18368E618B11A0029C5DB82600120F8BD8668072531447A
:2083A000002AAED05268891A002912DB90F8303003F0100369B25BB205F00205E0E70225A2
:2083C0000721DCE70A46E2E70A46E3E71520FFF765FF1320FFF762FF5C020020518100080E
:2083E00008B5054A537A23B1022B1CBF0023537208BD0220FFF752FF1000002008B508209D
:20840000FFF74CFF08B5094B1B7883420AD9084B00B21B6853F830208A4203EBC00001D160
:20842000406808BD0C20FFF739FF00BF880000208C00002008B5074B1A880023C0E90033B2
:208440002AB9054B1A788A42B8BF197008BD0E20FFF724FF800000208200002008B5EFF39E
:20846000108272B6054B186820B10168196082F3108808BD0F20FFF711FF00BF5C0200207B
:2084800038B50A4D0A4B2C6822189A420BD8C31C23F0030323440246002120462B6004F009
:2084A0002DFF204638BD1120FFF7F8FE3400002000FE0020F8B5174E33883BBB164B174D1E
:2084C0001C78032C9CBF04241C70154B07461868002301460A19AA4211D80133B3F5806F70
:2084E0001146F7D11C46101AFFF7CAFF0D4B34801860FFF793FE0C4B3A681A60F8BD13B11B
:208500009CB20A46EFE71020FFF7C8FE0D20FFF7C5FE00BF800000208200002000FE0020F6
:2085200034000020840000206C00002038B5074C236843B90568E8B2C000FFF7A1FF044B44
:2085400020601D7038BD0A20FFF7A8FE8C0000208800002038B50D4B1C78844212D903462C
:208560000B481BB2046854F8330004EBC30548B90848008830B944F833101046FFF780FF2D
:20858000686038BD0B20FFF789FE00BF880000208C000020800000200FB42DE9F04F744EE9
:2085A000337885B0DBB223B105B0BDE8F04F04B070470E9B5D786F4B93F8008008EB050239
:2085C00001210FABC02A3170039306D90023337005B0BDE8F04F04B07047674AE91E02EB50
:2085E0000800052D019000EB010940F28C800E9A97785568127882702F4403304C46BD4256
:208600007BD0A04200F2B08015F8012B072A00F2AB80DFE802F030303030301904049A46DA
:20862000A4EB00095AF8082B914528BF914680F8009000F1010B59684A46584604F060FD44
:208640000BEB09005346DAE7D3F800C09CF800100433421C51B1A24202D307E0A24205D0A2
:2086600002F8011B1CF8011F0029F7D1111A013901701046C3E71A6802F1200C0433BCF164
:208680007F0F009300F101012FD902F5805CBCF5804F00F1020E57D3384B02F500299945BF
:2086A00000F1030C5AD902F18069B9F1805F00F1040B0AD38146100F60F07F0009F8050B7F
:2086C00008467146E646DC46CB464FEA525A6AF07F0A894680F800A0614658464FEA923C3B
:2086E0006CF07F0C89F800C031E08C460146604602F07F020A70009B81E7019BC01A0146D5
:20870000C51C03EB00091E4B019C1B4A1B78EFB202F808702046637004F0A8F82544194AD7
:20872000144CB8447E23070A002189F8007084F80080117205F8020C05F8013C124B0122D5
:208740001A700023337043E7F446864660464FEAD21C6CF07F0C8EF800C0C9E7F2468146F0
:208760008E4660465146B9E70620FFF797FD00BF740000204C0200208C010020FFFF1F000D
:208780000C000020100000207C020020034602485A681978FFF700BF54E40008D0E900311A
:2087A000EFF3108272B6DBB2012B0ED0022B06D00978C9B282F310880748FFF7EDBE096819
:2087C00082F310880448FFF7E7BE098889B282F310880148FFF7E0BE5CE40008D0E90012DC
:2087E000B1F52F6F0CD2D2B25318B3F52F6F02D9C1F1F002D2B2054B05480B44FFF7CCBEB3
:20880000024B034800220B44FFF7C6BE84D40008FCE30008064A0749074B526809681B68EE
:208820000648914294BF1946591CFFF7B5BE00BF001000E0780100207C0100203CE400087A
:20884000024B03485968FFF7A7BE00BF001000E044E4000800B50A490A4B09880A4A5B7A6E
:2088600012680A4883B00091003118BF0121003318BF0123FFF790FE03B05DF804FB00BFC6
:2088800080000020100000206C0000204CE4000808B50420FFF702FD30B4EFF3108472B6EC
:2088A0000E490A68824203D111E083420CD01A461368002BF9D14B68834204BF084B4B60BC
:2088C00084F3108830BC704703681360F3E7054B026885689D601A600B60ECE710000020A2
:2088E0001C0000200000002038B58468EFF3108572B6184A11688B68E31A002B01DA0AE0E9
:2089000011460A689368E31A002BF9DA0260086085F3108838BD104B5B68E31A002B12DB96
:208920000E4B994208BF1968016018600C490D4813609C6000224FF080634A608A6043604E
:2089400085F3108838BD537A002BE9D10320FFF7A5FC00BF10000020001000E000000020A7
:2089600010E000E000ED00E02DE980485C4B91B05A689B465B4B02AF93F90830BA61002B90
:2089800040F00E84584957480B780122DBB2027263B307F13804FF23002204F80C3D534DBB
:2089A000534E0A7029462046FFF718FCF0B190F820305B07F6D5DBF804C072B690F8202090
:2089C00090F8213022F0040180F8201062B697F82C10CDF800C0304602F00102FFF7DCFD5D
:2089E00029462046FFF7FAFB0028E0D141490B78DBB213B307F13804FF23002204F80C3DC1
:208A00003D4D3E4E0A7029462046FFF7E7FBA0B190F82A2090F82B309A42F4D172B690F8C2
:208A20002A2090F82B30934200F0218462B629462046FFF7D3FB0028EAD131490B78DBB281
:208A4000002B00F0948007F13805FF22002305F8152DDFF8B0A00B707B6151462846FFF7B6
:208A6000BDFB0446002800F08280637FD907F4D572B6637FA268FA6123F00103637762B6D7
:208A8000237F032BE9D8DFE813F0A5027D023F0004007E69A069BE84022207F1240301217B
:208AA00097F8239002F042FBB7F82480CDF8049098FA98F87E69FA6900961FFA88F8434675
:208AC00004F1140104F1100002F010FB18F0040FC3D0044B5B7A002BBFD11C20FFF7DEFBF2
:208AE000001000E0100000206802002065A0000874E4000854020020C9AB00087CE4000805
:208B00006402002029A5000807F138084FF0010948F80C9D49464346A06997F82360032237
:208B200002F004FBFA6A0723BB8549464346A06992FA82F8022202F0F9FA019697F82D30C3
:208B400000934FEA1828FA691FFA88F304F1140104F1100002F0CAFA18F0010FB9D1514614
:208B60002846FFF73BFB044600287FF47EAFBC4A1378DBB2A3B307F1380AFF2300210AF856
:208B8000103DB84D1170022629465046FFF726FB044628B3237E5A07F6D5D90740F14783F1
:208BA00007F13808FFF778FE40F62D03267628F80C3D022243462069002102F0B7FA72B684
:208BC000DBF80420E3681344A3602046FFF78CFE62B629465046FFF701FB04460028D9D1E8
:208BE000A14A1378DBB2002B54D007F1380AFF2300210AF8103DDFF8A49211701E464946D6
:208C00005046FFF7EBFA0446002843D0A37D5A07F5D572B64FF00008A57EA26884F8168065
:208C200084F81A8062B6E368D31AFB6115F1FF3513D3237EE2180333DBB22D2BD67682F8D6
:208C40001C8082F81D802376F0D997F82810204602F00AFA15F1FF35EBD294F81780B8F119
:208C6000000F00F06E83B8F1010F00F00284B8F1020F00F04C84217E2D29C0D9204697F8D8
:208C8000281002F0F1F949465046FFF7A7FA04460028BBD1754A1378DBB2002B55D007F1E7
:208CA000380AFF2300210AF8103D714E11704FF0020831465046FFF791FA0446002844D043
:208CC000237E5907F5D5DA0740F1B68207F13805FFF7E2FD232384F8188025F80C3D22692A
:208CE0002B4692E80300022203F0A8FC40F26A43BB8522692B4692E80300022203F09EFC82
:208D000044F26A03BB8522692B4692E80300022203F094FC40F62303BB8522692B4692E83E
:208D20000300022203F08AFC72B6DBF80420E3681344A3602046FFF7D7FD62B6314650467A
:208D4000FFF74CFA04460028BAD14A4A1378DBB233B307F13804FF23002104F80C3D464DF9
:208D6000464E117029462046FFF738FAC0B1037FFF2BF7D172B6837C002B00F00983427F6D
:208D8000027762B6C27E97F82C10133000903046FFF702FC29462046FFF720FA0028E6D136
:208DA000374A1378DBB22BB307F13804FF23002104F80C3D334D344E117029462046FFF732
:208DC0000DFAB8B1037F1B07F7D572B6037F23F00803037762B6827F97F82C1000F1280371
:208DE000D2083046FFF7D8FB29462046FFF7F6F90028E7D1254A1378DBB24BB307F1380407
:208E0000FF23002104F80C3D214D224E117029462046FFF7E3F9D8B190F82030D907F6D5B8
:208E200072B690F82010826821F00101D0E9063C80F8201062B697F82C10CDF800C03046D4
:208E4000FFF7AAFB29462046FFF7C8F90028E3D1114B4AF6AA221A60DBF8041020E000BF87
:208E600050020020EDA000085802002060020020C1A000086C02002065C00008D4E400080B
:208E800078020020C1CD000804E400087002002085CA000814E400080030004075A4000838
:208EA00072B6734A13685B1A002BB8BF116062B6704C2378DBB2002B00F0B2806E4D2A7824
:208EC00000232370002A40F08D826C4B0822C3F88820BFF34F8FBFF36F8F694E002003F025
:208EE0003DFA002800F0B781C0F34348B8F1060F00F0A7810021084603F0FAF9B8F1040FC6
:208F0000ECD1604B1A68002AC0F277835E4B1B68002BC0F26E835C4A5C49116143F0044360
:208F20001360594A08239360544A9360544890F801C0017843888288C688ACF105001D2804
:208F400000F2B080DFE810F03E015901AE00AE00AA00AE00AE00AE00AE00AE00AE00AE00C7
:208F6000AE00AE00AE00AE00AE00AE00AE00AE00AE00AE00AE00AE00AE00AE00AE007F0040
:208F80006F005A0007F138080C2348F80C3D04224346A06997F82390012102F0C7F80F2319
:208FA000D7F82CC0BB85A0694346022201219CFA8CF802F0BBF8CDF8049097F82D30009347
:208FC000FA6928F07F4304F1140104F1100002F08DF842E507F138037E6943F8106D0422AF
:208FE0000121A06997F8238002F0A0F8BB6ACDF80480FA69009693FA83F860E5212951D16A
:20900000002A4FD1002E4DD1214902220B703046314603F039FA1F4B1B68B3F5966F22D012
:209020001D4BFB6144E0A1293CD1002B3AD1002A38D1062E36D9184B1648FB61022207215C
:2090400003F022FA34E021292CD15BBB52BB072E28D1104C31462046012203F015FA23686C
:20906000B3F5966FDCD103F003F90B4BFB611FE074020020840200208C02002000E100E04B
:209080001401002000090050000B00504000080071020020780000208002002011B9012BDC
:2090A00000F0448403F004F900232B70B94BFB61F9690B78DBB2002B35D0B74B187838611D
:2090C000024640320023802A0B7000F2ED80B34BB34C08251E18C4F88850BFF34F8FBFF3F9
:2090E0006F8F022003F03AF9002800F016843046402103F0FDF8AB4B1B68002BC0F2718270
:20910000A84AA949116143F004431360A44B08229A60002800F3C4803B69002B40F0C98052
:2091200000259D4B1D70A14C2378DBB233B1A04E357800232370002D40F060819D4D9E4E37
:20914000DBF80440BB6929683268DFF88C82A4EB030C01316244BCF5803F2960326080F053
:2091600093800CFB0CF3D8F80000FF3300EB1323834238BF4FF0FF33DFF860928F48D9F815
:2091800000A0C8F800302018A0EB0A00002880F2C7808B4BBC6193F90830002B3FF4F2ABDF
:2091A000DBF8042072B6864B93F90830002B40F0A28162B6DBF804309B1ABA691A44BA610D
:2091C000FFF7E0BB00297FF46DAF002A7FF46AAF002E7FF467AF7B490A6822F4FE6242EA01
:2091E00003130B603046314603F01CF9744B1E7201232370674BFB615AE780297FF452AF87
:20920000714C4FF480718B4204F1400C4FF0000006D0A44500F0EC8254F8101F8B42F8D1E2
:2092200061689142F5D1E1687960A068F1E797F8281002F0C1F8A7E497F8281001F030FEE7
:2092400037E50821304603F053F8002003F086F800287FF449AE4FF0A042936943F010038F
:2092600093614F4B08229A604A4BFB6120E7013380F82A304269038B62B697F82C103046AC
:20928000FFF78AF9FFF7BFBBBCF5801F80F0B3800CF1FF03D8F800001B0A0CFB030367E7A3
:2092A0003A69024400233A61454A1372FA6901231370DFF82C8198F80040E10740F10081FB
:2092C000364BBB603D6935482A467E2103F0C8FE002800F06D81BB68C01A431CEE1AFB6042
:2092E000A20704F0FE03F5B288F8003006D443F0020388F800303548FFF74EF9002E3FF49C
:2093000010AFD7E90230034432461946234803F091FF2B4A00231372FA690123137000E782
:209320002B48FFF739F9A24503D92A4A1368013313600023C9F80040C8F8003033602B6007
:2093400027E707F138031A46322322F80C3DDBF804107961134601210222206901F0E6FEF6
:20936000DBF80430796941F268025B1A934275D897F82C20130640F12781237EE218033332
:20938000D9B20323D57682F81D801377217673E462B6E7E4800200201001002090000020DC
:2093A00000E100E0400B0050400008007C0200204C0200207000002080010020004FF7E6A0
:2093C0001000002000080050ECD3000888E3000834E400087C0100208401002078010020D0
:2093E00088010020A64BA74918680978A64BFB6103F04AF85CE64FF0FF33BDE6DFF8A08211
:209400004FF00809402D2A46C8F8889028BF4022BFF34F8FBFF36F8F9C4B1B68190440F106
:20942000E480002BC0F271829949012002F0C4FF0146C8F8089000287FF780AE6D1A01D17C
:2094400035707BE692482A46014403F0F3FE914A002313720123237035706FE6237EE218C4
:209460000333D9B20223D57682F81D801377217602E407F138031A464FF67F6322F80C3D80
:20948000DBF80410FA601346396102220021206901F04CFEDBF8042039697A6141F268037D
:2094A000521A9A4240F2CD80237EE2180333D9B202200023D576107753772176FFF7DCBB84
:2094C0003B69042B40F21482734ABA601378FB60053B3B2B06D892F8019029F00F03102B2F
:2094E00000F0E080FB687E2B00F0FC8144F0010488F80040E6E66749FF230B7262B630BF88
:2095000072B6644B93F90830002BF7D151E62369D3E9021003048B61DBF804205432DBF8E9
:209520000430D31A002BFADA72B68861DBF8048062B607F1380319460023C7F82E30C7F8FA
:2095400032300B4642F2843223F80C2D012120690A2201F0EBFD07F12D0107F133000523F1
:2095600011F8012F5340082213F0800F4FEA430318BF83F01D03013ADBB2F5D18842EFD162
:20958000207E97F835E0DB43DBB2C11C9E45C9B200F1010C00F102053DD02044A4442544EB
:2095A0000323C6768CF81B30EA762176FFF764BB14F002057FF4B4AD44F00204374888F856
:2095C0000040FEF7E9FFACE597F82D00F969530243EA40037A69204601F020FD217EFFF70E
:2095E0004BBB9C037FF592AD8AE5C8F80890114624E79E037FF595AC8DE442F090421A60A5
:209600001A68002AFCDB4FF0A04320221A611A699206FCD47AE497F83430DB0640F1D0804A
:2096200097F82E307B611B0600F13E812044A44425440423C6768CF81B30EA762176FFF7BC
:209640001BBBC023BB854146FB682069022201F06DFD97F82C3097F82D1083EA010282EA8C
:20966000121282EA920282EA520212F0010200F0B280237EE2180333D9B2032019E700BFA1
:20968000880200208D02002080020020200900508C010020100000209000002088E3000856
:2096A00000E100E0D7E903138B42C0F0B380D7E902329D1815F8013C7E2B7FF413AFD7F8C3
:2096C00008A0D61E3146504603F0D0F81AF8062015F8023C43EA0223834256447FF402AFCE
:2096E000B24A137824F002044B4588F8004040F0D680B968013303F00F03023143F0100320
:209700008E42137040F2B880BB68C7F814D093F8029009F1FF334A2B4FD8A54CA54B4FEAC7
:20972000490A0AEB090103EB81014B784A6891F803C09B000A3303F4FF63ADEB030D02A823
:2097400001469444944518D0A642C0F0A58012F8013B042B76D9072B40F09E8094F800E0BC
:20976000651C05EB0E04A642C0F096800B46944543F808EB4D601946E6D18F4B5B7A3BB102
:209780008C4A0AEB090302EB83039B78DD077BD5884A0AEB090302EB83039B689847D7F841
:2097A00014D0A64268D994F80090C7F814D009F1FF334A2B04F10104B0D90520FEF76EFD34
:2097C0002044A44425440523C6768CF81B30EA762176FFF751BA58061ED5237EE018033389
:2097E000D9B20523C576427703772176FFF744BA40F203318B421DD000283FF453AC7B6860
:20980000B34214D814D20A22796802F03DFE6B4BFB614DE4DDB284E4890041EA83237A69D0
:20982000F969204601F0FAFB217EFFF725BA7E600222E9E740F209439A42DDD16048037809
:209840007B60DCE7237803F0600EBEF1600F04F1010403F07F0501F1040808D165F01F058F
:2098600005E014F8013B03F07F0E4EEAC5151B06F7D40D60414665E7D7E9032351489E1AC6
:20988000F5B2FEF789FE39E54B4B4F48997AFEF783FED7F814D084E70720FEF7FFFCD7E9DC
:2098A00003239E1AF5B226E5FB69DFF844E1A8EB0308F0451ED87B6997F82FE097F832208C
:2098C0005B0243EA4E032044A4442544C2F345024FEA132EC2768CF81B3085F81BE021766C
:2098E000FFF7CAB93B695E1E0123F5B2FB6008E53D7C16E42044A44425440123C6768CF870
:209900001B30EA762176FFF7B7B9304AD36943F00203D361C8F8089010E44FF0A042936914
:2099200043F010039361A560FFF7F6BB002A7FF4B9AB002E7FF4B6AB254B0822C3F8882041
:20994000BFF34F8FBFF36F8F224A2349234B4FF00810106100F1C65000F590201060204A33
:2099600020480A61086020491A611A4619601368002BFCDB4FF0A04360221A61196911F0D0
:209980002001FBD1124B08229A600B4B1972174A197201231370094AFA611446084602226B
:2099A000237002F071FDFFF783BB00BF0C0000209300002074DF00081000002080020020B5
:2099C0003800002088E3000824E400080008005000E100E060090050400B005020090050C6
:2099E0004000080040800894408048587C020020E4BF0100AE4BAF4AAF4DB048B04923F02F
:209A0000030345F2555480B52B601460002340F6FF754CF6CC44536095601460C26842F095
:209A20008072C2600A6842F001020A6084B04B60EFF3108072B601F55D41A24A202481F84B
:209A4000234007254FF080641560536093604C6080F310889C4A536B43F0800353634FF033
:209A6000A0442369002BFCDA984E994BE360336843F003033360A36B43F40013A363002281
:209A8000A2210B2002F02CFE0022A2210C2002F027FE9048904A9149914B50256562A062EE
:209AA0001030C4F80C011030C4F804018D4810608D4A0A6100F10040086001228B483261F3
:209AC0001021A061A26083F8431308229A60A26B8748884D42F48032A263002340F2323206
:209AE000736002805A10D907525D4CBF02F00F021209092A91B203F1010394BF01F130020A
:209B000001F13702182B20F8022FEBD17A48FEF743FD72B6794803F03BFC10B962B6FEF7F2
:209B200023FF72B6764B66495A7AD1F804A002B99872744B7449724A744C1C609C680B6082
:209B40008C6011605F48724C53600221517200234FF080624360836062606E4A6E4D137028
:209B600004ACFEF75BFBFF2304F8093D11260EE090F83030D0E9061213F010030BBF1204B2
:209B80008A618A613346002280F83030826229462046FEF723FB0028EAD104ADFF230446B0
:209BA00005F8083D5D4E04E0446321463C3000F011FC31462846FEF711FB0028F4D104ACDA
:209BC000FF2304F8073D564D01E001F021FD29462046FEF703FB0028F7D104ADFF2305F808
:209BE000063D504E0AE004F1200393E8030002F05BFD94F82B30002B40F0F2803146284621
:209C0000FEF7ECFA04460028EDD104ACFF2304F8053D454D03E0037CDA0700F1ED80294687
:209C20002046FEF7DBFA0028F5D1FF2325468DF80B3004463D4E05E0431D02790068214655
:209C400001F074FA31462846FEF7C8FA0028F3D104ACFF2304F8043D354D364E05E0C368F8
:209C6000828A1A6000234660836129462046FEF7B5FA0028F3D104ACFF2304F8033D2E4DC3
:209C800007E002698369C668416912041B04B2618B6129462046FEF7A1FA0028F1D104AF78
:209CA000FF23814607F8023DDFF8908062E000BF930200200030004034000020F0ED00E05F
:209CC000001000E010E000E00038024000080050401800405000100000090050000B005046
:209CE00000E100E002000008400008201000040038000020107AFF1F1CE400081C010020D8
:209D0000100000201C000020000000202800002000ED00E07400002011A9000889A8000813
:209D200065A00008C9AB00080DA0000871A900084DA80008CDA4000811AE000835CE00087B
:209D40000569C6688469016A826A036B2D04B56145692404AC61C469856B0904A161416AB4
:209D600012048A61C26A416B1B042D0493618D6180F8089041463846FEF730FA0028DFD1CC
:209D800004ACFF2304F8013D1F4D01E003F0B4F829462046FEF722FA0028F7D1EFF303838D
:209DA000C3F3080343B14FF080736FF0060208B401A102B41FB51047144B002119721448AF
:209DC00019720122027013481972027012495A720A7062B611489A7A5146FEF7DDFB9DE6FE
:209DE0006269E16801330A4484F82A306261A2602046FEF779FD01E7D0E902121B0748BF83
:209E000012048A610BE700BFC1CD0008100000207C02002080020020840200202CE40008CC
:209E2000037E0549002243F0040303760A72034B012110461970704710000020600200204A
:209E4000827D510703460DD442F004028275074A00211172D3E902200549024401209A60D0
:209E600008707047827E01328276F0E71000002058020020037E0549002243F00403037663
:209E80000A72034B01211046197070471000002050020020084A002110B403461172417FDB
:209EA000064CD0E9022041F0010102445977012020709A6010BC7047100000206402002048
:209EC000C36970B56BB10E4604460025D3E900023146E0611846C3E900559047E369002B2F
:209EE000F4D1034B00221A72024B01221A7070BD100000206802002008B5037DDA0709D5C4
:209F000023F00503817D417543F0040303750C38FFF7D6FF002008BD90F82020074903466B
:209F200042F00402002083F8202008729A6898690349024401209A60087070471000002085
:209F40006802002010B5D0E90323126990F824401A4218BFE44304F001046CB990F8263016
:209F6000013B13F0FF0311D08268816980F826300A448260012010BDC26990F825300E49A0
:209F800080F82630C0E90112012010BD026A92F82030D9070ED523F0050390F8271082F8EC
:209FA000211043F00403104682F82030FFF788FF204610BD204610BDBD9F000830B4D0E932
:209FC0000223D0E904151C6990F824300C4218BFDB4303F001032A441BB1826030BC0120C6
:209FE0007047034BC261436030BCFFF7ABBF00BF459F000800B5034683B06846D3E90012F2
:020000040800F2
:20A0000002F08AFE03B05DF804FB00BF70B5142282B005460E490078FEF79CFAD5E90116F9
:20A020006D46B6FA86F204465209284602F074FE95E8030004F1080383E80300002E94F925
:20A04000103014BF092201221343237402B070BD0DA00008007802491422FEF77BBA00BF3C
:20A060000DA0000808B5242200780449FEF772FA034A044B4260036108BD00BF65A00008CF
:20A08000199F0008F99E000800B585B004AB7221026903F8081D03A80221CDE9001092E89C
:20A0A0000300012202F06CFA9DF80C309DF80D0003F01F0340EA032005B05DF804FB00BF85
:20A0C00038B54C22054606490078FEF743FA0446044B287904496360FEF794F9206138BD9F
:20A0E000C1A00008219E00088DAA000838B54C22054606490078FEF72DFA0446044B28792E
:20A1000004496360FEF77EF9206138BDEDA00008759E00080DA0000810B50446094900780F
:20A12000FEF770F96368002B0CBF0023022372B690F8442022F00202134380F8443062B634
:20A1400010BD00BF89A80008F0B51B491B4C87B007460078FEF756F906AB7221666802690D
:20A1600003F8081D0546022105A8CDE9001092E80300012202F004FA9DF814009DF81520DB
:20A1800063680F49B5F816C0CDF80CC000F01F0442EA0422A1FB0212920802926A7E3968BC
:20A1A0000192AA8A00929B1B324606488DF81440FEF7F2F907B0F0BDC1A00008001000E054
:20A1C000ABAAAAAAC4E4000810B5044682B01A30637EA28A00900548FEF7DEF9A38A002296
:20A1E00001336276A38202B010BD00BFCCE4000810B5044682B01A30637EA28A00900548C3
:20A20000FEF7CAF9A38A002201336276A38202B010BD00BFA4E4000830B504780C4983B04F
:20A220002046FEF7EFF872B690F82420C36962B6D0E903512D6907480D4214BF0125002545
:20A24000C2F3400221460095FEF7A6F903B030BD91A600086CE4000810B504780D49204643
:20A26000FEF7D0F872B690F84430026B13F0100F436914BFD21AA2EB5302002AB8BF5242EC
:20A2800062B60548214602F14042BDE81040FEF783B900BF89A8000864E4000838B50B49CE
:20A2A00004460078FEF7AEF80546FEF7F5FA6368AB60A368EB6003B938BDE3682B612369D2
:20A2C0006B612846BDE83840FEF70EBB29A5000870B50578154982B006462846FEF792F828
:20A2E000044672B690F82030DA070AD523F00503317980F8211043F0040380F82030FFF7EE
:20A30000DFFD2046FEF7C8FA04F10C00FEF7C4FA002284F8202094F8213062B604480092DF
:20A320002946FEF739F902B070BD00BF65A0000874E4000870B50B4905460078FEF762F8F1
:20A3400072B690F82030DB070AD500F10C0604463046FEF7A1FA6B6863613046FEF7C4FA29
:20A3600062B670BD65A0000838B5174905460078FEF748F80446FEF78FFA6B68A360AB6895
:20A38000A3612B7B84F82530CBB12A69626184F826306B690D4A6260002B14BF0323022368
:20A3A00084F82430287E0A49FEF72CF8EB6984F8273020622046BDE83840FEF795BA84F8CF
:20A3C0002430236238BD00BF91A60008BD9F000865A0000838B504463C38FEF75DFA237AAC
:20A3E00054F80C2C002144F8341C44F8241C54F8281CD8064CBF521AA2EB510254E90501A8
:20A40000002A03F0140343F00803C8BF524244F80C2C09040025DA06237244F8285C8161F2
:20A420000FD554F8083C5BB10948016800E013461A68196003601946002AF8D144F8082C89
:20A4400038BD54E907125B0758BF12048A61E8E75C02002010B5064904460078FDF7D2FF4F
:20A46000A368227903C8BDE8104002F0E7B800BF8DAA000870B5067A032E12D804464C226F
:20A480000B490078FEF766F805460A4B20790A496B60FDF7B7FF2861037CDB0704D5EE7576
:20A4A00070BD2320FDF7FAFE2220FDF7F7FE00BF75A40008419E00080DA0000808B51B20A1
:20A4C000FDF7ECFE08B52120FDF7E8FE826970B5134C1368C668256811898361316015609D
:20A4E000858A226063B9A94208D0036933B182680C49416013448360012070BD184670BDA9
:20A50000A9425A6801D0036913B98260012070BD81680B449B1A002BF7DA2020FDF7BEFE7C
:20A520005C020020C5A4000870B5067A032E0FD80446202208490078FEF70CF80546074B84
:20A54000207907496B60FDF75DFF2E77A86170BD1E20FDF7A3FE00BF29A50008959E000879
:20A560000DA0000838B50E4905460078FDF74AFF0C4904462879FDF745FFEFF3108272B6CE
:20A58000236C4BB9C369084D04F13C01C4E90F35C16182F3108838BD1920FDF77FFE00BFF7
:20A5A00089A8000865A00008D5A3000810B504460A490078FDF726FF626872B643694BB940
:20A5C00090F84430826023F00803826180F8443062B610BD1620FDF761FE00BF89A800084A
:20A5E00038B51F4905460078FDF70CFF0446FEF753F9A36A83BB2A7994F83030D4E90650CC
:20A60000002A08BF0004A861B2FA82F283F010004FEA5212C0F3001014BF0121002103F030
:20A620001003824249B25BB201D0226A1AB90B4384F8303038BD0B480B4D4068656041F0A3
:20A6400004010B43024484F830306261A2602046BDE83840FEF748B91220FDF71FFE00BF45
:20A6600011A90008001000E0AD82000810B5074904460078FDF7C6FE72B6836A1BB96368AE
:20A68000436262B610BD1420FDF708FE11A9000870B5282282B0064609490078FDF75AFF3C
:20A6A0006D460446D6E90112284602F0CBF995E8030004F10C0383E8030002B070BD00BF17
:20A6C00091A600082DE9F04190F81080B8F1030F82B036D806461D490078FDF793FE0746E5
:20A6E0001C20FDF7CDFE6C46054601222046716802F0A8F994E8030085E803000022B16843
:20A70000204602F009FB94E8030005F1080383E803000022F168204602F0FEFA94E80300A5
:20A7200005F1100383E8030085F818803B7C13F0060F08D143F002033B743D6002B0BDE80A
:20A74000F081FFF7BBFEFFF7B9FE00BF0DA00008027A4168007802F0CBB800BF70B5184961
:20A7600006460078FDF74EFE0546FDF777FE73684360B3680381044672B6AB6900220260FA
:20A7800023B1EB691860E86162B670BDC5E9060062B62846FEF780F80A4B6A689A42636816
:20A7A00007D0094A2846C5E90123BDE87040FEF79BB8AA68D21A002AF3DA2020FDF76EFDFE
:20A7C0004DA80008C5A40008CDA4000870B51D4905460078FDF716FE0446FDF73FFE6E68EB
:20A7E0004660AB68836072B6A36A0022026023B1E36A1860E06262B670BD94F830305A0797
:20A80000C4E90A0016D443F004029B07666184F830200AD42046FEF73FF80B4B2046C4E950
:20A820000136FEF761F862B670BDA3689B1B002BF9DBEFE76269921B002AE4DA1320FDF731
:20A840002DFD00BF11A90008AD82000838B5027B81680446007902F04BF8202205460849ED
:20A860002078FDF777FED4E90412064BC5608182436002610C211830BDE83840FDF7DABD68
:20A880004DA80008CDA40008F0B5482283B006461D490078FDF75EFEF7680446002FCCBF23
:20A8A000042200226D4684F844207168284602F033FA95E8030004F1200383E8030000222F
:20A8C000B168284602F028FA95E8030004F1280383E803004FF0404323633369E361102176
:20A8E00004F13400FDF7A6FDE3690BB9002F03DB064B636003B0F0BD94F8443043F01003C1
:20A9000084F8443003B0F0BD89A8000895B7000830B5D0E9011283B0003204466D4618BF70
:20A920000122284602F0F8F9104920783422FDF711FE024695E8030002F1180383E8030015
:20A94000D4E90231003318BF012311B143F010035BB282F830302369136202F128000C21A1
:20A9600003B0BDE83040FDF765BD00BF11A9000870B50B4904460079FDF744FD257A094916
:20A98000064605F108022078FDF7E4FD057106602A46E1680530BDE8704002F0B1BB00BFC2
:20A9A0000DA0000871A900082DE9F04F85B004462349007802AFFDF725FDE56894F804B0B4
:20A9C000A368EA0738D4C5F347050BEB050909F1070202F47E72ADEB020D0DF1080819466A
:20A9E00006465A46404608EB0B0A7B60246902F087FBCDE9005A7B685A4696E8030001F0FC
:20AA0000BFFD75B10AF1FF326019217812F8013F23EA01031370295D01340B43A0421370CA
:20AA2000F3D143465FFA89F296E8030001F006FE0C37BD46BDE8F08F1F20FDF72FFC00BFF8
:20AA40008DAA0008F0B583B006780E49044602AF3046FDF7D7FC257B2279A368E91D01F491
:20AA6000FC71ADEB010D02ACCDE9005403C801F087FD23462A4631460348FDF78DFD043777
:20AA8000BD46F0BD8DAA000894E400082DE9F8430446082200781C49257BFDF75BFD6768EA
:20AAA000032F2ED8194E56F837408046204601F0F9FE8146F0B906EBC706204601F000FF9A
:20AAC0007779307901224FF4A17101F009FE384601224FF4A17101F003FE4FF400462A20B2
:20AAE000D2212B2201232660C4F800906060E161226223606D0088F80450C8F80040BDE831
:20AB0000F8833020FDF7CAFB8DAA0008A4E300082DE9F047064629490078FDF773FC347A4F
:20AB2000032C45D8037C13F0060F054640D1D6F80490F668B9F1060F3CD8DFF8888058F814
:20AB40003970384601F0AEFE8246B8B11C4800235A1C20FA02F18E420ED2082A1346F7D1F3
:20AB600038232A7C2F6044F4517442F0040223432A746B60BDE8F087DB00F2E708EBC908AD
:20AB8000384601F09DFE98F8079098F804004946012201F0A5FD5246494698F8050001F0FE
