:020000040800F2
:2000000000000120B52B0008B12B0008B12B0008B12B0008B12B0008B12B0008B12B00087F
:20002000B12B0008B12B0008B12B0008B12B0008B12B0008B12B0008B12B0008712E0008DD
:20004000B12B0008B12B0008B12B0008B12B0008B12B0008B12B0008B12B0008B12B000880
:20006000B12B0008B12B0008B12B0008B12B0008B12B0008B12B0008B12B0008B12B000860
:20008000B12B0008B12B0008B12B0008B12B0008B12B0008B12B0008B12B0008B12B000840
:2000A000B12B0008B12B0008B12B0008B12B0008B12B0008B12B0008B12B0008B12B000820
:2000C000B12B0008B12B0008B12B0008B12B0008B12B0008B12B0008B12B0008B12B000800
:2000E000B12B0008B12B0008B12B0008B12B0008B12B0008B12B0008B12B0008B12B0008E0
:20010000B12B0008B12B0008B12B0008B12B0008B12B0008B12B0008B12B0008B12B0008BF
:20012000B12B0008B12B0008B12B0008B12B0008B12B0008B12B0008B12B0008B12B00089F
:20014000B12B0008B12B0008B12B0008052B0008084A002110B403461172417F064CD0E9ED
:20016000022041F0010102445977012020709A6010BC70471000002098010020C36970B5AC
:200180006BB10E4604460025D3E900023146E0611846C3E900559047E369002BF4D1034B4A
:2001A00000221A72024B01221A7070BD100000206002002008B5037DDA0709D523F00503A1
:2001C000817D417543F0040303750C38FFF7D6FF002008BD90F820200749034642F004022C
:2001E000002083F8202008729A6898690349024401209A6008707047100000206002002019
:2002000010B5D0E90323126990F824401A4218BFE44304F001046CB990F82630013B13F03E
:20022000FF0311D08268816980F826300A448260012010BDC26990F825300E4980F82630EE
:20024000C0E90112012010BD026A92F82030D9070ED523F0050390F8271082F8211043F033
:200260000403104682F82030FFF788FF204610BD204610BD7902000830B4D0E90223D0E976
:2002800004151C6990F824300C4218BFDB4303F001032A441BB1826030BC01207047034B7C
:2002A000C261436030BCFFF7ABBF00BF0102000810B4D0E906144A69836862404A6190F858
:2002C000301081F00102C90754BFC168016980F8302052070B4403D4836010BC0120704726
:2002E0004269991A0029F7DB034B43601346836010BC0120704700BF95070008704700BFFB
:2003000010B48268D0E90034EFF3108172B6DBB2012B0CD0022B05D0D2B2227081F31088EE
:2003200010BC7047226081F3108810BC704792B2228081F3108810BC704700BF70B40D4A7A
:2003400003780D4C126825780133DCB202EBC40204E052F8084B8C4207D00133DBB29D4277
:200360001646F6D8002070BC70470370706870BC704700BF98000020940000200D4B1988FE
:20038000B1B130B40C4A0D4B15681878013907D02B1800221C1A01328A4223600344F9D11D
:2003A00001FB00F1064B00226A501D6030BC7047704700BF84000020900000208C0000208D
:2003C00088000020002070470849094B886830B400F18012074D084C034402F5305200201A
:2003E0002072AB6001208A6030BC70471C000020802C8080280000201000002000B5034654
:2004000083B06846D3E9001203F092FE03B05DF804FB00BF027A4168007803F0A9BB00BF31
:20042000D0E908311A6812F0100F07D0920709D4836803F5D263836001207047274A5963DA
:200440009A60F5E75A6B8A42F2D110B56FF010021A6090F82A2090F82B10DB6C8A429BB2CD
:200460001FD2048B0132D2B223449BB28A42038380F82A201BD3428B9A421ED8828B9A4207
:200480001BD3174B002280F8282000221A724369C168144A0B4401211170436183600120AF
:2004A00010BD01228A42038380F82A20E3D28368026913448360012010BD90F8283090F89D
:2004C00029200133DBB29A4280F82830044BDCD85A7A002AD6D11A2000F0EEF8010000406D
:2004E00010000020380000202DE9F04F057C15F0060F83B023D0AF070091824605F0010158
:2005000004681FD440682060002940F09380511EC9B2A2B15A1803F1FF3818F8013F237328
:20052000A368D907FCD5237BDBB2009909B188F800309045F1D19AF81030DB076DD403B092
:20054000BDE8F08F267ED4E90450B60758BF0004A861002967D0DAE9020102F1FF3B090481
:2005600081615FFA8BFB002AE5D003EB0B02019203F1FF3804F1100618F801BF08270025F3
:200580001DE096E8030003F017FCD4E90201B9F1000FA8BF090481614FEA4B0396E8030000
:2005A0005FFA83FB03F008FCD4E9001209696D001142EDB218BF45F00105013F22D0217EEA
:2005C000C8074FFA8BF9DCD4D4E90201B9F1000FA8BF090481614FEA4B0396E803005FFA9F
:2005E00083FB03F0E9FBD4E9001209696D001142EDB296E8030018BF45F0010503F0DCFBA9
:20060000013FDCD1009B0BB188F80050019B4345B2D19AF81030DB0791D5DAE902329A6113
:2006200003B0BDE8F08F02F1FF3B5FFA8BFB002A9BD184E7DAE902010D04511E8561C9B22F
:20064000002A7FF467AF76E7436B13B9436118467047B3F908105A6870B41D6890F844401C
:2006600045638D18C560E5060182598912D4846922444C008261826044611C7B026BE407DA
:2006800010D4114401630B4A116819600120136070BC704784684161224482601C7B026B25
:2006A000E407EED5D0E90A566C69891A744001636C61E8E78800002008B5014672B601482A
:2006C00004F0CCF92801002008B52120FFF7F4FF826970B5134C1368C66825681189226070
:2006E0008361848A3160156063B9A14208D0036933B182680C49416013448360012070BD73
:20070000184670BDA1425A6801D0036913B98260012070BD81680B449B1A002BF7DA202047
:20072000FFF7CAFF88000020C906000838B5D0E90825536915496B40536143694D68C269A3
:20074000013B1544DA070446436102D5A560012038BD6BB1C1688369B0F910200B440A449C
:20076000591B00298361C260F0DB8360012038BDFFF76AFF0028EBD0A3685B1BE8D5044A44
:200780009342E3DA1820FFF797FF00BF001000E0E0B7FEFF816AF8B5002900F08B808C6810
:2007A000474E0A68D6F800C08262002C14BF01250025D0E906E33AD11B04CEF8183031600B
:2007C000C1F800C090F83030B4FA84F683F01001C1F3001176098E421FD0016AE9B1866816
:2007E00045F004053144002A50D190F83030416103F010032B4380F83030AB0705F0040278
:2008000056D52644002A51D1476A2E4A42603F1B0761C0E902640120F8BD03F010035BB272
:20082000EAB92B4380F8303042611046F8BD476A3160A742CEF81830C1F800C0C2D9016A69
:20084000F9B990F8303003F010035BB25ABB8168426143F0030380F830306618D5E745F0CA
:20086000040569B20025526842610B4380F8303025B18368E618B11A0029C5DB8260012056
:20088000F8BD866807253144002AAED05268891A002912DB90F8303003F0100369B25BB2E3
:2008A00005F00205E0E702250721DCE70A46E2E70A46E3E71520FFF7FFFE1320FFF7FCFEE5
:2008C00088000020B102000808B5054A537A23B1022B1CBF0023537208BD0220FFF7ECFE51
:2008E0001000002008B50820FFF7E6FE08B5094B1B7883420AD9084B00B21B6853F830209A
:200900008A4203EBC00001D1406808BD0C20FFF7D3FE00BF94000020980000202DE9F04FAB
:2009200085B004462349007802AFFFF7DFFFE56894F804B0A368EA0738D4C5F347050BEB40
:20094000050909F1070202F47E72ADEB020D0DF10808194606465A46404608EB0B0A7B6037
:20096000246903F02DFFCDE9005A7B685A4696E8030002F005FF75B10AF1FF32601921785D
:2009800012F8013F23EA01031370295D01340B43A0421370F3D143465FFA89F296E8030069
:2009A00002F04CFF0C37BD46BDE8F08F1F20FFF783FE00BFE90D000810B506490446007847
:2009C000FFF794FFA368227903C8BDE8104002F035BF00BFE90D000810B5044605490078B0
:2009E000FFF784FFA36822790021BDE81040FFF77BBD00BF710D00082DE9F0470646294944
:200A00000078FFF773FF347A032C45D8037C13F0060F054640D1D6F80490F668B9F1060F8A
:200A20003CD8DFF8888058F83970384603F03AF88246B8B11C4800235A1C20FA02F18E421C
:200A40000ED2082A1346F7D138232A7C2F6044F4517442F0040223432A746B60BDE8F087B3
:200A6000DB00F2E708EBC908384603F04FF898F8079098F804004946012202F04BFF524605
:200A8000494698F8050002F045FF5246494698F8060002F03FFFCDE703F038FE2F20FFF7ED
:200AA0000BFE00BF710D000880DE80027859000838B50E4905460078FFF718FF0C4904467C
:200AC0002879FFF713FFEFF3108272B6236C4BB9C369084D04F13C01C4E90F35C16182F303
:200AE000108838BD1920FFF7E7FD00BFE10F0008890F0008ED15000810B504460A4900781B
:200B0000FFF7F4FE626872B643694BB990F84430826023F00803826180F8443062B610BD9B
:200B20001620FFF7C9FD00BFE10F000810B5044609490078FFF7DAFE6368002B0CBF002381
:200B4000022372B690F8442022F00202134380F8443062B610BD00BFE10F000810B5074953
:200B600004460078FFF7C2FE72B6836A1BB96368436262B610BD1420FFF79EFD6910000879
:200B800008B5074B1A880023C0E900332AB9054B1A788A42B8BF197008BD0E20FFF78CFDA2
:200BA000840000208C00002008B5EFF3108272B6054B186820B10168196082F3108808BD37
:200BC0000F20FFF779FD00BF8800002038B50A4D0A4B2C6822189A420BD8C31C23F00303F5
:200BE00023440246002120462B6003F0E7FE204638BD1120FFF760FD3400002000FE00200B
:200C00002DE9F04190F81080B8F1030F82B036D806461D490078FFF769FE07461C20FFF774
:200C2000D5FF6C46054601222046716803F066F894E8030085E803000022B168204603F0AD
:200C400077FA94E8030005F1080383E803000022F168204603F06CFA94E8030005F1100373
:200C600083E8030085F818803B7C13F0060F08D143F002033B743D6002B0BDE8F08103F00A
:200C800045FD03F043FD00BF710D0008F8B5174E33883BBB164B174D1C78032C9CBF0424CC
:200CA0001C70154B07461868002301460A19AA4211D80133B3F5806F1146F7D11C46101AA3
:200CC000FFF784FF0D4B34801860FFF757FB0C4B3A681A60F8BD13B19CB20A46EFE710203F
:200CE000FFF7EAFC0D20FFF7E7FC00BF840000208C00002000FE00203400002090000020E1
:200D00007000002038B5074C236843B90568E8B2C000FFF75BFF044B20601D7038BD0A20EA
:200D2000FFF7CAFC980000209400002038B50D4B1C78844212D903460B481BB2046854F8E0
:200D4000330004EBC30548B90848008830B944F833101046FFF73AFF686038BD0B20FFF705
:200D6000ABFC00BF94000020980000208400002070B5142282B006460B490078FFF7D6FF8D
:200D80006D46044671682846012203F0D1F995E8030004F1080383E80300237C43F001036B
:200DA000237402B070BD00BF710D000838B5027B81680446007902F0DBFE202205460849B9
:200DC0002078FFF7B3FFD4E90412064BC5608182436002610C211830BDE83840FFF7D0BE6B
:200DE000AD0D0008D10600082DE9F8430446082200781C49257BFFF799FF6768022F2ED87C
:200E0000194E56F837408046204602F04BFE8146F0B906EBC706204602F078FE77793079AA
:200E200001224FF4A17102F075FD384601224FF4A17102F06FFD4FF400462A20D2212B226F
:200E400001232660C4F800906060E161226223606D0088F80450C8F80040BDE8F8832E20E4
:200E6000FFF72AFCE90D00086059000870B5067A032E0FD80446202208490078FFF756FF3A
:200E80000546074B207907496B60FFF72FFD2E77A86170BD1E20FFF70FFC00BF6D0E000883
:200EA00051010008710D000870B50B4904460079FFF71CFD257A0949064605F10802207832
:200EC000FFF734FF057106602A46E1680530BDE8704003F075BC00BF710D0008A90E0008A2
:200EE000007802491422FFF721BF00BF710D0008F8B5446806463CB3012213461B4904E086
:200F00000133102B1DD011F8012F94421D46F7D1174B5B6CDB051CD5FE2C04D020460022BB
:200F2000032102F0F7FC134930782C22FFF7FEFE01231149114A80F82A304562416002620D
:200F4000F8BD2B20FFF7B8FB094B5D6C15F480750AD10A4F384602F0C3FC094BFB60094A68
:200F60003A610123BB60D7E72546D7E76D4A000800380240F10E00082104000800200140E2
:200F8000244992042449922408B5242200780449FFF7CCFE034A044B4260036108BD00BF7D
:200FA000890F0008D5010008B501000870B5282282B0064609490078FFF7B8FE6D46044695
:200FC000D6E90112284602F099FE95E8030004F10C0383E8030002B070BD00BFAD0F0008F4
:200FE000F0B5482283B006461D490078FFF79EFEF7680446002FCCBF042200226D4684F819
:2010000044207168284603F093F895E8030004F1200383E803000022B168284603F088F885
:2010200095E8030004F1280383E803004FF0404323633369E361102104F13400FFF7A0FD8D
:20104000E3690BB9002F03DB064B636003B0F0BD94F8443043F0100384F8443003B0F0BD69
:20106000E10F00082D07000830B5D0E9011283B0003204466D4618BF0122284603F058F87E
:20108000104920783422FFF751FE024695E8030002F1180383E80300D4E90231003318BF86
:2010A000012311B143F010035BB282F830302369136202F128000C2103B0BDE83040FFF716
:2010C0005FBD00BF691000080FB42DE9F04F744E337885B0DBB223B105B0BDE8F04F04B04C
:2010E00070470E9B5D786F4B93F8008008EB050201210FABC02A3170039306D9002333705A
:2011000005B0BDE8F04F04B07047674AE91E02EB0800052D019000EB010940F28C800E9A80
:2011200097785568127882702F4403304C46BD427BD0A04200F2B08015F8012B072A00F285
:20114000AB80DFE802F030303030301904049A46A4EB00095AF8082B914528BF914680F891
:20116000009000F1010B59684A46584603F028FB0BEB09005346DAE7D3F800C09CF8001055
:201180000433421C51B1A24202D307E0A24205D002F8011B1CF8011F0029F7D1111A0139BF
:2011A00001701046C3E71A6802F1200C0433BCF17F0F009300F101012FD902F5805CBCF599
:2011C000804F00F1020E57D3384B02F50029994500F1030C5AD902F18069B9F1805F00F10B
:2011E000040B0AD38146100F60F07F0009F8050B08467146E646DC46CB464FEA525A6AF09A
:201200007F0A894680F800A0614658464FEA923C6CF07F0C89F800C031E08C46014660461A
:2012200002F07F020A70009B81E7019BC01A0146C51C03EB00091E4B019C1B4A1B78EFB28A
:2012400002F808702046637002F03CFD2544194A144CB8447E23070A002189F8007084F850
:201260000080117205F8020C05F8013C124B01221A700023337043E7F446864660464FEA47
:20128000D21C6CF07F0C8EF800C0C9E7F24681468E4660465146B9E70620FFF70DFA00BFF1
:2012A000780000205C0200209C010020FFFF1F000C0000201000002078020020F0B583B070
:2012C00006780E49044602AF3046FFF70FFB257B2279A368E91D01F4FC71ADEB010D02ACC6
:2012E000CDE9005403C802F04BFA23462A4631460348FFF7E9FE0437BD46F0BDE90D000881
:20130000305A000870B582B00E469DF81C409DF8185000950546214608481C46FFF7D4FEE1
:201320002B689C4202D333689C4202D9044B5B7A0BB102B070BD1D20FFF7BEF9285A0008E0
:201340001000002070B50578094904462846FFF7CDFAA6682479334622460121FFF7C4F894
:201360003346224629460348BDE87040FFF7ACBE710D0008205A000830B504780C4983B02C
:201380002046FFF7B3FA72B690F82420C36962B6D0E903512D6907480D4214BF01250025AD
:2013A000C2F3400221460095FFF78EFE03B030BDAD0F0008085A000810B504780D492046ED
:2013C000FFF794FA72B690F84430026B13F0100F436914BFD21AA2EB5302002AB8BF524254
:2013E00062B60548214602F14042BDE81040FFF76BBE00BFE10F0008005A000803460248EC
:201400005A681978FFF760BEF0590008D0E90031EFF3108272B6DBB2012B0ED0022B06D0F4
:201420000978C9B282F310880748FFF74DBE096882F310880448FFF747BE098889B282F34D
:2014400010880148FFF740BEF8590008D0E9001240F6342399420DD8D2B2501840F63523CC
:20146000984202D9C1F13502D2B2054B05480B44FFF72ABE024B034800220B44FFF724BE9F
:20148000544B0008B0590008064A0749074B526809681B680648914294BF1946591CFFF7B6
:2014A00013BE00BF001000E08401002088010020D8590008024B03485968FFF705BE00BF54
:2014C000001000E0E059000800B50A490A4B09880A4A5B7A12680A4883B00091003118BF2C
:2014E0000121003318BF0123FFF7EEFD03B05DF804FB00BF84000020100000207000002091
:20150000E859000808B50420FFF7D6F830B4EFF3108472B60E490A68824203D111E0834244
:201520000CD01A461368002BF9D14B68834204BF084B4B6084F3108830BC70470368136036
:20154000F3E7054B026885689D601A600B60ECE7100000201C0000200000002070B5057827
:20156000154982B006462846FFF7C0F9044672B690F82030DA070AD523F00503317980F82B
:20158000211043F0040380F82030FEF7F7FD2046FFF7BCFF04F10C00FFF7B8FF002284F8CC
:2015A000202094F8213062B6044800922946FFF78BFD02B070BD00BF890F0008105A00087B
:2015C00010B50446FFF7A2FF0C30FFF79FFFE36933B100221968C3E900220B460029F9D1B0
:2015E0000023E361238484F8223010BD38B504463C38FFF78BFF237A54F80C2C002144F899
:20160000341C44F8241C54F8281CD8064CBF521AA2EB510254E90501002A03F0140343F08F
:201620000803C8BF524244F80C2C09040025DA06237244F8285C81610FD554F8083C5BB147
:201640000948016800E013461A6819601946002AF9D144F8082C036038BD54E907125B07C9
:2016600058BF12048A61E8E78800002038B58468EFF3108572B6184A11688B68E31A002B6D
:2016800001DA0AE011460A689368E31A002BF9DA0260086085F3108838BD104B5B68E31ADC
:2016A000002B12DB0E4B994208BF1968016018600C490D4813609C6000224FF080634A60B6
:2016C0008A60436085F3108838BD537A002BE9D10320FEF7F1FF00BF10000020001000E0DF
:2016E0000000002010E000E000ED00E070B5184906460078FFF7FAF80546FFF755FA736890
:201700004360B3680381044672B6AB690022026023B1EB691860E86162B670BDC5E906009B
:2017200062B62846FFF7F2FE0A4B6A689A42636807D0094A2846C5E90123BDE87040FFF7BA
:2017400095BFAA68D21A002AF3DA2020FEF7B4FFAD0D0008C9060008D106000838B50A49A0
:2017600004460078FFF7C2F8FFF7D0FE63688360A368C36003B938BDE368036123694361C7
:20178000BDE83840FFF772BF6D0E000838B5144905460078FFF7AAF80446FFF7B7FE00F1F7
:2017A000200393E8030002F07FF86B686361A360AB6823612B7B84F82B305A1C84F82A2035
:2017C0002A69E260D5E90501EA6984F829206083A18303B938BD2046BDE83840FFF746BF22
:2017E000F10E000870B50B4905460078FFF77EF872B690F82030DB0709D500F10C0604462D
:201800003046FFF783FE6B686361FFF72FFF62B670BD00BF890F000838B50C490546007877
:20182000FFF764F8044672B6FFF7CAFE012384F820306B68A360AB68A36113B12046FFF729
:2018400015FFEB6884F8223062B638BD890F000838B5174905460078FFF748F80446FFF720
:2018600055FE6B688360AB6883612B7B80F82530CBB12A69426180F826306B690D4A4260A8
:20188000002B14BF0323022380F82430287E0A49FFF72CF8EB6984F8273020622046BDE86C
:2018A0003840FFF7E3BE80F82430036238BD00BFAD0F000879020008890F000838B52849EF
:2018C00005460078FFF712F80446FFF76DF96B6843602B894381002B3ED0EB68038100237E
:2018E000037372B694F8443003F00101C3F34002914205D0027B42F0010283F00103027317
:201900006269C2B913F008020FD1616B84F844300260F1B1A36B1860A0632046FEF794FE5E
:201920002046FFF7A3FE62B638BD0E4B1A680260186062B638BD626B84F844300023036098
:2019400022B1A36B1860A06362B638BDC4E90D00E9E7C4E90D00E0E71720FEF7ADFE00BF7D
:20196000E10F00088800002038B51F4905460078FEF7BCFFFFF7CAFD836A002B31D190F8A0
:2019800030302A790446D0E90650002A08BF0004A861B2FA82F283F010004FEA5212C0F3FA
:2019A000001014BF0121002103F01003824249B25BB201D0226A1AB90B4384F8303038BDE0
:2019C0000A480B4D4068656041F004010B43024484F830306261A2602046BDE83840FFF70C
:2019E00045BE1220FEF768FE69100008001000E09507000870B51C4905460078FEF776FF8B
:201A00000446FFF7D1F86E684660AB68836072B6A36A0022026023B1E36A1860E06262B69F
:201A200070BD94F830305A07C4E90A0015D443F004029B07666184F8302009D42046FFF7E5
:201A400065FD0A4BC4E90136FFF710FE62B670BDA3689B1B002BF9DBF0E76269921B002A69
:201A6000E5DA1320FEF728FE69100008950700082DE980488FB05C4B02AF5A68FB615B4BFB
:201A80007A6193F90830002B40F04883584957480B780122DBB202726BB307F13004FF232E
:201AA000002204F8043D534D534E0A7029462046FEF744FCF8B190F820305B07F6D5FB69F0
:201AC000D3F804C072B690F8202090F8213022F0040180F8201062B697F82C10CDF800C087
:201AE000304602F00102FFF7EFFA29462046FEF725FC0028DFD141490B78DBB213B307F181
:201B00003004FF23002204F8043D3D4D3D4E0A7029462046FEF712FCA0B190F82A2090F8FE
:201B20002B309A42F4D172B690F82A2090F82B30934200F0548362B629462046FEF7FEFB55
:201B40000028EAD130490B78DBB2002B00F0958007F13005FF22002305F80D2D2B4E0B704D
:201B60009B4631462846FEF7E9FB0446002800F08480637FD907F4D572B6637FD4F8088077
:201B800023F00103637762B6237F032BE9D8DFE813F0FB01AA013F00040007F124030222B4
:201BA0000121A06997F823A0A7F824B0FEF79CFCB7F82490CDF804A099FA99F91FFA89F91C
:201BC0004246CDF800B04B4604F1140104F11000FFF798FB19F0040FC3D0044B5B7A002BE1
:201BE000BFD11C20FEF768FD001000E01000002060020020890F0008105A000838000020B3
:201C0000F10E0008185A0008980100206D0E000807F130094FF0010A49F804AD97F82320C8
:201C2000A069BA614B4651460322FEF75DFCFA6A0723BB8551464B46A06992FA82F90222BB
:201C4000FEF752FCBA69019297F82D3000934FEA192942461FFA89F304F1140104F1100065
:201C6000FFF750FB19F0010FB7D131462846FEF765FB044600287FF47CAFAF4A1378DBB227
:201C8000002B36D007F13005FF23002105F8083DAA4E11704FF0020831462846FEF74EFB7C
:201CA000044630B3237E5A07F6D5D90740F17C8207F13009FFF72AFC40F62D0384F8188054
:201CC00029F8043D02224B4620690021FEF70CFC72B6FB695A68E3681344A3602046FFF7F7
:201CE000C5FC62B631462846FEF728FB04460028D8D1934A1378DBB233B307F13004FF23CA
:201D0000002104F8043D8F4D8F4E117029462046FEF714FBC0B1037FFF2BF7D172B6837C46
:201D2000002B00F0E982427F027762B6C27E97F82C10133000903046FFF7C6F929462046ED
:201D4000FEF7FCFA0028E6D1804A1378DBB22BB307F13004FF23002104F8043D7C4D7D4EB9
:201D6000117029462046FEF7E9FAB8B1037F1A07F7D572B6037F23F00803037762B6827F02
:201D800097F82C1000F12803D2083046FFF79CF929462046FEF7D2FA0028E7D16E4A1378C8
:201DA000DBB24BB307F13004FF23002104F8043D6A4D6B4E117029462046FEF7BFFAD8B1EF
:201DC00090F82030DB07F6D572B690F82010826821F00101D0E9063C80F8201062B697F857
:201DE0002C10CDF800C03046FFF76EF929462046FEF7A4FA0028E3D15A4B4AF6AA221A60E0
:201E0000FB69596872B6584A13685B1A002BB8BF116062B6554D2B78DBB2002B00F0D78074
:201E2000534E327800232B70002A40F06782514B0822C3F88820BFF34F8FBFF36F8FDFF816
:201E40004481002001F08AFB002800F0BC81C0F34344062C00F0AD810021084601F048FBA5
:201E6000042CEED1444B1A68002AC0F2C082434B1B68002BC0F2B782404A4149116143F064
:201E8000044313603D4A082393603A4A93603D4890F801C0017843888288C488ACF1050062
:201EA0001D2800F2BE80DFE810F04A016501BC00BC00B800BC00BC00BC00BC00BC00BC009D
:201EC000BC00BC00BC00BC00BC00BC00BC00BC00BC00BC00BC00BC00BC00BC00BC00BC0042
:201EE000A3009500800007F130090C2349F8043D04224B46A06997F823A00121FEF7F4FA31
:201F00000F23D7F82CC0BB85A0694B46022201219CFA8CF9FEF7E8FACDF804A097F82D306D
:201F20000093424629F07F4304F1140104F11000FFF7E8F915E600BF64020020D13200087A
:201F400068020020A5320008485A000874020020D9410008505A00086C0200203D3D0008F4
:201F6000605A00080030004070020020800200208802002000E100E000090050000B0050DC
:201F8000400008002001002007F13003042243F808BD0121A06997F82390FEF7A5FABB6A41
:201FA000CDF8049093FA83F90AE6212939D1002A37D1002C35D1964902220B7020462146CC
:201FC00001F062FB934B1B68B3F5966F20D0924BBB612CE0A12924D11BBB12BB062C20D923
:201FE0008D4B8C48BB610222072101F04DFB1EE0212916D1ABB9A2B9072C12D1854D214657
:020000040800F2
:202000002846012201F040FB2B68B3F5966FDED101F036FA804BBB6109E011B9012B00F03D
:20202000078301F045FA002333707B4BBB61B9690B78DBB2002B35D0784B1878F8600246E9
:2020400040320023802A0B7000F20A81744B754C08251E18C4F88850BFF34F8FBFF36F8F92
:20206000022001F07BFA002800F0DA823046402101F03EFA6C4B1B68002BC0F2A0816A4A78
:202080006A49116143F004431360664B08229A60002800F3E180FB68002B40F0E680002594
:2020A0005E4B1D70624C2378DBB233B1614E357800232370002D40F02D81FB695E4D5F4E57
:2020C0005C687B6929683268DFF88481E31A01311A44B3F5803F2960326080F08C8003FBC8
:2020E00003F3D8F800C0FF330CEB1323634538BF4FF0FF33DFF85C915148D9F800A0C8F85D
:2021000000302018A0EB0A00002880F2E4804D4B7C6193F90830002B3FF4B8ACFB695A68A3
:2021200072B6484B93F90830002B40F03C8162B6FB695B689B1A7A691A447A61A6E4002945
:202140007FF46FAF002A7FF46CAF002C7FF469AF3D490A6822F4FE6242EA03130B602046FE
:20216000214601F05FFA374B1C7201232B702A4BBB615CE780297FF454AF344D4FF4807137
:20218000994205F1400C4FF0000006D0AC4500F0C78155F8101F9942F8D169689142F5D15A
:2021A000E9683960A868F1E797F8281002F0ACF972E50821404601F09BF9002001F0CEF98C
:2021C00000287FF444AE4FF0A042936943F010039361144B08229A600F4BBB6127E70133E0
:2021E00080F82A304269038B62B697F82C103046FEF76AFF8CE4B3F5801F80F0888003F1FA
:20220000FF00D8F800C0000A03FB00C36EE700BF6D0200207C0000207C0200201C0100204A
:202220009C00002000E100E0400B005040000800780200205C020020740000208C010020E5
:20224000004FF7E61000002000080050BC4A00089001002084010020FA6802440023FA6041
:20226000BB4A1372BA6901231370DFF8148398F80040E1077DD5B74B7B60FD68B5482A46E3
:202280007E2102F04DFA002800F09D807B68C01A431CEE1ABB60A20704F0FE03F5B288F82D
:2022A000003006D443F0020388F80030AA48FEF70BFF002E3FF4F4AED7E901300344324688
:2022C0001946A44802F016FBA14A00231372BA6901231370E4E6A148FEF7F6FEA24503D9F4
:2022E0009F4A1368013313600023C9F80040C8F8003033602B600AE762B607E5994B9A49E5
:2023000018680978994BBB6101F0BEF98FE64FF0FF33EFE6DFF86C824FF00809402D2A4667
:20232000C8F8889028BF4022BFF34F8FBFF36F8F8F4B1B68190452D5002BC0F269818D49FE
:20234000032001F039F90146C8F8089000287FF7B4AE6D1A01D13570AFE686482A46014482
:2023600002F0C8FA7A4A00231372012323703570A3E6FB68042B40F24981764A7A601378A5
:20238000BB60053B3B2B05D892F8019029F00F03102B3AD0BB687E2B00F0328144F001046C
:2023A00088F8004069E76A49FF230B7262B630BF72B6674B93F90830002BF7D1B7E69C03E7
:2023C0007FF563AE5BE614F002057FF468AE44F00204614888F80040FEF776FE60E6C8F891
:2023E00008901146B5E79A037FF54CAD44E542F090421A601A68002AFCDB4FF0A0432022BA
:202400001A611A699106FCD431E5D7E902138B42C0F09880D7E901329D1815F8013C7E2B3C
:20242000B8D1D7F804A0D61E3146504601F04AFC1AF8062015F8023C43EA02238342564434
:20244000A8D14D4A137824F002044B4588F8004040F0D1807968013303F00F03023143F076
:2024600010038E42137040F2B3807B68C7F810D093F802A00AF1FF33442B4ED83F4CDFF8BE
:2024800008814FEA4A0B0BEB0A0108EB81014B784A6891F803C09B000A3303F4FF63ADEB25
:2024A000030D02A801469444944518D0A642C0F09F8012F8013B042B70D9072B40F0988093
:2024C00094F800E0651C05EB0E04A642C0F090800B46944543F808EB4D601946E6D11C4BE3
:2024E0005B7A33B10BEB0A0308EB83039B78DD0776D50BEB0A0308EB83039B689847D7F838
:2025000010D0A64264D994F800A0C7F810D00AF1FF33442B04F10104B3D90520FEF7CCF8EB
:2025200040F203318B4231D000283FF47AAD3B68A34209D809D20A22396801F0A5F80B4BF0
:20254000BB6174E5DDB2ABE53C600222F4E700BF100000209C00002058590008D0590008B7
:202560008801002084020020890200207C020020600900509C0100200C0000209F00002062
:202580009401002000E100E08C55000840F209439A42C9D1454803783B60C8E7237803F008
:2025A000600EBEF1600F04F1010403F07F0501F1040908D165F01F0505E014F8013B03F0AD
:2025C0007F0E4EEAC5151B06F7D40D6049466BE7D7E9022336489E1AF5B2FEF775FD68E6AB
:2025E000344B3548997AFEF76FFDD7F810D088E70720FEF761F8D7E902239E1AF5B255E659
:20260000FB685E1E0123F5B2BB6055E63D7B47E52A4AD36943F00803D361C8F808904CE52B
:202620004FF0A042936943F010039361A56032E5002A7FF4F6AC002C7FF4F3AC204B082215
:20264000C3F88820BFF34F8FBFF36F8F1D4A1E491E4B4FF00810106100F1C25000F5902030
:2026600010601B4A1B480A6108601B491A611A4619601368002BFCDB4FF0A043E0221A617B
:20268000196911F02001FBD10D4B08229A60094B1972124A197201231370114ABA61144611
:2026A00008460222237000F0EFFFC0E43C0000205859000810000020C059000800080050D5
:2026C00000E100E020090050400B00506009005040000800408008944080C858780200204E
:2026E0007C020020A44BA54AA54DA648A64923F0030345F2555480B52B601460002340F609
:20270000FF754CF6CC44536095601460C26842F08072C2600A6842F001020A6084B04B6077
:20272000EFF3108072B601F55D41984A202481F8234007254FF080641560536093604C6053
:2027400080F31088924A536B43F0800353634FF0A0442369002BFCDA8E4E8F4BE360336824
:2027600043F003033360A36B43F40013A3630022A2210B2001F0CEF80022A2210C2001F066
:20278000C9F88648864A8749874B50256562A0621030C4F804011030C4F80C0183481060B5
:2027A000834A0A6100F1004008600122814832611021A061A26083F8431308229A60A26B93
:2027C0007D487E4D42F48032A263002340F23232736002805A10D907525D4CBF02F00F0267
:2027E0001209092A91B203F1010394BF01F1300201F13702182B20F8022FEBD17048FEF7B9
:2028000063FC72B66F4802F023F910B962B6FFF72FF972B66C4B5C495A7AD1F804A002B9ED
:2028200098726A4B6A49684A6A4C1C609C680B608C6011605548684C536002215172002369
:202840004FF08062436083606260644A644D137004ACFDF793FDFF2304F8093D11260EE070
:2028600090F83030D0E9061213F010030BBF12048A618A613346002280F83030826229460D
:202880002046FDF75BFD0028EAD104ADFF23044605F8083D534E04E0446321463C30FEF750
:2028A000A5FE31462846FDF749FD0028F4D104ACFF2304F8073D4C4D01E0FEF781FE2946FA
:2028C0002046FDF73BFD0028F7D104ADFF2305F8063D464E0AE004F1200393E8030000F05F
:2028E000E3FF94F82B30002B40F0F28031462846FDF724FD04460028EDD104ACFF2304F84A
:20290000053D3B4D05E0037CDB0744BFD0E902329A6129462046FDF711FD0028F3D1FF23D7
:2029200025468DF80B300446324E05E0431D027900682146FDF7D8FD31462846FDF7FEFC77
:202940000028F3D104ACFF2304F8043D2A4D2B4E05E0C368828A1A600023466083612946DA
:202960002046FDF7EBFC0028F3D104ACFF2304F8033D234D4EE000BF8F020020003000409E
:2029800034000020F0ED00E0001000E010E000E0003802400008005040180040500010009C
:2029A00000090050000B005000E100E00200000840000820100004003C000020107AFF1F18
:2029C000B859000828010020100000201C000020000000202800002000ED00E0780000205C
:2029E00069100008E10F0008890F0008F10E0008710D0008A90E0008AD0D0008D1060008D1
:202A00001143000802698369C668416912041B04B2618B6129462046FDF790FC0028F1D1B8
:202A200004AFFF23814607F8023DDFF8D48019E00569C6688469016A826A036B2D04B56103
:202A400045692404AC61C469856B0904A161416A12048A61C26A416B1B042D0493618D61B1
:202A600080F8089041463846FDF768FC0028DFD104ACFF2304F8013D1B4D01E001F090FC3F
:202A800029462046FDF75AFC0028F7D1EFF30383C3F3080343B14FF080736FF0060208B4B5
:202AA00001A102B41FB51047104B0021197210481972012202700F48197202700E495A729D
:202AC0000A7062B60D489A7A5146FEF7FDFA9DE66269E16801330A4484F82A306261A260C4
:202AE0002046FEF7C3FD01E7D941000810000020780200207C02002080020020C85900087E
:202B00004D4200084FF0A0435A69D0060CD5996921F010019961DB6913F00F0311D11449CC
:202B20000B72144B01211970510309D5124A9369D16921EA0301D161DA0710D41B0707D447
:202B400070470B4B002119720C4B01211970EBE7074B00221A720A4B01221A707047044AE1
:202B600000211172034A01211B071170E8D5EFE71000002080020020000800507C02002044
:202B800078020020BFF34F8F0549064BCA6802F4E0621343CB60BFF34F8F00BFFDE700BF8F
:202BA00000ED00E00400FA0508B5FFF7EBFF00BFFEE700BF72B6024B024A9D461047704793
:202BC00000000120A92F0008D0E9093110B41C69826983680C4218BF012402F0010108BFDD
:202BE00000248C421CBF0132C0E906234269D21A002A0FDA90F820100269094C134441F059
:202C00000101002280F8201043612272054A836801211170C26810BC1344836001207047CB
:202C2000100000206C02002030B4D0E9032453698568154963405361437F047F4A68016A52
:202C40000133DBB284F00104012B0477437717D0042B04D82944816030BC01207047436A28
:202C6000521BD21A931C48BF531D01EBA3032A441A44064982604362416030BC012070473C
:202C8000521B4262E6E700BF001000E0912C0008D0E90321F0B45369476A4B405361437FF3
:202CA000047FC67F0133DBB284F00102B34202772FD200EBD30103F0070291F82810E44302
:202CC00041FA02F204F0010402F001029442394607D017E092F828202A4102F001029442AC
:202CE00010D10133DBB2B34200EBD30203F007053944EFD38368084A426019448160F0BC76
:202D0000012070478268437711448160F0BC012070473946EEE700BFAD440008F0B4827FCC
:202D20009AB1013AD2B200F1080707EBC207034600220121D3E90845266908332E4218BF27
:202D40000A434C009F42E1B2F4D1017C914207D0437C5340DB43DBB281EA0204234210D1C6
:202D6000037F427459B2002904DB013BDBB2FF2B1DD00377D0E9023213448360F0BC0120BA
:202D80007047847C21EA030113400B43072C0374E6D805190949013484740024EB740C72C6
:202DA000074B4274FF21012201771A70E2E7034A00211172024A01211170DAE7100000202C
:202DC00068020020037E0549002243F0040303760A72034B01211046197070471000002013
:202DE0006402002070B5084E054603E07468E41A002C06DA686931EA0004F7D11042F5D1EE
:202E000070BD2D20FDF758FC001000E0F8B5044640F201160D4606601746012100221E4602
:202E2000FFF7E0FF256115F0010503D0236843F4806323603346002202212046FFF7D2FF46
:202E4000EFF3108272B6A36925B1012F04BF40F20121216082F31088DB0700D5F8BD2C2067
:202E6000FDF72AFC0000000000000000000000002DE9F84F72B6464E464DD6F800A0DFF847
:202E80001C91DFF81CB14AF210480CE0D9F80420831AA82B3ADCAAEB0201002957DB62B6DB
:202EA000002B3BDC72B62C686368002B41D1D4E9080362694169013A83EA0103436151D05E
:202EC000D4E90203B4F910C0216862611844A06063448F68E360C31B002BD7DB6B68296013
:202EE0009A68821A11EA220138BF194600E011460A689368C31A002BF9DA2260D9F80420CA
:202F00000C603846831AA82B6C60C4DD224A002153609160516062B6BDE8F88FD9F80430BF
:202F2000C31A002BBEDDD9F80430C31A002BB9DDF4E7204698470346A06821688F68002B2F
:202F4000C9D16B6829609C4218D038469EE75B450EDB95F90810002913DA02EB080AC6F8B0
:202F600000A09CE72046FDF76FFB0346A068E4E7697A0029EDD12A20FDF79EFB6960384666
:202F800084E702F50352103232604FF4D273BDE7700200201000002010E000E0001000E0F8
:202FA000E0B7FEFF0000000008B500224FF0FF31930003F1604303F56143C3F88010BFF36C
:202FC0004F8F0132082AC3F88011F1D100233E481946C2180133F02B82F80013F9D13B4B92
:202FE00004221A60BFF34F8F39494FF0206200234A601846CA1801330C2B1076FAD1BFF3E3
:203000004F8FBFF36F8F62B63248334A3349121A01F0D6FB3248334A0021121A01F0CEFCAA
:20302000314B27A1D1E90001D3E900458D4208BF844209D12D4A2E49126809680024002538
:20304000C3E90045954608472A4B2B4C196820482A4D002241F0010119609A60196821F0AF
:20306000847121F4803119605C601968244C21F4802119604FF00061DA6081604FF46031B1
:20308000856019635A631A645A641A681D4942F480321A605C601A6840F2057042F0807283
:2030A0001A6008601A689201FCD549F20201114A9960936803F00C03082BFAD1FFF712FBB8
:2030C000544F4F422042535500E100E010E000E000ED00E00000002034000020005C00087C
:2030E000340000208C02002000F000200000FF1F0400FF1F00380240103000240000000898
:20310000042A4107003C024038B50A4905460078FDF7ECFB0446FEF7F9F96B68A360AA68C4
:20312000E260EA682046C4E90423BDE83840FEF79DBA00BF3D3D000838B50B490446007814
:20314000FDF7D4FBD4E90132E1681C0409D4848A9D18A54205D816331844BDE8384001F03C
:203160002FBB2620FDF7A8FA8D4100082DE9F0411F4906460078FDF7B9FB057F15F0020805
:2031800001D0BDE8F0813779B168367B0A2F2CD80A2E2AD804463A46283005F0310501F019
:2031A0000FFB45F00205F600FB002577A67784F81D80E37747B194F8283003F03F032A2B46
:2031C00002D10C4B636003E0226A0B4B6262636072B60A4B5B6803F583432033A3602046FC
:2031E000FEF744FA62B6BDE8F0812520FDF764FAD9410008292C0008912C0008001000E0A3
:2032000038B5144904460078FDF770FB2379C27E1A44C27672B6827C9A4215D9D21A12F0F3
:20322000FF040ED000F114021233651E52FA85F5034400F1130213F8011F02F8011BAA429E
:20324000F9D1847462B638BD0022FE238274037762B638BDA532000838B5114905460078F6
:20326000FDF744FB0446FEF751F96B68A360A968E1602A7C62740023FE2022742077A37469
:20328000E376EB6863771B0606D401B938BD2046BDE83840FEF7EAB92220FDF70DFA00BFE7
:2032A000A532000810B50479082C09D8221D00780549D200FDF73AFD044B8477436010BD1C
:2032C0002420FDF7F9F900BFA53200081D2D000838B54C22054606490078FDF727FD044605
:2032E000044B287904496360FDF700FB206138BDD1320008C52D0008710D00082DE9F04791
:2033000007783C493846FDF7F1FA3B4AC168536804695B1A9C4203D953685B1A9C42FBD866
:20332000B0F81490344BD0F808E0596800F11608C144C145D0E9004C45D018F8015B082683
:203340002A0621D55A68521A682AFBD972B6D3F804A062698CEA0202626162B6AAEB010165
:203360008E453AD96D005A68A2EB0A02352AFAD972B662698CEA0202626162B659685A68A2
:20338000521A0F2AFBD919E05A68521A682AFBD972B6D3F804A062698CEA020262615A68C6
:2033A000A2EB0A020F2AFAD962698CEA0202626162B6AAEB01018E450FD96D00013E5146B3
:2033C000BED1C145B9D10C4B5B68C360394601220A48BDE8F047FDF777BE4FEA0C43064AC0
:2033E000A3615368C360394600220448BDE8F047FDF76ABE8D410008001000E0585A000886
:2034000010B5044682B01A30637EA28A00900548FDF75AFEA38A002201336276A38202B0B9
:2034200010BD00BF405A0008F0B51249124F87B006460078FDF75AFA06AB0446B92223F8C9
:20344000042D00697D6802220121FDF74DF8E18A9DF815207B680948CDE90221627E3168B3
:203460000192A28A00925B1B2A46FDF72DFE07B0F0BD00BFD1320008001000E0385A00083E
:2034800008B5094B1B78DB0700D508BD72B604A1D1E90001054BC3E90001FFF773FB00BF64
:2034A000544F4F42204253556D02002000F000200B4A082130B4C2F88810BFF34F8FBFF339
:2034C0006F8F0848084C0368002543F4001303602572064B01201870916030BC704700BF29
:2034E00000E100E00009005010000020800200204FF0A04330B51D6AC5F30A158D422C463A
:2035000028BF0C46032C83B024D9231F23F003030433114903440A6840F8042B9842FAD162
:2035200004F0030272B9E21C03359208C2EB9502531E22B1084A116813F1FF33FBD22046DB
:2035400003B030BD044B1B6802A941F8043D01F037F9E8E72246E5E70010005070B50546E0
:203560004FF0A044636913F010030DD0E3695A0C13F00D0F02F00B0002F00F0206D0236A35
:20358000636913F01003F1D1184670BD00210228A2F10306084608D0042A06D0012A01D0EF
:2035A000012EECD8FFF7A4FFDCE703F00F02AA4218BF0023184670BD430170B503F1A04307
:2035C000154645F400240126C3F80869C3F81049D3F80029000300F1A04442F00442032D58
:2035E00082B004F58054C3F8002919DD2E1FB208501C01EB800051F8043B81422360FAD17A
:20360000C2EB827206EB82023AB102A8002340F8043D01F0D5F8019B2360284602B070BD39
:203620002A46F1E7F8B5154C082506460F46C4F88850BFF34F8FBFF36F8F0020FFF78EFFEF
:20364000C0B90F4B1B68002B05DB3A463146FFF7B3FFA560F8BD4FF0A0410A4A8B6943F015
:2036600010038B61D36943F00103D361A5604FF0FF30F8BDA5606FF00100F8BD00E100E0A1
:2036800000090050000800502DE9F84F344F354E914682468B4602F001054FF008085C46BD
:2036A000102C28BF1024B5B3C7F88880BFF34F8FBFF36F8F0020FFF751FF002847D0C0F3EC
:2036C000434002283BD121465046FFF711FF3268002A25DB42F00442234B33613260C7F89F
:2036E0000880A0421FD1BBEB000B8244D7D175B9102802D119F0080F0CD11C491C4A00232D
:203700000B7013721B4B01221A70BDE8F88F4FF002095D46002421465046FFF783FFE0E71D
:203720009303DCD5D6E701300BD1134813490F4AC0F800A081F800B082F80090E5E7C7F852
:203740000880FFF7B5FE094B00221A70DDE74FF0A0418A6942F010028A61C7F80880E4E720
:2037600000E100E0000B005040000800880200201000002080020020840200208902002018
:203780002DE9F04782B002AC04E903002A489DF804104668009D9DF828900B9F06F5CD26C1
:2037A000A03641F0010A6ABB514633464A46284609F1FF34FFF72AFBE4B2B9F1000F18D045
:2037C00040F201283346002240212846FFF70AFBEFF3108272B62B69012CDBB208BFC5F8BB
:2037E000008082F31088013CE4B2FF2C07F8013BE8D1334628464022002102B0BDE8F04752
:20380000FFF7F0BA90461C462846334608F1FF385FFA88F8FFF7FAFA08F10108A04414F804
:20382000013B2B610022334680212846FFF7DAFAA045F4D1B8E700BF001000E02DE9F0410D
:2038400082B0184C02AD05E903006668009D9DF8041006F5CD26A0361C469046284633463B
:20386000FFF7D4FAB8F1000F0FD008F1FF37FFB20137274414F8013B2B610022334680215A
:203880002846FFF7AFFABC42F4D140F201222A60334628468022002102B0BDE8F041FFF751
:2038A000A1BA00BF001000E082B002AB03E90300DDE90030EFF3108272B61968C90602D577
:2038C000596B814203D082F3108802B070476FF010011960DB6C82F3108802B0704700BFB3
:2038E0000B4B00F13F4000F57F00596C800A012282401143083859640228596C06D9596A78
:2039000011435962596A21EA02025A62704700BF003802402DE9F0412A4B2B4D04092E6B40
:2039200053F8244004F13F4303F57E034FF001089B0A08FA03F333432B6300F00F06171EC5
:203940002B6B01F00F0CC1F3031E06FA08F54FEA112105D0D6BF022208FA05F702FA05F704
:20396000F20804EB820200F00700136A80004FF00F0808FA00F80EFA00FE23EA080040EA51
:203980000E00106203232068AB40DB430CFA05FC184040EA0C002060E2681A403A43E26078
:2039A00062680120B04022EA0002B14011436160A16802220B4002FA05F52B43A360BDE894
:2039C000F08100BFB85A00080038024030B583B002AB03E90300DDE90045134B9C4220D038
:2039E00012481349012301E050F8041B8C420DD00133082BF8D10020EFF3108472B60021EB
:203A0000FFF788FF84F3108803B030BD1B01002D95FAA5F0B0FA80F008BF4FF0FF30184462
:203A2000EAE70023F3E700BF00000240C05A00080004024070B582B002AB03E90300DDE996
:203A40000045154B9C4224D014481549012301E050F8041B8C4211D00133082BF8D10020CA
:203A6000EFF3108672B602B92D04A56100220121FFF750FF86F3108802B070BD1B01002DF2
:203A800095FAA5F0B0FA80F008BF4FF0FF301844E6E70023F3E700BF00000240C05A00086A
:203AA00000040240164B98421DD9164B98420ED9B0F1A04F21D200F13F40134A00F57E00AA
:203AC0000123126B800A03FA00F01040704700F13F400D4A00F57F000123526C800A03FA23
:203AE00000F010407047084A00F140400123126C800A03FA00F0104070470020704700BF56
:203B0000FFFF0040FFFF014000380240154A904215D9154A904201D8FFF7E2BEB0F1A04F5F
:203B20000CD2124900F13F4303F57E03086B9B0A012202FA03F303430B630B6B70470B4AFD
:203B400000F140430121106C9B0A01FA03F318431064116C116A19431162116A21EA03039B
:203B600013627047FFFF0040FFFF01400038024070B5524C1646062304F5947203E00834BC
:203B8000944234D023799842F9D14D4B4908A3FB01318D091CBF05F1FF318DB20022A17940
:203BA000FFF7B8FE2068FFF77DFFC0B123681A68D2070ED4FE229D62DA625A6942F00102D3
:203BC0005A616279013A032A74D8DFE802F05B432B139A6A9542F4D03120FCF76DFD206831
:203BE000FFF794FF23681A68D207E3D5F1E73220FCF762FD1A6A22F480521A62DA6922F4E1
:203C0000E642DA61DA6942F4D842DA611E641A6A42F480521A621A6842F0010203F14000FE
:203C20001A6070BD1A6A22F480721A62DA6922F07302DA61DA6942F06C02DA61DE631A6AED
:203C400042F480721A621A6842F0010203F13C001A6070BD1A6A22F010021A629A6922F4F5
:203C6000E6429A619A6942F4D8429A619E631A6A42F010021A621A6842F0010203F13800AB
:203C80001A6070BD1A6A22F001021A629A6922F073029A619A6942F06C029A615E631A6A00
:203CA00042F001021A621A6842F0010203F134001A6070BD3020FCF7FFFC00BFD85A000896
:203CC00009040281B1B130B4014405464FF6FF7015F8013B434083EA0313DBB2020ADC0006
:203CE00042EA03228D4284EA131382EA0300EFD130BC70474FF6FF70704700BF70B57F2947
:203D000082B015D805460C4B080953F820607EB101F00F0101248C40CDE9006402AB13E922
:203D20000300FFF753FE2846C5E9006402B070BD2820FCF7C1FC00BFB85A000870B52C2296
:203D400082B005460A490078FCF7F0FF6C460646D5E901122046FFF7D1FF94E80300054A70
:203D600006F1240383E80300726002B070BD00BF3D3D0008C92B000870B50E49054682B0D0
:203D80000078FCF7B3FD2B79827F9A420FD96E46D5E90212044630461D1DFFF7AFFF96E8FD
:203DA000030004EBC50484E8030002B070BD2320FCF782FCA532000882B002AB03E9030099
:203DC000EFF3108172B6DDE9002053694340536181F3108802B070472DE9F04F8046027A63
:203DE000D8F81C30D8E909769DB00D46D0E905BA85EA0209D8F820200196D8F82C6002963A
:203E0000CDE91832D8F830600593019B0396CDE91ABAD8F834601793029B04961493039B61
:203E200015931AAC049BD8F83860069294E803001697CDE91236FFF7BFFF19F0100F4CD152
:203E400019F0200F50D119F0400F54D119F0800F58D13C4A5068133053681B1A002BFBDB59
:203E600094E803000792FFF7A7FF2901C9B2079A88F8081052683348163243689B1A002BA8
:203E8000FBDB059B0E93069B0F93019B0D93CDE910BA029B0A93039B0B9310AC049B0C9798
:203EA0004D4094E80300CDE90836FFF785FFE80641D4A90639D46A062AD42B062FD4214ABC
:203EC0005168133153685B1A002BFBDB94E803001DB0BDE8F04FFFF76FBF18A903C9FFF7DD
:203EE0006BFF19F0200FAED016A903C9FFF764FF19F0400FAAD014A903C9FFF75DFF19F008
:203F0000800FA6D012AA92E80300FFF755FFA0E70AAB93E80300FFF74FFF2B06CFD508AB93
:203F200093E80300FFF748FFC9E70CAB93E80300FFF742FFBFE70EAB93E80300FFF73CFF9C
:203F4000B7E700BF001000E02DE9F04180460068D8F8045089B14B1EDBB20133094C164666
:203F6000D71816F8011B63681B1AAB42FBD34046FFF732FFB7426068F3D1C8F80000BDE8D6
:203F8000F08100BF001000E010B5074904460078FCF7ACFCD0E903239361A2682179BDE873
:203FA0001040FFF7D1BF00BF4D42000810B5074904460078FCF79AFCD0E903231B04936183
:203FC000A2682179BDE81040FFF7BEBF4D4200082DE9F04100F10C0203460C4692E80300E0
:203FE00084B0143302AE86E8030093E803006F4687E80300DFF858800825230620D4D8F8B7
:020000040800F2
:2040000004201032D8F804309B1A002BFADB96E80300FFF7D1FED8F804201032D8F8043001
:204020009B1A002BFADB96E80300013D6400FFF7C3FE15F0FF05E4B2DFD104B0BDE8F081D8
:2040400097E80300E443FFF7B7FEE4B2D7E700BF001000E02DE9F84F92F800B01D4C0D46B6
:204060000BF0F00191468046D0E900A6FFF7B0FF09F101076368A3EB0A039E42FAD84FEA60
:204080000B1101F0F0014046FFF7A2FF012D6468D8F8086019D0AA1ED2B202320D4D91443B
:2040A00017F801AB40460AF0F001FFF791FF6B681B1B9E42FBD84FEA0A1101F0F0014046D6
:2040C000FFF786FFB9456C68EAD1C8F80040BDE8F88F00BF001000E038B5094904460078FC
:2040E000FCF704FCFA210546FFF772FF217901B938BDA2682846BDE83840FFF7ABBF00BF03
:204100001143000838B5094904460078FCF7EEFBF8210546FFF75CFF217901B938BDA2685E
:204120002846BDE83840FFF795BF00BF11430008F0B57F2983B021D80646124B080953F811
:204140002050DDB1104805F13F4303F57E03076B01249B0A04FA03F33B4301F00F018C409D
:204160000363036BCDE9005402AB13E90300FFF761FC3046C6E9005403B0F0BD2920FCF74D
:204180009BFA00BFB85A00080038024070B582B004466D46416800222846FFF7C9FFA368E1
:2041A0001A0413D49EB206F1180292B209492078FCF7BCFD034695E8030083E80300E2683E
:2041C0009A6022691A619E8202B070BD2720FCF773FA00BF8D4100082DE9F043054683B0DD
:2041E000342219490078FCF7A1FD95F80890D5F80480EF6819F100026C46064618BF01222D
:2042000041462046FFF77AFD94E8030006F1140383E80300012239462046FFF789FF94E847
:20422000030006F10C0383E80300B9F1000F2B6933620CBF01231123B84508BF43F02003E8
:20424000337703B0BDE8F083D9410008F0B53C2283B005462C490078FCF768FD6C46064603
:20426000696820460022FFF763FF94E8030006F10C0383E803000022A9682046FFF758FFB4
:2042800094E8030006F1140383E803000022E9682046FFF74DFF94E8030006F11C0383E808
:2042A0000300002229692046FFF742FF94E8030006F1240383E80300002269692046FFF74F
:2042C00037FF94E8030006F12C0383E803000022A9692046FFF72CFF94E8030006F134032D
:2042E00083E8030072B6094C304600216768FFF773FD636862B6EA69DB1B93423CBFD31A1E
:20430000736003B0F0BD00BF4D420008001000E0F0B51C2283B006461F490078FCF706FDEC
:204320006D460446B16828460022FFF701FF95E8030004F10C0383E803000022F168284606
:20434000FFF7F6FE95E8030004F1140383E80300012228467168FFF7EBFE2046F821FFF7BB
:2043600037FE20462021FFF733FE72B60B4D204600216F68FFF72CFE6B6862B62360326933
:20438000DB1B93423CBFD21A6260726993423CBFD31AA36003B0F0BD11430008001000E062
:2043A00010B5037F9A06044608D4D0E9032103F0300343F001039161237710BD00F10C035D
:2043C00093E803000122FFF735FB237F03F0300343F00103237710BDF8B5D0E90525437F5E
:2043E000166900EBD30403F0070794F8282001212E4201FA07F11ABF0A43D2B28A4384F82F
:2044000028200133827FDBB29A4206D98268416A43770A4482600120F8BD0446FFF7C0FF83
:20442000237F054A43F00803002023771072034B01221A70F8BD00BF1000002074020020DC
:2044400038B5D0E905231269017F1A4004460DD041F004010177627F511C3F2A61770ED8EF
:20446000A268616A0A44A260012038BD4B07F2D50B4942774160BDE83840FFF7ADBF002596
:20448000A5772046FFF78CFF237F064A43F0080315722377044B01221A70284638BD00BFAA
:2044A000D9430008100000207402002038B5857F0446B5B1027F93060AD4626AA3680F494A
:2044C000616003EB820300226277A360012038BD00F1140302F0100293E80300FFF776FAA4
:2044E000EBE7FFF75DFF237F054A43F0080323771572044B01221A70284638BD414400085C
:204500001000002074020020F0B585B00022044601920069029201AB8DF80C200D46092224
:204520000121F2268DF80460FBF7DEFF627E9DF8061002F11A0311F0F000234417D0F02897
:2045400015D0A118FF221A71DA709A705A708A76637E0533DBB22D2B637603D9294620466B
:20456000FEF74EFF237E9B0749D405B0F0BD9DF8080010F0F0063FD19DF80A7017F0F00688
:2045800001D0F02EDDD19DF80B60902ED9D19DF80C6026F08006202ED3D84FEA870C22444E
:2045A0000CF0600C00F01F004CEA000001F01F019DF805C082F81AC041EA47119DF809204E
:2045C0009DF807701871D9705F709A70637E0533DBB22D2B637625D81E2E02D9E38A013388
:2045E000E382023E1E2EBDD8114B00221A72114B01221A7005B0F0BDF02EA2D1BCE7204626
:20460000FCF784FF237E23F00403237672B60A4AE36852681344A3602046FDF727F862B664
:2046200005B0F0BD29462046FEF7EAFED4E700BF1000002064020020001000E02DE9F047F9
:2046400090F800802E49044686B04046FCF74EF9A76805467FB1FCF759FF6368AB60A368E5
:20466000EB60002201236A612B832846FCF7FEFF06B0BDE8F08706AEFCF748FF2D2326F8A4
:20468000043D204C2F763946334602222869D4F80490B927FBF728FFD4F804A0212401E02C
:2046A000013C14D03346022201212869ADF81470FBF71AFF9DF8153033F0800307D0202BB3
:2046C000EED841462846FFF71FFF013CEAD16B7E23B141462846FEF793FE6B7E9DF8152028
:2046E000E98A0391CDE90132AB8A00934A46AAEB090341460448FCF7E7FC06B0BDE8F08756
:20470000D1320008001000E0385A000808B51B20FBF7D2FF00000000000000000000000049
:2047200001F0FF01102A2BDB10F0070F08D010F8013B013A8B422DD010F0070F42B3F6D13F
:20474000F0B441EA012141EA014122F007047FF000070023F0E80256083C85EA010586EAEC
:20476000010685FA47F5A3FA87F586FA47F6A5FA87F68EB9EED1F0BC01F0FF0102F00702E7
:2047800032B110F8013B013A83EA010313B1F8D10020704701387047002D06BF354603384A
:2047A000073815F0010F07D1013015F4807F02BF013015F4C03F0130F0BC0138704700BF0E
:2047C000844641EA000313F003036DD1403A41D351F8043B40F8043B51F8043B40F8043B0E
:2047E00051F8043B40F8043B51F8043B40F8043B51F8043B40F8043B51F8043B40F8043BBD
:2048000051F8043B40F8043B51F8043B40F8043B51F8043B40F8043B51F8043B40F8043B9C
:2048200051F8043B40F8043B51F8043B40F8043B51F8043B40F8043B51F8043B40F8043B7C
:2048400051F8043B40F8043B51F8043B40F8043B403ABDD2303211D351F8043B40F8043B0C
:2048600051F8043B40F8043B51F8043B40F8043B51F8043B40F8043B103AEDD20C3205D31C
:2048800051F8043B40F8043B043AF9D2043208D0D2071CBF11F8013B00F8013B01D30B886E
:2048A00003806046704700BF082A13D38B078DD010F003038AD0C3F10403D21ADB071CBF8E
:2048C00011F8013B00F8013B80D331F8023B20F8023B7BE7043AD9D3013A11F8013B00F88D
:2048E000013BF9D20B7803704B7843708B788370604670478842F0B40DD98B1883420AD953
:20490000841832B1224613F8014D02F8014D9942F9D1F0BC70470F2A49D940EA01039B07DC
:2049200047D1A2F110031B0901F1200707EB031701F1100400F1100554F8106C45F8106CE3
:2049400054F80C6C45F80C6C54F8086C45F8086C54F8046C45F8046C1034BC4205F11005B7
:20496000EAD1013302F00F051B01032D1944034421D91F1F0E462C46043C56F804CB47F8B8
:2049800004CF032CF8D82C1F24F0030404342344214402F00302002ABBD0013B0A4411F89C
:2049A000014B03F8014F9142F9D1F0BC70470346F1E70346F1E72A46EDE700BFF0B48607EA
:2049C00043D0541E002A3ED0CAB2034602E014F1FF3438D303F8012B9D07F8D1032C2BD969
:2049E000CDB245EA05250F2C45EA054516D9A4F110073F0903F1200606EB071603F110021A
:204A000042E9045542E902551032B242F8D104F00F040137032C03EB07130DD91E46224669
:204A2000043A032A46F8045BFAD8221F22F003020432134404F003042CB1C9B21C4403F809
:204A4000011B9C42FBD1F0BC704714460346C5E7EC46A0E8F05F4FF000007047B0E8F05FF8
:204A6000E546080008BF0120704700BF0001020304050607101120212223242509023E0050
:204A8000020100C032090400000102020100052400100104240206052406000107058103E4
:204AA0000800FF09040100020A0000000705020240000007058302400000000000010000B3
:204AC000000000000C4B00081200000000020000000000007C4A00083E0000000003000054
:204AE00000000000204B0008040000000103000009040000244B00081000000002030000A2
:204B000009040000384B0008180000001201000202000010501D4E6100010102030100009A
:204B20000403090410034B006C0069007000700065007200000000001803730074006D0008
:204B4000330032006600340030003100780063000000000078DA9D597B6FE4B611FF2AEC28
:204B60000287E61ADB5D69DF06EE0FDBE7E482D639C76BB70582409025EE2E717A9D1E7E4D
:204B800034F077EF6F3824C5D56E2E40039C97D40C87C379CFE4F7D163A7B2347A9275A3E2
:204BA000CAA2199D8FB649722EBE0B66E78BD3701C2C4FBF86A7F3F7627136390B047D186E
:204BC000CFC3507C57CB4CC68D7C2F7EBDB8BBF9BBCC1F659ACAF47471FA58C745B213B544
:204BE0007C52445184F360355EFC261E55D1B52A6B403B3C9B0467C169107C5F572AF83EAF
:204C000008DE0BFE343A1925659EC7450A467E1FC5595626712BA352A58D48CAAE683FBC7D
:204C20004B46E7E1F8046CB72DF88DE2E48B0018DF3D84A5074F530BAFCA46FFA8E2C3BB22
:204C40004E545D96455DA5F127617FE06B27EB5747120C7C21EC5A366DD4AAE44BC3BB16A0
:204C6000AF6C72D546F652A10AC8D0F017E01D104F1D35BBAE4DCBE762743EA7A7151BB59D
:204C800005472FD9643AB35734958A78093EC63D561167E5365285E35EB33D3A9F4D1D8E41
:204CA00061D962F036EAC5307398FA9BACF769ED89601A3AE4546D551B6751D9B583034F4D
:204CC00071D649DAA7721377591BB90F79FC12A55D1DB750B96633ECD99450675B567BB49C
:204CE00092BDCBC3FEF25D3A9D2E96638B5C3791B95BDA453A75AB995BCDDD6AE156328B54
:204D00005F9DCE208D85BB448589BD004BC891B50A53A35F980CD4CD87E64B77A89065A55F
:204D20005E643690491AB771D4A8FFE2E8AE8395B711C9C2339546E2932A7C4E7AA2D57327
:204D40007E44CEC92BCCA7A761A4BCEB8672C79703C107BDD6615A43EB09421FEAECF3D069
:204D60001885054579B3FDF0EE6F70C870B277F659B53BB01E25D600F1B0DECA9B76B10AE8
:204D80009D1A13A7C626C9BEB8B54ADDF2B548A27D8D89244FA3A112274BEF065955BD4D8F
:204DA000D33632B695AADA2ED92D35728FD5658DF4884E7B91B53B59E725DCA5CAE411A1AC
:204DC000F8E0A87DAD24BB6D6FEB6D9E7471EDF459BF4407BE265AF791ACA555B96453F380
:204DE000B8A8491E4EAC907B2A1F3B986059016F65B7A0B2D5F6C7FA09161650CB1851AF40
:204E00004E654DF7913DB3DD8516E1B956AD3CC0204363818092CC65BD9545F21A91F382D6
:204E2000095C6B3C39DA95B93C08914D9C57BED59ABD0B90FB2114BCF7D183DFEB845CABDF
:204E4000ED56D6F48A868C1A1208A6FDE53A4083A9B8954E42E06DA31031E18611CB502482
:204E600075C281E864B485076A36F1B289D96A2408D3ECBB8AF4808BB03721286A7063043F
:204E800023740196D62CEAE96A80465AB068BD462648041460F232559BD708EA76B46AA96A
:204EA000BD4A983C0116086A1C6DC5C7588DFBF8F42DCA247BF37CCC88469D07D7C31D555E
:204EC0002A8B16978B72B3C12DDAAF5C82007B36AAE96738794EC71EA4ABD25ED69C45772F
:204EE0009D77CD0C64582983D4763C7BE2DAF1E080D666E7C591994318A6C1FFD3DCF2DEFD
:204F0000DC4CD0EC7748E55B1CDCC9E48B973CC385E561903C1D075509971EDEEF45157B78
:204F2000FE584CF983C2C263738F4B72DE89A6D7C963F9D9912BFD3C335FD8238334E3D0DF
:204F40009D10C0EED222538C74E9915ECE61C1DACD4E6748FC2A681296AA331C8C6D619624
:204F6000FA3CFBDBF03E4815B7108EFF864171313A5F1CE0E807E8ACE848EEA548B03FE7E4
:204F800043857C311C2009389750B5263C9F329215C79FA45BBC8FD8A53CD93B876FF82B13
:204FA0000B6DA986F0F3852929E0F8D22B2DC066D01F69CA4DFB1CD7D23F9BABA6B4D92160
:204FC0002F1B752C6D1E109D8D99A82E4A37BDA57A91000EC519F95B516D1EEE631D0F6AC1
:204FE00021499A736F44A113014151F5E1BC379CF5083A629351724C172EC47B011F620694
:20500000499339F744ADE39A0B7B1C99A042739A644851FB88618364D0E3B57E46965559B4
:205020009B74C0FEA7F74EF9F2A5525089977B26134769F00A0F698EEB384E1E73CFDEB49E
:20504000E7F3379BE5A9C3B9F87815DD5CFC8702EE0A52BB7C5847B73FFDBCA60235402B40
:20506000767B393FB9BD5C8C069058839600AD06A05043105FF127F061300F4DF002042FF3
:2050800016F8371B4299E8142767F83719800D610207040F0E10F4F9ABF0E4F66A42F0F1EC
:2050A000003EF926F9099F86D2F087681C9C9F12C235D233FE4CE94F0884AB7F7EBEFA47A1
:2050C000F4C3DDF52FE8F9A663FDDFC9E8E6EA01C84D9B4FC2CD741CBC24C0BCFDF70D0B4A
:2050E0003AA4DC7277BDBEBEFBD735137F585F6AC9D0E5179AEC1E38A95F614019A17C8248
:205100005C3F9158D7F717F7EB68FD70B3FE25BABC585F13D9397DBEBEBDBDBE8B2E3FDF3F
:205120007F8AAE3FFE88EFC11B152E1D6A295DA1EBB6D6B41C6609B57016270D70BD006184
:2051400087380777B736727F7D03C217F70F77FA2EF8C0EDC57874FEEBF82498FF86CD25CC
:205160006DE045BCBBA21D7A5ADE7DA41DA23BEFAE698738C8BB4FFA5CA051DF388818CE37
:20518000D860385A1167A15E859A59A3EE895E4D74A6333A9CE9157445664E495D91FBD5FC
:2051A000A85323959AC708ED181B4EBB1C4E2E32F2EF57616BB8940BB1ABB81045D90A3801
:2051C000BAA0602910B739580BEDAFE279A7B066BF6B4485C8819B783E80B37F6D2951A10E
:2051E000CBD8822A4AF7B815AA11B1B92B4E5AF524395A19E48650C967397CF0579DD3043B
:20520000C5195C270B61DB0E771E92B9E2A185A8E2BA0148D67559EB346601B5446A6D5A0F
:205220003D99F82106D3A9684BA1431DF5A2547F7368FBA940AC50A980BD8A64171785CCD1
:2052400038355B80EDF9FB1104E765EE422C9699A26885F4DF80462CC6B94452E77ECE029B
:20526000F3F2495A2E0575B35C735BB0EB7D5DB7CB0DC101DCD48AEEFE89C73A042BA8676D
:20528000E22ED47EA52655DB1C351DFE471B2543EFFB5E2995EC546508D2E0E4267E21B3BA
:2052A0005A5A1171FD7B834E3EDE4A814E0669D3AA8600AA69A08606755FDA65D449E13048
:2052C000550FC204706DA7F249926C69A2F3C70776719D6ADB34D894316E48A0BA9E125869
:2052E000D59BAC7CE6DEFC6718742CF839E40DDACBA92DF101A47E0DA0D4EE03545171DD21
:20530000C235BA0615C469FF39D0D1CED97955975BA83C07EB31BD6D8302015C42C492FCAD
:205320008C3A993B691E45660943AF710D891AC642364BA3A1B54338908E78565986BC9968
:2053400080DEDE3882CBC3FEA493D0374ED0246E0D7F631D6A060843E55D6EBF5973872C28
:20536000D7767CA1BB2810D31EAA43861BBC1141E3B26D598A4DAC5FC72FA321D5BD6F52F9
:2053800047C2D36A804252052D3D87E17AF65E8B8C88A3AA68A40E8C0F45D355545948F615
:2053A00070B670989D9E69A2D9E88A2FA04191801B77EF7BD303FA790A87A1B2C810B99EB5
:2053C000008E1F331B90DC53B96D14A626E2B9C6A0FD3C179F111291901EA98CD9D004A237
:2053E000F90B37AA7AC8EAA2A319BDA6DCAD35D444221619F34800D6C6E3CA361D18B40C05
:20540000B2B826B9513B70A42022DDB025D3F8C80451F613AAB691350E462C943690BA27DD
:20542000C17236D3E9C76CE63A3DF1663ED38AC6663E5F603D797BD3DD4885382079966C1B
:205440003A4DBFA66D28DE15891CF4B34B52C7B1C6B4EF9B4C63678B466E3A7C6A8F9DF6DC
:20546000337D6AA33625FD66CA1B185377B1247BB00DEEDE4483291E6BD396DEA87AEF44FC
:20548000EC75AF4243CC6B6862A69BB1BE385EB8511332A29985E8F7E999097DB346A57B22
:2054A0001204309FED85B64ADD137F8B6973C22CA2FEF655D0CFA91A78911B3B2D96FD94D1
:2054C000678FF0AE4463BC3DBCC21F22E1A5E37E6C1259E5F7B53AEF8D5066FD64C4437541
:2054E00023123686334225A2BD3CC4B0A83122F12729E655D6C8BA24D1D3641A538118AE63
:20550000F287760B6A76FB3066871BC76F09F7FBBC3F7BE444D76075AB8BA2C5982BB2A64B
:20552000574CD3E5E6A7F9CA0A98F49DDBA0ADE3B90F5AFEC56AE0A3FBCF3D6AB81D874B98
:20554000D6521F348EF04F5D9EE67DE5B76FBD2524B1EB258F8E0A3D235FEA964C176E3B61
:20556000B5DD694BEC3D608A0061FEA7174AFBA7F159303E1B9F0693F1E976BE4C56E16AC3
:20558000158CDEFE07971DFB0200000000000000000000000000000001020102D45800089C
:2055A0004D14000802010001A45A00088D0C000803010001D8580008890F000804040004EE
:2055C000945A00080931000805020002905A0008A53200080600010000000000C9080008D9
:2055E00007020002D4580008FD03000808020002905A00080132000809010001D8580008E8
:20560000791300080A030003DC5800083D4600080B020002E0580008E51700080C020002BC
:20562000E0580008710D00080D00010000000000891400080E080008E4580008511800081E
:205640000F060006EC580008AD0D000810020002905A0008B10A000811020101AC5A000835
:20566000FD13000812030003F45800081504000813040004F8580008BD180008140100011F
:20568000D8580008050D000815050005FC580008593200081603000304590008AD0F000865
:2056A000170400038C5A0008A90E000818050005085900086910000819010001D8580008C0
:2056C000B91300081A030002785A0008D94000081B080008105900088D1700081C02000274
:2056E000E0580008F90A00081D050003185900081D0900081E020002905A0008D132000874
:205700001F030002785A0008893F000820040004B45A0008793D0008210400047C5A0008B8
:205720001918000822030003045900086D0E000823030002785A0008451300082403000295
:20574000785A0008B90900082500010000000000A92B0008260600061C5900081143000898
:205760002700010000000000E508000828010001D8580008FD32000829040004945A00084C
:20578000F90900082A030003245900083D3D00082B00010000000000B51400082C04000398
:2057A000285900086D3100082D0500052C590008E10F00082E020002E05800085D0B00081C
:2057C0002F030103DC5800080103000830030003745A0008ED16000831030002785A000824
:2057E000AD3F0008320600061C590008010C000833040003885A0008393100083402010216
:20580000E05800080D14000835050005345900085D17000836020002E0580008F10E00084E
:2058200037010001D85800082934000838010001D8580008E10E0008390800083C59000843
:205840004D4200083A050005445900088D4100083B030002785A0008D90900083C040003AB
:205860004C590008BD1200083D020002905A00085D1500083E030002785A0008054100088C
:205880003F00010000000000C914000840020002905A00082D0B0008410500055059000871
:2058A000D941000842020002905A00086919000843030003DC580008F5190008440400041D
:2058C000945A0008E90D00084500010000000000FD0200080004000004000000040000007B
:2058E000040000000400000400040404040000020200000000000200040002030400000475
:20590000040000000404040004000404000000000400000400020204040707000400000045
:20592000000000000400040004070400040404040000000004000000000000000400000038
:20594000000000000400020000000000040700000400040000000000000500000000000029
:2059600000540040161700000054004018190000005800401A1B0000003800401E1F1D52B0
:20598000003001400607055200300140141513520038004022231A52003C004014151362F0
:2059A000003C00402B2C2A62003401404D4E4C5200400200985A0008460600000000000052
:2059C00047090100685A0008480E02006C5A0008491503009C5A00084A100200A05A0008C9
:2059E0004B0B0100A45A00084C120400A85A00084D400100AC5A00084E0B0100A45A0008E2
:205A00004F0D0200B05A000850110400B45A000851110400705A000852100300745A000828
:205A200053400200785A0008541404007C5A000855400200785A0008561C0700805A0008E1
:205A400057400300885A0008584003008C5A000859400200785A00085A0A0200905A00086C
:205A60005B170400945A000802000000000200000404040004000200040700000400000491
:205A80000400000204040200040207000404070004040000040000000006000000000000C8
:205AA00000000000000000000400040207000000040100000404000400000240000402403C
:205AC00000080240000C0240001002400000000000000000001C0240000400400601220011
:205AE00000040040260132000004004007022200000400402702320000040040280332005A
:205B000000040040290432000000014008011200000001404901120000000140090212008B
:205B2000000001404B021200000001400A031200000001404D031200000001400B04120060
:205B4000000001404E0412000000004005011200000000400F01120000000040130212007F
:205B6000000000401A031200000000401B041200000400401401220000040040150222004D
:205B8000000400401003220000040040110422000008004016012200000800403C012200E9
:205BA0000008004017022200000800403D022200000800403E032200000800403F04220061
:205BC000000C004000012200000C004001022200000C004002032200000C004003042200FD
:205BE00000400140450132000040014046023200004401401801320000480140190132000C
:205C000000000000C503000800000000100000001C0000201C0000200000000028000020E4
:145C2000C903000800000000000000000515000800000080FA
:00000001FF
