:020000040800F2
:2000000000500020152900081129000811290008112900081129000811290008112900089E
:2000200011290008112900081129000811290008112900081129000811290008D12B0008EE
:20004000112900081129000811290008112900081129000811290008112900081129000890
:20006000112900081129000811290008112900081129000811290008112900081129000870
:20008000112900081129000811290008112900081129000811290008112900081129000850
:2000A000112900081129000811290008112900081129000811290008112900081129000830
:2000C0001129000811290008112900081129000811290008712800080021084A30B4034695
:2000E00011600120D3E90225597F054C01432A44597720709A6030BC704700BFA80100202B
:20010000C8000020F8B5C3696BB10F4604460025D3E900621846E6613946C3E90055904724
:20012000E369002BF4D10022024B1A600122024B1A70F8BDA8010020CC00002008B5037DF9
:20014000DA0709D5817D23F0050343F00403037541750C38FFF7D6FF002008BD0346002002
:2001600010B493F82020074942F0040283F82020086001209A689C690349224408709A60F9
:2001800010BC7047A8010020CC00002010B5D0E90323926890F824401A4218BFE44304F04F
:2001A00001046CB990F82630013B13F0FF0311D08268816980F826300A448260012010BD55
:2001C00090F82530C2690E4980F82630C0E90112012010BD026A92F82030D9070ED590F8B7
:2001E000271023F0050343F00403104682F8203082F82110FFF786FF204610BD204610BDC7
:200200000502000810B4D0E902329468D0E904121A4490F824300C4218BFDB4303F00103DF
:200220001BB1826010BC01207047034BC261436010BCFFF7ABBF00BF8D01000810B4D0E95A
:200240000614CA6883686240CA6090F8301081F00102C90754BFC168016980F830205207C8
:200260000B4403D4836010BC012070474269991A0029F7DB1346034A8360426010BC012060
:20028000704700BF31090008704700BF10B4D0E900348268EFF3108172B6DBB2012B0CD065
:2002A000022B05D0D2B2227081F3108810BC7047226081F3108810BC704792B2228081F32C
:2002C000108810BC704700BFF0B40D4A03780D4D5C1C1268E3B22E7802EBC30205E0174653
:2002E00052F8085B5C1C8D4205D0E3B29E42F6D80020F0BC704703707868F0BC704700BFFA
:20030000500000204C0000200D4B1988B1B130B40C4A0D4B01391568187807D000222B1891
:2003200001321C1A8A4223600344F9D1002201FB00F1064B6A501D6030BC7047704700BF44
:200340003E0000204800002044000020400000200020704730B400240749084B8868084D4C
:2003600000F5DB020344074802F5BA420460AB60012030BC8A6070471000002000DD6D800B
:200380001C000020A80100202DE9F041082584B06F4600F1140300F10C020DEB05060C469F
:2003A00092E8030086E8030093E8030087E80300DFF85480230620D4D8F804200E32D8F893
:2003C00004309B1A002BFADB96E8030003F01EFBD8F804200E32D8F804309B1A002BFADBBA
:2003E00096E80300013D640003F010FB15F0FF05E4B2DFD104B0BDE8F081E44397E803001A
:2004000003F004FBE4B2D7E7001000E02DE9F84FD0E900A692F800B091460D460BF0F0019A
:200420008046FFF7B1FF194C09F101076368A3EB0A039E42FAD84FEA0B1101F0F001404614
:20044000FFF7A2FF012D6468D8F8086019D0AA1ED2B202320D4D914417F801AB40460AF000
:20046000F001FFF791FF6B681B1B9E42FBD84FEA0A1101F0F0014046FFF786FFB9456C6840
:20048000EAD1C8F80040BDE8F88F00BF001000E0034600B5D3E9001283B0684603F0C6FA66
:2004A00003B05DF804FB00BF027A4168007803F087B900BFD0E908311A6812F0100F07D07B
:2004C000920709D4836803F5B463836001207047274A59639A60F5E75A6B8A42F2D16FF03B
:2004E000100210B51A6090F82A2090F82B10DB6C8A429BB21FD2048B0132D2B223449BB2CB
:200500008A42038380F82A201BD3428B9A421ED8828B9A421BD3002380F828300022154BEE
:200520001A6001214369C468134A2344117043618360012010BD01228A42038380F82A2056
:20054000E3D28368026913448360012010BD90F8283090F829200133DBB29A4280F828304A
:20056000DCD8064B1B68002BD5D11A2000F06EF90100DE00A801002030000020A4010020D4
:200580002DE9F04FD0E905BAD0E9097680460D46016A9DB0C369027A0191C06A06931893DD
:2005A000019B0290D8F830101993029B0391D8F834001493039B0490CDE91ABAD8F83810A1
:2005C0001593049B1AAC0591CDE9167694E803001293059B85EA0209139303F017FA19F045
:2005E000100F4ED119F0200F52D119F0400F56D119F0800F5AD13D490A464868103053689F
:200600001B1A002BFBDB94E80300079203F0FEF92901C9B2079A88F808105268334813324A
:2006200043689B1A002BFBDB069BCDE910BA0E93019B10AC0F93029B4D400A93039B94E8BC
:2006400003000B93049BCDE90C760893059B099303F0DCF9E80642D4A9063AD46A062BD453
:200660002B0630D4214B19465A6810324B689B1A002BFBDB94E803001DB0BDE8F04F03F0EA
:20068000C5B918A903C903F0C1F919F0200FACD016A903C903F0BAF919F0400FA8D014A930
:2006A00003C903F0B3F919F0800FA4D012AA92E8030003F0ABF99EE70AAB93E8030003F048
:2006C000A5F92B06CED508AB93E8030003F09EF9C8E70CAB93E8030003F098F9BEE70EAB27
:2006E00093E8030003F092F9B6E700BF001000E02DE9F04F047C83B014F0060F26D0A607EE
:200700000091814604F00101D0F800A021D44068CAF80000002940F08F80511EC9B2AAB117
:200720005A185F1E17F8013F8AF80C30DAF80830D907FBD59AF80C30DBB2009901B13B70B2
:200740009742EFD199F81030DB076AD403B0BDE8F08F9AF81850DAE90440AD0758BF000468
:200760002061002963D0D9E902010C04511E0461C9B2002AE6D05A1801925F1E0AF1100506
:200780000826002417F801BF1DE095E8030003F03DF9DAE90212B8F1000FA8BF12040A611B
:2007A00095E8030003F032F9DAE90023926864001A42E4B24FEA4B0B18BF44F00104013E87
:2007C0005FFA8BFB23D09AF818204FFA8BF8D007DBD4DAE90212B8F1000FA8BF12040A61B4
:2007E00095E8030003F012F9DAE9002395E80300926864001A42E4B218BF44F001044FEA7C
:200800004B0B03F003F9013E5FFA8BFBDBD1009B03B13C70019BBB42B2D199F81030DB07FF
:2008200094D5D9E902321A6103B0BDE8F08F511EC9B2002A9FD189E7D9E902010C04511ECF
:200840000461C9B2002A7FF46BAF7BE708B5014672B6014803F006FD5400002008B52120C2
:20086000FFF7F4FF70B58269134C13682568C668118922608361848A3160156063B9A142D7
:2008800008D0036933B182680C491344C0E90113012070BD184670BDA1425A6801D0036922
:2008A00013B98260012070BD81680B449B1A002BF7DA2020FFF7CAFF400000205D08000887
:2008C000036B13B943611846704770B582695C68B3F908601D6822443444C460541A826165
:2008E0000563068258BF826016D45A89C46A51004161197BC90707D42244C2620A4A0120E3
:2009000011681360196070BDD0E90956E968121B7140C262E960F1E7044A9442A8BF81604D
:20092000E3DA1820FFF792FF40000020C0E6FEFF816AF8B5002900F08D80034688680C68CD
:20094000474E002818BF0125D3E906E208BF00259C62D6F800C03AD11204CEF81020316019
:20096000C1F800C0B0FA80F693F83020760982F01001C1F300118E421FD0196AE9B19E685A
:2009800045F004053144002C50D193F83020596102F010022A4383F83020AA0705F00404D8
:2009A00056D50644002C51D15F6A2E493F1AC3E902601F6159600120F8BD02F0100252B2B6
:2009C000ECB92A4383F8302020465C61F8BD5F6A31608742CEF81020C1F800C0C2D9196AB2
:2009E000F9B993F8302002F0100252B25CBB996842F0030283F830205C614618D5E745F03C
:200A000004056EB200256468324383F830205C6125B19A688618311B0029C5DB9C60012017
:200A2000F8BD9E6807253144002CAED06468091B002912DB93F830106EB201F010014AB2C1
:200A400005F00205E0E702250726DCE70C46E2E70C46E3E71520FFF7F9FE1320FFF7F6FE46
:200A6000400000203D020008054A08B5136823B1022B1CBF0023136008BD0220FFF7E6FE15
:200A8000A401002008B50820FFF7E0FE08B5084B1B78834209D9074B1B6853F8302003EB30
:200AA000C0038A4201D1586808BD0C20FFF7CEFE4C0000205000002038B509490446007885
:200AC000FFF7E4FFFA210546FFF75EFC217901B938BDA2682846BDE83840FFF797BC00BFA1
:200AE000D50E000838B5094904460078FFF7CEFFF8210546FFF748FC217901B938BDA26856
:200B00002846BDE83840FFF781BC00BFD50E00082DE9F04F85B0044602AF23490078FFF70E
:200B2000B5FFE56894F804B0EA07A36838D40646C5F347050BEB050909F1070202F47E722F
:200B4000ADEB020D0DF1080819465A46404608EB0B0A7B60246903F05DFACDE9005A7B68AE
:200B600096E803005A4602F0AFFA75B10AF1FF326019217812F8013F23EA01031370295DF1
:200B800001340B43A0421370F3D196E8030043465FFA89F202F0F6FA0C37BD46BDE8F08F7F
:200BA0001F20FFF753FE00BFA10F000810B5064904460078FFF76AFFA368227903C8BDE8ED
:200BC000104002F0DFBA00BFA10F000810B5044605490078FFF75AFFA36822790021BDE833
:200BE0001040FFF785BD00BFB11000082DE9F047064629490078FFF749FF347A032C45D82A
:200C0000037C054613F0060F40D1D6F80490F768B9F1040F3CD8DFF8888058F83960304611
:200C200002F070FD8246B8B100231C485A1C20FA02F18F420ED2082A1346F7D138232A7C15
:200C400044F4517442F0040223432A74C5E90063BDE8F087DB00F2E708EBC908304602F04E
:200C60007DFD98F8079098F804004946012202F09FFB5246494698F8050002F099FB524627
:200C8000494698F8060002F093FBCDE703F07CF82F20FFF7DBFD00BFB11000080051250277
:200CA0007050000838B50E4905460078FFF7EEFE0C4904462879FFF7E9FEEFF3108272B6CA
:200CC000E36B4BB9C369084D04F13801C4E90E35C16182F3108838BD1920FFF7B7FD00BF5D
:200CE0007D12000825120008AD18000810B504460A490078FFF7CAFE626872B6436953B90F
:200D000090F84030826123F0300343F0100380F8403062B610BD1620FFF798FD7D12000847
:200D200010B5044609490078FFF7B0FE6368002B0CBF0023022372B690F8402022F0020207
:200D4000134380F8403062B610BD00BF7D12000810B5074904460078FFF798FE72B6836AA2
:200D60001BB96368436262B610BD1420FFF76EFDE512000808B50023064A1288C0E9003310
:200D80002AB9054B1A788A42B8BF197008BD0E20FFF75CFD3E0000204400002008B5EFF31F
:200DA000108272B6054B186820B10168196082F3108808BD0F20FFF749FD00BF400000209A
:200DC00038B50A4D0A4B2C6822189A420BD8C31C23F0030323440246002120462B6003F041
:200DE000F1F9204638BD1120FFF730FD2C000020004E0020F8B5174E338843BB164B074627
:200E00001C78032C02D8042214461A70134A00231068134D01460A19AA4211D80133B3F5B8
:200E2000806F1146F7D11C46101AFFF7C9FF0D4B34801860FFF768FA3A680B4B1A60F8BD57
:200E400013B19CB20A46EFE71020FFF7FFFC0D20FFF7FCFC3E000020440000202C00002010
:200E6000004E0020480000203400002038B5074C236843B90568E8B2C000FFF7A1FF044BD5
:200E800020601D7038BD0A20FFF7E0FC500000204C00002038B50C4B1B78834210D90B4B9D
:200EA0001B6853F8304003EBC0054CB9084C248834B943F830101046FFF782FF686038BD4A
:200EC0000B20FFF7C3FC00BF4C000020500000203E000020F0B51C2283B006461F490078F7
:200EE000FFF7D8FF6D460446B1682846002202F09DFD95E8030004F10C0383E803000022DF
:200F0000F168284602F092FD95E8030004F1140383E8030001222846716802F087FD204649
:200F2000F821FFF731FA20462021FFF72DFA72B60B4D204600216F68FFF726FA6B6862B6D4
:200F400023603269DB1B93423CBFD21A6260726993423CBFD31AA36003B0F0BDD50E000819
:200F6000001000E038B5027B04468168007902F027FC2022054608492078FFF78BFFD4E9A3
:200F80000412064BC5608182436002610C21BDE838401830FFF7EEBE650F00086508000897
:200FA0002DE9F8430446082200783049257BFFF771FF6768022F56D82D4E804656F8374041
:200FC000204602F09FFB8146002845D1204606EBC70602F0C3FB377976793846012240F2D4
:200FE000011102F0E5F93046012240F2011102F0DFF930464FF0FF3240F2011102F0D8F97B
:2010000038464FF0FF3240F2011102F0D1F93846012240F2011102F0CBF93046012240F27C
:20102000011102F0C5F9384601224FF4A17102F0BFF9304601224FF4A17102F0B9F94FF479
:2010400000462420B421252201232660C4F800906060E161226223606D0088F80450C8F8EA
:201060000040BDE8F8832E20FFF7F0FBA10F00085850000870B5067A032E0FD80446202230
:2010800008490078FFF706FF0546074B207907496B60FFF7FBFC2E77A86170BD1E20FFF73F
:2010A000D5FB00BF75100008D9000008B110000870B5142282B006460B490078FFF7EAFEE7
:2010C0006D46044671682846012202F0AFFC95E8030004F1080383E80300237C43F0010348
:2010E000237402B070BD00BFB110000870B504460A490079FFF7CAFC257A064605F1080210
:2011000020780749FFF7C6FE05710660E1682A46BDE87040053002F07DBF00BFB110000858
:20112000ED100008007814220149FFF7B3BE00BFB1100008F8B5446806463CB301222F4994
:20114000134604E00133112B1DD011F8012F94421D46F7D12A4B9B6998051CD5FE2C04D0B6
:2011600020460022032102F023F92C2225493078FFF790FE01232449244A80F82A30456255
:2011800041600262F8BD2B20FFF760FB1C4B9D6915F400752FD11D4F384602F045F80122D2
:2011A0001B4BBA60DA68D10108D4DA68194942F08072DA600B6843F001030B60154B1946E9
:2011C0005A6802F534724B689B1A002BFBDB0F4B092219469A608B681A07FCD405230B4A08
:2011E0008B6093685B07FCD40B4B0C49D3600C4B11619360B2E72546B2E700BF794200081E
:201200000010024035110008B504000800240140F0ED00E0001000E0244992002449922439
:2012200001009E0008B5242200780449FFF732FE034A044B4260036108BD00BF25120008BC
:201240005D0100083D01000870B5282282B0064609490078FFF71EFED6E901126D4604464A
:20126000284602F075FB95E8030004F10C0383E8030002B070BD00BF4912000870B506463A
:20128000442282B000781649FFF704FEF26805461ABB13466C4685F840307168204602F044
:2012A000C5FB94E8030005F11C0383E803000022B168204602F0BAFB94E8030005F1240388
:2012C00083E803004FF04042102105F13000EA6202B0BDE87040FFF74DBD04221346D9E7F6
:2012E0007D12000830B583B06D46044682684168003218BF0122284602F098FB34221049E1
:201300002078FFF7C7FD024695E8030002F1180383E80300D4E90231003318BF012311B157
:2013200043F010035BB20C2182F83030236902F12800136203B0BDE83040FFF71BBD00BFE2
:20134000E51200080FB42DE9F04F874F85B03A78D2B222B105B0BDE8F04F04B0704701233A
:20136000824C3B7021780FABC9B2039399460B467F490E78F6B2B34203D30A701646134670
:2013800022700E9A5578AA19602A0AD9D31A602B40F2C28000233B7005B0BDE8F04F04B00F
:2013A0007047744B0193019BE91E03EB060B052D0BEB010440F287800E9B0BF1030093F8E8
:2013C00002805D681B78A8448BF80230454574D0A04200F2C58015F8013B072B00F2C080FE
:2013E000DFE803F02F2F2F2F2F1804044B4653F8082BA4EB000A924528BF924680F800A0D2
:20140000D9F804109946431C5246184602F002FE5044DBE7D9F80010431C0A7809F10409A2
:2014200052B1A34202D307E0A34205D003F8012B11F8012F002AF7D11A1A013A02701846BD
:20144000C4E7D9F80030421C03F120017F2909F104092ED903F5805C811CBCF5804F009135
:201460004ED3454903F5002E8E4500F1030C4CD903F1806EBEF1805F00F1040163D24FEACB
:20148000535A6AF07F0A964680F800A0624608464FEA933C6CF07F0C8EF800C04FEAD31C75
:2014A00000996CF07F0C81F800C003F07F0313708CE7114602460846F7E7A0EB0B00014660
:2014C000C51C0BEB00042D4B019A1B785FFA85F802F8068058468BF8013002F01DFA7E2339
:2014E0005D444644020A2270F6B205F8020C05F8013C42F2AC02224B1D490E70DA6049E799
:2015000000F1020C00906046C8E700F1020A8646009260465246BBE70025154B1D70217801
:20152000C9B21448761A32460144019002F0E8FD2570F1B242F2AC02114B0D480170DA60A9
:201540000E9B5D782FE78646180F60F07F000EF8050B1046009ACDF800C08C4671468EE7AC
:201560000620FFF773F900BF3C0000201502002014020020B4010020FFFF1F000C0000203D
:20158000003801402DE9F04182B00446067802AF0D493046FFF77AFA257B2279EB1D03F470
:2015A000FC73ADEB030D0DF10808A368CDE9005803C801F089FD43462A4631460348FFF7FA
:2015C000C1FEBD46BDE8F081A10F000818510008F0B505461C4683B09DF824009DF82060B7
:2015E0000F46009601460848FFF7ACFE2B689C4202D33B689C4202D9044B1B680BB103B0E6
:20160000F0BD1D20FFF722F910510008A401002070B50446057809492846FFF737FAA668C0
:201620002479334622460121FFF762F8334622462946BDE870400248FFF784BEB1100008CA
:201640000851000830B5047883B00C492046FFF71DFA72B690F82420C36962B6D0E9035188
:20166000A868C2F34002084214BF01200020214600900348FFF766FE03B030BD4912000866
:20168000F050000810B504780A492046FFF7FEF972B64369C26AA2EB5302002AB8BF524204
:2016A00062B605482146BDE8104002F14042FFF749BE00BF7D120008E850000803460248CE
:2016C0005A681978FFF73EBED8500008D0E90031EFF3108272B6DBB2012B0ED0022B06D075
:2016E0000978C9B282F310880748FFF72BBE096882F310880448FFF725BE098889B282F3CF
:2017000010880148FFF71EBEE050000840F60823D0E9001299420DD840F60923D2B25018A4
:20172000984202D9C1F10902D2B2054B05480B44FFF708BE024B00220B440248FFF702BE4D
:201740008C42000898500008064A0749074B526809681B680648914294BF1946591CFFF7E5
:20176000F1BD00BF001000E0B4000020B8000020C0500008024B03485968FFF7E3BD00BF9A
:20178000001000E0C85000080A4A00B511680A4B003118BF01211B88084A83B01268009105
:2017A000191C18BF01210648FFF7CCFD03B05DF804FB00BFA40100203E00002034000020B1
:2017C000D050000808B50420FFF740F8EFF3108172B60F4B1A68824203D10DE0834206D03B
:2017E0001A461368002BF9D181F3108870470368136081F31088704710B410689468054A2E
:20180000946010601A6081F3108810BC704700BF280000200000002070B5057882B0064614
:2018200014492846FFF732F9044672B690F82030DA070AD5317923F0050343F0040380F83B
:20184000203080F82110FEF75DFC2046FFF7BEFF04F10C00FFF7BAFF002294F8213084F8FD
:20186000202062B6044800922946FFF76BFD02B070BD00BF25120008F850000810B5044629
:20188000FFF7A4FF04F10C00FFF7A0FFE36933B100221968C3E900220B460029F9D1002311
:2018A000E361238484F8223010BD00BF38B504463838FFF78BFF002054F8242C54F80C3C6C
:2018C00054F8101CA3EB520383EAE372C2EBE372237A54F8145C03F0040343F020032372AB
:2018E00009045B0744F80C2C44E9090054F8182C54F81C0C296111D41204026154F8083C53
:201900005BB10748016800E013461A6819601946002AF9D144F8082C036038BD0261EDE77D
:201920004000002070B58468EFF3108572B6184A11688B68E31A002B01DA0AE011460A6813
:201940009368E31A002BF9DA0260086085F3108870BD104B5B68E31A002B12DB0E4B4FF0BF
:201960008066994208BF196801600021186013609C600A4A0A4B516091605E6085F31088DC
:2019800070BD084B1B68002BE8D10320FEF75EFF28000020001000E00000002010E000E0C3
:2019A00000ED00E0A401002070B5184906460078FFF76CF80546FFF7F1F9736804464360FE
:2019C000B368038172B60022AB69026023B1EB691860E86162B670BDC5E9060062B6284640
:2019E000FFF7F4FE0A4B6A689A42636807D0094A2846C5E90123BDE87040FFF793BFAA6818
:201A0000D21A002AF3DA2020FEF720FF650F00085D0800086508000838B50B49044600782E
:201A2000FFF734F80546FFF7D1FE6368AB60A368EB6003B938BDE36828462B6123696B61FA
:201A4000BDE83840FFF76EBF7510000838B5144905460078FFF71AF80446FFF7B7FE04F1BA
:201A6000200393E8030001F0C3FB6B686361A360AB6823612B7B5A1C84F82B3084F82A202C
:201A80002A69E260EA69D5E9050184F829206083A18303B938BD2046BDE83840FFF742BF63
:201AA0003511000870B50B4905460078FEF7EEFF72B690F82030DB070AD5044600F10C06AC
:201AC0003046FFF783FE6B6830466361FFF72AFF62B670BD2512000838B50C490546007864
:201AE000FEF7D4FF044672B6FFF7C8FE012384F820306B68A360AB68A36113B12046FFF7F3
:201B000011FFEB6884F8223062B638BD2512000838B5174905460078FEF7B8FF0446FFF74C
:201B200055FE6B68A360AB68A3612B7B84F82530CBB12A6984F8263062616A690D4B002AF5
:201B400014BF0322022284F82420287E0A496360FEF79CFFEB69206284F827302046BDE8A9
:201B60003840FFF7DFBE84F82430236238BD00BF49120008050200082512000838B52A4940
:201B800005460078FEF782FF0446FFF707F96B6843602B894381002B43D00022EB680273B6
:201BA000038172B694F8403003F00101C3F34002914205D0027B83F0010342F0010202734A
:201BC000626903F0EF01DAB913F0200312D1226B84F8401003600AB3636B1860606343688E
:201BE000A16920461944FEF76BFE2046FFF79AFE62B638BD0D4B1A681860026062B638BDF8
:201C00000022236B84F84010026023B1636B1860606362B638BDC4E90C00E9E7C4E90C00BA
:201C2000DDE71720FEF712FE7D1200084000002038B51E4905460078FEF728FF0446FFF73A
:201C4000C5FDA36A73BB2A7994F83030002AB2FA82F2D4E9065012BF0121002100042861FA
:201C600083F010005209C0F3001003F01003824249B25BB201D0226A1AB90B4384F8303097
:201C800038BD0B4841F0040145680B4309482A4484F83030C4E9010262612046BDE838403A
:201CA000FFF740BE1220FEF7D1FD00BFE5120008001000E03109000870B51D4905460078FD
:201CC000FEF7E4FE0446FFF769F86E684660AB68836072B60022A36A026023B1E36A1860C8
:201CE000E06262B670BD94F83030C4E90A005A0716D443F004029B07666184F830200AD423
:201D00002046FFF763FD0B4B2046C4E90136FFF709FE62B670BDA3689B1B002BF9DBEFE78F
:201D20006269921B002AE4DA1320FEF78FFD00BFE5120008310900082DE980488DB0584BD1
:201D400002AF5A687B61574BFA601B68002B40F03E820122544953480B780260DBB253B3C7
:201D60000022FF2307F12804504D0A7004F8043D4F492046FEF7A8FAE8B190F82030590741
:201D8000F6D57B695E6872B690F8202090F8213022F0040180F8201062B697F824102846FD
:201DA00002F001020096FFF7CDFA41492046FEF78BFA0028E1D13F490B78DBB213B3002217
:201DC000FF2307F128043C4D3C4E0A7004F8043D29462046FEF778FAA0B190F82A2090F80C
:201DE0002B309A42F4D172B690F82A2090F82B30934200F06D8262B629462046FEF764FA16
:201E00000028EAD12E490B78DBB2002B00F08F800023FF229B4607F1280505F80D2D0B7032
:201E200028492846FEF750FA0446002800F07F80637FDA07F4D572B6637FD4F8088023F026
:201E40000103637762B6237F032BE9D8DFE813F02C0204023E00040007F1280323F80CBDB4
:201E600002220121A06997F81B90FEF741FCBB8B424693FA93F81FFA88F8CDE900B9434630
:201E800004F1140104F11000FFF7A2FB18F0040FC6D00D4B1B68002BC2D11C20FEF7D6FC53
:201EA000001000E0A8010020CC000020F850000825120008300000203511000800510008F7
:201EC000C800002075100008A40100204FF0010A07F1280949F804AD4B46A069514603220D
:201EE000FE7EFEF705FC07237A6ABB8451464B46A06992FA82F90222FEF7FAFB019697F8B7
:201F000025104FEA1929009142461FFA89F304F1140104F11000FFF75BFB19F0010FB8D166
:201F2000AF492846FEF7D0F90446002880D1AD4A1378DBB233B30021FF2307F12804AA4D67
:201F4000AA4E117004F8043D29462046FEF7BCF9C0B1037FFF2BF7D172B6837C002B00F025
:201F6000E181427F027762B6C27E133097F8241000903046FFF7E6F929462046FEF7A4F925
:201F80000028E6D19A4A1378DBB22BB30021FF2307F12804974D984E117004F8043D29462A
:201FA0002046FEF791F9B8B1037F1B07F7D572B6037F23F00803037762B6827F00F12803EC
:201FC00097F824103046D208FFF7BCF929462046FEF77AF90028E7D1884A1378DBB2002B11
:201FE0003FD00021FF2307F12805DFF85092117005F8083D82492846FEF766F9044680B3E4
:020000040800F2
:20200000237E5907F6D5DA0797F8208040F15C81FFF7DCFB0222B9F8001007F12803227669
:202020007E6923F8041D20690021D6F804A0FEF75FFB72B67E69E268D6F804B020465A4433
:20204000A260FFF76FFC62B66E485B4652464146FFF778F96A492846FEF736F90446002871
:20206000CED1694A1378DBB243B30021FF2307F12804664D664E117004F8043D294620469F
:20208000FEF722F9D0B190F82030DB07F6D572B690F82030826823F0010380F82030D0E9A8
:2020A000063062B697F8241000903046FFF74AF929462046FEF708F90028E4D14AF6AA221C
:2020C000544B1A607B69596872B6534A13685B1A002BB8BF116062B6504B1A78D2B2154656
:2020E000002A44D04E4E3478E10740F122814D4B7B607E214B4801F047FF28B17B6804F012
:20210000FE04C01A3470451CA30700F12D8144F0020434704448BD60FFF714F94FF0FF3598
:20212000D7E901A9002080463C4B1C78E4B2B4EB09060AD000EB0901321A5144504401F0BB
:20214000DFFF3046394BC3F80080EFF3108272B6324B1B78DBB29C4240F003812F4B1E7099
:2021600082F31088012D02D12F48FFF7EBF87B692F4D304E5C68FB6829683268E31A0131A2
:202180001A44B3F5803F2960326080F0AD8003FB03F3DFF8AC80FF33D8F800C00CEB1323DC
:2021A000634538BF4FF0FF33DFF898902248D9F800A02018A0EB0A000028C8F8003080F2DE
:2021C000A0801A4BFC601B68002B3FF4C2AD7B695A6872B6154B1B68002B40F0C98033E066
:2021E00075100008D4000020E52E000820510008B0010020D53A000828510008D000002071
:20220000B92E000840510008D8000020913900085051000800300040AC010020A0010020C5
:20222000C4000020E000002050500008A801002038000020BC00002000D68AEA744200080D
:20224000C0000020B400002062B67B695B689B1AFA681A44FA607CE50C2307F1280949F842
:20226000043D4B46A0690422012197F81BA0FEF73FFA0F23D7F824C0BB84A0694B460222E1
:2022800001219CFA8CF9FEF733FACDF804A097F8251029F07F430091424604F1140104F1BF
:2022A0001000FFF795F9BBE507F1280343F808BD0422A069012197F81B90FEF719FA3B6A8F
:2022C000424693FA83F8D8E5414601F09FFC91E6013380F82A304269038B62B697F824100D
:2022E0003046FFF72FF873E5B3F5801F1CD2DFF8208203F1FF00D8F800C0000A03FB00C3F7
:202300004EE77B48FFF71EF8A24503D9794A1368013313600023C9F80040C8F8003033606A
:202320002B604EE762B60FE64FF0FF33DFF8E0813AE7042A7FF61BAF6F490B787960BB606A
:20234000053B3B2B05D891F8019029F00F03102B1AD0BB687E2B00F0C68044F001043470B1
:20236000C7E682F31088DFE6BD604FF0FF35D7E64FF0FF3361490B6062B630BF72B65F4B32
:202380001B68002BF8D15FE7B9688A42FFF4EFAE594B013BCB5C7E2BDBD1DFF85CA1A1F141
:2023A0000308414650463A6101F0B6FABB68AAF1020C1AF8081013F80C30D04443EA012317
:2023C00083423A69C5D14E4A24F00204137834704B4540F086805046013303F00F03811CEC
:2023E00043F01003884513706ED99AF802A0C7F810D00AF1FF33432B4AD8C41C2146DFF852
:2024000014914FEA4A0B0BEB0A0209EB820253780C469B000A3303F4FF63ADEB030D02A86F
:202420000646556892F803C0AC44AC4513D0A04554D315F8013B042B2DD9072B4ED121780E
:20244000621C5418A04549D33346AC4543F8081B72601E46EBD12B4B1B6833B10BEB0A03F7
:2024600009EB83039B78DA0730D50BEB0A0309EB83039B689847D7F810D0A04524D994F86D
:2024800000A0611C0AF1FF33432BC7F810D0B8D90520FEF7DBF92378311D03F06002602A9E
:2024A00004F1010403F07F0E08D16EF01F0E05E014F8013B03F07F0242EACE1E1B06F7D499
:2024C000C6F800E00E46B0E7012529E60E4B0F481968FEF737FFD7F810D0CEE70720FEF762
:2024E000B5F9BD6816E601234FF0FF35BB6017E6B8500008B8000020E0000020A8010020AD
:202500000C000020A4010020B0000020A8500008C0000020984C0008002445F2555640F6F2
:20252000FF754CF6CC409B4A9B499C4B22F0030280B50A609A491E605C609D601860CA68AF
:20254000984B42F08072CA601A6884B042F001021A605C60EFF3108172B6202607254FF0DD
:202560008060914B914A82F823601D605C609C60506081F310888E4D284600F055FE902298
:2025800042F22C018B4BAA600A20E960012283F8254372215E6000F00BFF22467221092012
:2025A00000F006FF8448FEF7CDFE72B6834801F053FE10B962B6FFF7BFFB72B6804B794A1E
:2025C0001B68D2F804800BB97E4B1860022500234FF080607C497A4A7C4C15600C608D6895
:2025E0007B4A7C4C1160226095606F496F4A4B608B605060784A04AC1370FDF785FEFF2321
:20260000764D04F8093D11260EE090F83030D0E9061213F010030BBF12040A610A61334692
:20262000002280F83030826229462046FDF74CFE0028EAD1FF2304AD044605F8083D684EB1
:2026400004E0046321463830FFF730F931462846FDF73AFE0028F4D1FF2304AC614D04F8C7
:20266000073D01E0FFF70AF929462046FDF72CFE0028F7D1FF2304AD5B4E05F8063D0AE0B3
:2026800004F1200393E8030000F0B2FD94F82B30002B40F0DA8031462846FDF715FE044633
:2026A0000028EDD1FF2304AC504D04F8053D05E0037CDB0744BFD0E902321A612946204601
:2026C000FDF702FE0028F3D1FF2325468DF80B300446474E05E0431D027921460068FEF76A
:2026E00007F831462846FDF7EFFD0028F3D1FF2304AC404D04F8043D3F4E05E00023818AEE
:20270000C26811604660836129462046FDF7DCFD0028F3D1FF2304AC384D04F8033D07E08C
:2027200002698369C668416912041B0432610B6129462046FDF7C8FD0028F1D1FF2304AEEA
:20274000044606F8023D2E4F18E00169C56882690904036A296141691204856A0A61C169B3
:202760001B04026B0B61416A2D04836B0D61C16A12040A61426B1B041361047239463046D2
:20278000FDF7A2FD0028E0D1FF2304AC1D4D04F8013D3BE01B0200202C0000200030004043
:2027A000F0ED00E0001000E010E000E000ED00E00038014000E100E0A05000085400002029
:2027C000A4010020B0000020100000201C00002000000020280000203C000020E512000835
:2027E0007D1200082512000835110008B1100008ED100008650F000865080008D50E00080B
:20280000493B0008D53A000801F008FB29462046FDF75AFD0028F7D1EFF30383C3F30803E8
:2028200043B14FF080736FF0060208B401A102B41FB5104701220B4B1A6062B60A4B4146E5
:202840001A680A48FEF77EFDB4E66269E16801330A4484F82A306261A2602046FFF762F8B3
:2028600019E700BFA4010020B0000020B0500008174A30B4136813F0280F07D1190603D533
:20288000134BDA6812060DD430BC704750687E2819D010490A78BF2AF0D80F4D541CA85461
:2028A0000C70EBE70D490E480A780078904206D90C4C501CA25C087030BC5A60704742F2A8
:2028C0002C02DA60E0E70021074A1160E1E700BF00380140A0010020E000002015020020EE
:2028E00014020020B4010020A8010020BFF34F8F0549064BCA6802F4E0621343CB60BFF338
:202900004F8F00BFFDE700BF00ED00E00400FA05FEE700BF72B6024B024A9D461047704751
:2029200000500020593200080346D0E90912886830B4104214BF0124002499699A6801F040
:20294000010084421CBF0131C3E906125969891A00290FDA002593F820001969084C40F092
:2029600001000A4483F820005A612560012005499A680870D968012030BC0A449A607047F7
:20298000A8010020D80000200022037E044943F0040303760A600121024B10461970704764
:2029A000A8010020D000002030B4D0E90324D36815496340D360437F047F0133DBB284F0B1
:2029C0000104012B4A68856804774377016A17D0042B04D82944816030BC01207047436AD6
:2029E000521BD21A931C48BF531D01EBA3032A4406491A4482604362416030BC01207047BF
:202A0000521B4262E6E700BF001000E0112A0008F0B4D0E90321D368476A4B40D360437FF9
:202A2000027F0133C67FDBB2D543B34282F0010202772DD200EBD30292F8282003F0070188
:202A40000A4105F0010502F001029542394607D017E092F82820224102F00102954210D135
:202A60000133DBB2B34200EBD30203F007043944EFD38368074A1944C0E90121F0BC012072
:202A800070478268437711448160F0BC012070473946EEE72D3F0008F0B4817F044699B121
:202AA0004F1E012200210346F8B204F1080707EBC007D3E90805866808332E4218BF114328
:202AC00050009F42C2B2F4D1227C8A4207D0637C82EA01004B40DB43DBB2034210D1237F01
:202AE00061745AB2002A04DB013BDBB2FF2B1DD02377D4E9023213440120A360F0BC7047A3
:202B0000A07C22EA03020B40134307282374E6D80025421CA274094A2044C3741560FF2048
:202B20000122074B617420771A70E2E70021034A11600121024A1170DAE700BFA80100204A
:202B4000D400002070B50546074E03E07468E41A002C06DA686931EA0004F7D11042F5D123
:202B600070BD2D20FDF772FE001000E0F8B540F201160D46044606601746012100221E4689
:202B8000FFF7E0FF256115F0010503D0236843F4806323603346002202212046FFF7D2FFE9
:202BA000EFF3108272B6A36925B1012F04BF40F20121216082F31088DB0700D5F8BD2C200A
:202BC000FDF744FE0000000000000000000000002DE9F04772B64A4EDFF834913468D9F8A9
:202BE00000706368474DDFF82C81DFF82CA1002B31D1D4F81CC069686369DCF80C00226A00
:202C0000013B4240CCF80C20DA0701F1900163614DD52068A160D0F808C0A1EB0C03002BDD
:202C20000ADB306000E0104602689368CB1A002BF9DA61462260046068680B1A902B19DC6F
:202C40003A1A002A27DB62B6002B1BDC72B634686368002BCDD0204698470346A168206844
:202C6000D0F808C0002BD8D16146306068680B1A902BE5DD0021244A53609160516062B64B
:202C8000BDE8F0876B68CB1A002BDFDD6B68CB1A002BDBDDF6E743451DDBDAF80020002A65
:202CA00026DA00F50C47A037C9F80070CBE7CBB1E068A369B4F910200344A3EB010C02443D
:202CC000BCF1000FA361E2602068A3DBA3601946D0F808C0A1E70D4A1268002ADDD12A207F
:202CE000FDF7B4FD2046FDF7EBFDA1680346B6E700F5E150C9F800004FF4B473BAE700BF4D
:202D000028000020001000E010E000E0A4010020AC010020C0E6FEFFA801002038B50A496D
:202D200005460078FDF7B2FE0446FEF74FFD6B682046A360AA68E260EA68C4E90423BDE846
:202D40003840FEF7EFBD00BF9139000838B504460A490078FDF79AFED4E90132E1681C04E2
:202D600009D4848A9D18A54205D816331844BDE8384001F04FB92620FDF768FD893A0008CA
:202D80002DE9F0411F4906460078FDF77FFE057F15F0020801D0BDE8F0813779B1680A2FD3
:202DA000367B2BD80A2E29D804463A46283005F0310501F02FF945F00205F600FB002577F7
:202DC000A67784F81D80E37747B194F8283003F03F032A2B02D10C4B636003E0226A0B4B4B
:202DE0006262636072B60A4B20465B6803F56153A360FEF797FD62B6BDE8F0812520FDF707
:202E000025FD00BFD53A0008A9290008112A0008001000E038B5144904460078FDF736FE79
:202E20002379C27E1A44C27672B6827C9A4215D9D21A12F0FF040ED0651EEAB2123300F10C
:202E400014051544034400F1130213F8011F02F8011BAA42F9D1847462B638BD0022FE2374
:202E60008274037762B638BDE52E000838B5114905460078FDF70AFE0446FEF7A7FC0023AF
:202E8000FE206A68A260A968E1602A7C207762742274A374E376EB6863771B0606D401B9F3
:202EA00038BD2046BDE83840FEF73CBD2220FDF7CDFC00BFE52E000838B54C2205460649DE
:202EC0000078FDF7E7FF0446044B287904496360FDF7DCFD206138BDB92E0008892900086A
:202EE000B110000810B50479082C09D8221D0078D2000549FDF7CEFF044B8477436010BD60
:202F00002420FDF7A3FC00BFE52E0008992A000810B5044682B0437E828A1A300090054800
:202F2000FEF710FA0022A38A62760133A38202B010BD00BF485100082DE9F04707783D49E1
:202F40003846FDF7A3FD3C4AC168536804695B1A9C4203D953685B1A9C42FBD8D0E9004C73
:202F6000B0F8149000F11608334BC144C1455968D0F808E046D0082618F8015B2A0622D525
:202F80005A68521A592AFBD972B6D3F804A0E2688CEA0202E26062B6AAEB01018E453BD979
:202FA0006D005A68A2EB0A022D2AFAD972B6E2688CEA0202E26062B659685A68521A0D2AB3
:202FC000FBD951461AE05A68521A592AFBD972B6D3F804A0E2688CEA0202E2605A68A2EB1B
:202FE0000A020D2AFAD9E2688CEA0202E26062B6AAEB01018E450FD951466D00013EBDD17A
:20300000C145B8D10C4B3946BDE8F0475B680122C3600A48FEF796B94FEA0C430649236175
:203020004B680022C3603946BDE8F0470348FEF789B900BF893A0008001000E030510008B8
:203040002DE9F04180460068D8F8045089B116464B1EDBB20133094CD71816F8011B6368DE
:203060001B1AAB42FBD34046FDF78AFAB7426068F3D1C8F80000BDE8F08100BF001000E058
:2030800010B5074904460078FDF700FDD0E903231361A2682179BDE81040FFF7D1BF00BF37
:2030A000493B000810B5074904460078FDF7EEFC0369C2681B041361A2682179BDE810400D
:2030C000FFF7BEBF493B00082DE9F04782B002AC04E903002A489DF80410466841F0010ACF
:2030E00006F5AF2606F5C866009D9DF828900B9F6ABB514633464A46284609F1FF34FFF7ED
:2031000035FDE4B2B9F1000F18D040F201283346002240212846FFF715FDEFF3108272B6DD
:203120002B69012CDBB208BFC5F8008082F31088013CE4B2FF2C07F8013BE8D13346284657
:203140004022002102B0BDE8F047FFF7FBBC90461C4628463346FFF709FD08F1FF385FFA0D
:2031600088F808F10108A04414F8012B33462A61802100222846FFF7E5FCA045F4D1B8E75C
:20318000001000E02DE9F041904682B0174C02AD05E903006668009D06F5AF2606F5C86689
:2031A0001C46284633469DF80410FFF7DFFCB8F1000F0FD008F1FF37FFB20137274414F826
:2031C000012B33462A61802100222846FFF7BAFCBC42F4D140F2012233462A6028468022B7
:2031E000002102B0BDE8F041FFF7ACBC001000E082B002AB03E90300DDE90030EFF31082A0
:2032000072B61968C90602D5596B814203D082F3108802B070476FF010011960DB6C82F3EA
:20322000108802B0704700BF01220A4B00F13F4000F57F009969800A02FA00F001439961BC
:203240009A69DA680243DA60DA6822EA0000D860704700BF0010024000224FF0FF3180B596
:20326000930003F1604303F56143C3F88010BFF34F8F0132082AC3F88011F1D100231846B9
:203280003B49CA180133F02B82F80003F9D10422384B1A60BFF34F8F0023374A4FF020611B
:2032A0001C4615465160EA1801330C2B1476FAD1BFF34F8FBFF36F8F62B6304B304A184633
:2032C000D21A304900F0A6FE2F48304A0021121A00F078FF4FF41F0C4FF0006714262C4B8B
:2032E00012201A46196841F001011960D3F804E028490EEA01015960196821F0847121F4A0
:2033000080311960196821F480211960596821F4FE0159602049C3F808C0AF60A9605E6182
:20332000DC619C6119681D4C41F4803119605C6019681B4C41F080711960206013689B0134
:20334000FCD5184B124953604B6803F00C03082BFAD1154C2046FFF767FF144A136823F069
:20336000E06343F0007313606360FFF7D5F800BF00E100E010E000E000ED00E0000000202E
:203380002C000020885200082C00002018020020001002400000FFF80000000800E41D0027
:2033A0000020024002E41D0000000140DC000020F0B401240F26854B050953F82550844FFC
:2033C00005F13F4303F57F03D7F818C09B0A9C4044EA0C0400F00703BC619B00BC6906FABE
:2033E00003F400EA0607002933D1002A3FD0082606FA03F306076FEA04043FD56E68002AD3
:2034000004EA060443EA04036B603FDD012303FA07F72F61A0F10D03012B08D86D4A6E4CCC
:20342000136823F0E06343F0806313606360C1F30311012931D0022940D0042976D00529A0
:2034400052D0072900F09080092900F0A980F0BC7047012945D040F20116B14271D0032984
:203460004DD0CE0571D50D2606FA03F3C2E7042606FA03F306076FEA0404BFD42E68002A63
:2034800004EA060443EA04032B60BFDCC2D00123103703FA07F72F61BCE70F2831D013283C
:2034A0002FD01A380128D2D84A4A4B49136823F4407343F4007313604B60C8E7A0F114035C
:2034C000012B29D9A0F12603032B45D93C380328BDD8404A4049136843F4805313604B60CE
:2034E000B5E701FA03F385E713380228AFD8394A3949136843F0010313604B60A7E7002351
:2035000078E7344A34491368F0BC23F4407343F4807313604B6070472E4A2F49136823F4DF
:20352000406343F4006313604B6090E7183801288DD8284A2849136843F0020313604B6027
:2035400085E7052606FA03F354E7002A3FF74FAF092606FA03F34DE71E4A1F49136843F46A
:20356000406313604B6072E7A0F11603012B0FD9A0F13503012B21D9383801283FF667AFA0
:20358000144A1549136843F0300313604B605EE7104A1149136843F0040313604B6056E767
:2035A000183801283FF653AF0A4A0B49136823F4C04343F4804313604B6048E7054A064939
:2035C000136843F0080313604B6040E7AC51000800100240DC0000200000014010B582B062
:2035E00002AB03E903002049DDE900348B4230D001F580618B422ED001F580618B422CD0BD
:2036000001F580618B422AD001F580618B4228D001F580618B4210D001F580618B4208BF81
:2036200006200BD00020EFF3108472B60021FFF7BFFE84F3108802B010BD0520030194FAB2
:20364000A4F0002CB0FA80F008BF4FF0FF301844E9E70023F3E70120F0E70220EEE7032020
:20366000ECE70420EAE700BF0008014010B582B002AB03E903002248DDE90031834234D0BD
:2036800000F58060834232D000F58060834230D000F5806083422ED000F5806083422CD0C6
:2036A00000F58060834214D000F58060834208BF06200FD00020EFF3108472B602B90904A0
:2036C000196100220121FFF773FE84F3108802B010BD0520040191FAA1F00029B0FA80F0AE
:2036E00008BF4FF0FF302044E5E70024F3E70120F0E70220EEE70320ECE70420EAE700BFCE
:2037000000080140124B984217D9124B124A98424FF0010300F13F4007D900F57E005269E5
:20372000800A03FA00F01040704700F57F009269800A03FA00F0104070470123064A00F1B9
:203740004040D269800A03FA00F01040704700BFFFFF0040FFFF014000100240154A904271
:2037600012D9154A90420DD90122144900F13F4303F57E0348699B0A02FA03F303434B61A1
:203780004B697047FFF750BD012102F1011202F5805200F140439B0AD06901FA03F318432C
:2037A000D061D169116919431161116921EA030313617047FFFF0040FFFF014000100240D1
:2037C00070B5534C1646002304F1C00203E00834944236D023799842F9D14E4B4D08A3FB28
:2037E0000535AD0918BF05F1FF354FF00002A17918BFADB2FFF7DCFD2068FFF783FFC0B107
:2038000023681A68D2070ED4FE229D62DA625A6942F001025A616279013A032A74D8DFE87C
:2038200002F05B432B139A6A9542F4D03120FDF70DF82068FFF792FF23681A68D207E3D524
:20384000F1E73220FDF702F81A6A03F1400022F480521A62DA6922F4E642DA61DA6942F4FF
:20386000D842DA611E641A6A42F480521A621A6842F001021A6070BD1A6A03F13C0022F441
:2038800080721A62DA6922F07302DA61DA6942F06C02DA61DE631A6A42F480721A621A68AC
:2038A00042F001021A6070BD1A6A03F1380022F010021A629A6922F4E6429A619A6942F467
:2038C000D8429A619E631A6A42F010021A621A6842F001021A6070BD1A6A03F1340022F072
:2038E00001021A629A6922F073029A619A6942F06C029A615E631A6A42F001021A621A68AE
:2039000042F001021A6070BD3020FCF79FFF00BFC851000809040281B1B130B405464FF6A4
:20392000FF70294415F8013B040A434083EA0313DBB2DA0044EA03248D4282EA131384EAC3
:203940000300EFD130BC70474FF6FF70704700BF70B56F2982B015D80C4B0546080953F8FD
:2039600020607EB1012401F00F018C40CDE9006402AB13E90300FFF731FE2846C5E900643B
:2039800002B070BD2820FCF761FF00BFAC51000870B52C2282B005460A490078FDF77AFAC6
:2039A000D5E901126C4606462046FFF7D1FF94E80300054A06F1240383E80300726002B02E
:2039C00070BD00BF9139000829290008F0B50E49054683B00078FDF759F82B79827F9A4217
:2039E0000FD9D5E902126F46044638461E1DFFF7AFFF97E8030004EBC60484E8030003B054
:203A0000F0BD2320FCF722FFE52E000882B002AB03E90300EFF3108172B6DDE90020D368FD
:203A20004340D36081F3108802B07047F0B56F2983B021D8124B0646080953F82050DDB1EF
:203A40000124104805F13F4303F57F0387699B0A04FA03F33B4301F00F018C408361836953
:203A6000CDE9005402AB13E90300FFF7FFFD3046C6E9005403B0F0BD2920FCF7E7FE00BFE5
:203A8000AC5100080010024070B582B06D460446416800222846FFF7C9FFA3681A0413D474
:203AA0009EB206F1180292B209492078FDF7F2F9034695E8030083E80300E2689E829A60FD
:203AC00022691A6102B070BD2720FCF7BFFE00BF893A00082DE9F043342283B00546194901
:203AE0000078FDF7D7F96C46064695F80890D5F8048019F1000218BF0122EF6841462046CC
:203B0000FFF726FF94E8030006F1140383E80300012239462046FFF789FF94E8030006F193
:203B20000C0383E803002B69B9F1000F33620CBF01231123B84508BF43F02003337703B08C
:203B4000BDE8F083D53A0008F0B53C2283B005462C490078FDF79EF96C4606466968204608
:203B60000022FFF763FF94E8030006F10C0383E803000022A9682046FFF758FF94E8030073
:203B800006F1140383E803000022E9682046FFF74DFF94E8030006F11C0383E80300002269
:203BA00029692046FFF742FF94E8030006F1240383E80300002269692046FFF737FF94E8C9
:203BC000030006F12C0383E803000022A9692046FFF72CFF94E8030006F1340383E8030078
:203BE00072B6094C304600216768FCF7C9FC636862B6EA69DB1B93423CBFD31A736003B0BB
:203C0000F0BD00BF493B0008001000E0002270B5F226044684B0CDE90122006901AB8DF86C
:203C20000C200D46092201218DF80460FCF760FD04AA637E52F80B0D1A339188E218E050FE
:203C40009180637E0633DBB22A2B637627D89DF80C3023F080031E2B06D94FF6FF71E28ACF
:203C60008A421CBF0132E282023B1E2B1CD9237E9B0701D404B070BD2046FDF7A7FD237EF3
:203C800023F00403237672B60B4AE368526820461344A360FDF746FE62B604B070BD29468F
:203CA0002046FFF735F9D2E70022044B1A600122034B1A7004B070BD001000E0A801002041
:203CC000D00000202DE9F0470678054684B02B493046FCF7DBFED5F808900446B9F1000F8C
:203CE0000FD0FDF773FD002101236A682046A260AA686161E2602383FDF714FE04B0BDE8E7
:203D0000F087FDF763FD2D2304AF27F8043DDFF874A084F8189049463B4602222069DAF8D7
:203D200004902125FCF7E4FC4FF0B908DAF804A005E031462046FFF769FF013D0BD03B46A6
:203D4000022201212069ADF80C80FCF7D1FC9DF80D309B06EDD1637E1BB131462046FFF7F2
:203D6000D7F8A28A53460192E08A4A46009031460348FDF7E7FA04B0BDE8F087B92E00083C
:203D800038510008001000E008B51B20FCF75EFD2DE9F04190F8108082B0B8F1030F36D802
:203DA00006461D490078FCF771FE07461C20FDF707F86C460546012220467168FFF7C8FDE1
:203DC00094E8030085E803000022B1682046FFF72DFE94E8030005F1080383E80300002222
:203DE000F1682046FFF722FE94E8030005F1100383E8030085F818803B7C13F0060F08D13B
:203E000043F002033B743D6002B0BDE8F081FFF7BBFFFFF7B9FF00BFB110000810B5037F29
:203E200004469A0608D4D0E9032103F0300343F001031161237710BD00F10C0393E803002B
:203E40000122FFF713FC237F03F0300343F00103237710BD012270B54169437F8E6800EB3F
:203E6000D304856903F0070102FA01F194F828202E421ABF0A43D2B28A4384F828200133E1
:203E8000827FDBB29A4207D901228168446A437721448160104670BD0446FFF7BFFF00227B
:203EA000237F054943F0080323770A600121034B1046197070BD00BFA8010020B0010020FB
:203EC00038B5D0E90524926805462240017F0DD041F0040101776A7F511C3F2A69770ED8DC
:203EE000AA68696A01200A44AA6038BD4B07F2D50B4942774160BDE83840FFF7ABBF002407
:203F00002846AC77FFF78AFF2B7F064A43F0080314602B770122044B20461A7038BD00BF2D
:203F2000553E0008A8010020B001002038B5857F0446B5B1027F93060AD40021A368656AB8
:203F40000E4A03EB850361770120A360626038BD00F1140302F0100293E80300FFF73EFB27
:203F6000EBE7FFF75BFF237F054A43F00803237715600122034B28461A7038BDC13E00087C
:203F8000A8010020B0010020830770B4CDB23DD0541E0AB30378AB421FD0431C05E014F17E
:203FA000FF3419D30278AA4217D013F0030F184603F10103F3D1032C11D84CB30378AB42E7
:203FC0000BD00444431C02E00278AA4205D09C42184603F10103F7D1002070BC70470646F7
:203FE0000A0292B22A4342EA0242336830465340A3F1013121EA030313F0803F06F1040656
:020000040800F2
:20400000DCD1043C032C3046EFD8D6E71446D2E72046E2E7844641EA000313F0030349D12D
:20402000403A23D30B6803604B6843608B688360CB68C3600B6903614B6943618B698361B0
:20404000CB69C3610B6A03624B6A43628B6A8362CB6AC3620B6B03634B6B43638B6B83638C
:20406000CB6BC36340304031403ADBD230320BD30B6803604B6843608B688360CB68C36044
:2040800010301031103AF3D20C3205D351F8043B40F8043B043AF9D2043208D0D2071CBFB0
:2040A00011F8013B00F8013B01D30B8803806046704700BF082A13D38B07B1D010F0030350
:2040C000AED0C3F10403D21ADB071CBF11F8013B00F8013BA4D331F8023B20F8023B9FE7CD
:2040E000043AD9D3013A11F8013B00F8013BF9D20B7803704B7843708B7883706046704798
:204100008842F0B40DD98B1883420AD9841832B1224613F8014D994202F8014DF9D1F0BC27
:2041200070470F2A48D940EA01039B0746D1A2F110031B0901F1200707EB031701F1100492
:2041400000F1100554F8106C103445F8106C54F81C6C103545F81C6C54F8186C45F8186C25
:2041600054F8146CBC4245F8146CEBD1013302F00F051B01032D1944034421D90F462C4611
:204180001E1F57F804CB043C032C46F804CFF8D82C1F24F0030404342344214402F0030213
:2041A000002ABCD0013B0A4411F8014B914203F8014FF9D1F0BC70470346F1E70346F1E7DD
:2041C0002A46EDE7F0B4860743D0541E002A3ED0CAB2034602E014F1FF3438D303F8012B9C
:2041E0009D07F8D1032C2BD9CDB245EA05250F2C45EA054516D9A4F110073F0903F1200696
:2042000006EB071603F1100242E9045542E902551032B242F8D104F00F040137032C03EB29
:2042200007130DD91E462246043A032A46F8045BFAD8221F22F003020432134404F00304F8
:204240002CB1C9B21C4403F8011B9C42FBD1F0BC704714460346C5E7EC46A0E8F05F4FF0EB
:2042600000007047B0E8F05FE546080008BF0120704700BF2D0800000001020304050607BE
:204280001011202122232425FE00000078DA9D597B6FDB3812FF2A3C03C56D6F939C25DBA1
:2042A000B21DA07FB8697A28AE69B37172BDC3622128126D13D1AB7AE4718B7CF7FB0D870B
:2042C0002265D9DB05AE406B91331C0EE73DD3DF47F7AD4A93F05156B52AF27A743EDAC685
:2042E000F1B9F8C99B9DCF4FFDB1B738FDEE9F066FC5FC6C72E609DA1807BE2F7EAA642A37
:20430000A35ABE15BFAE6EAEFE2EB37B992432399D9FDE57511EEF44251F1551147EE02D66
:20432000C7F3DFC4BDCADB46A53568FB6713EFCC3BF5BC9FAB52793F7BDE5BC15BA393516F
:204340005C6459942760E4F75194A6451C35322C54528BB868F3E6DD9B7874EE7B2760BB96
:2043600069C06F18C50F0260ECF710963D789274F0B2A8F58FCADFBD6945D9A669D8961AC1
:204380007F327107BEB7B27AB124C1C0036157B26EC246C50F35AF1ABCB2CE541376970A8E
:2043A000954386863F1FEF8078AAB0DEB54D523CE5A3F3809E966FD4161C3DA793E9ACBBA1
:2043C000A22E55C89FA3F38543CAA3B4D8862AB7CC6BAE47E7B399C5311C7718BC0C9D141A
:2043E0001CA6DE93D53EAD3D094C271639515BD5446958B4CDE0C06394B692D689DC446DF0
:20440000DA8476238B9EC3A4ADA2061AD76CFAEE72096D3645B9472BDEBBDC7797EF92E900
:2044200074BE1877C8551D9ABB65F7914CEDD7CC7E05F66B6EBF641ABD589541C79EBD4483
:20444000F97177013E2147562A2C8D7E6131D0361F0AE6F6502E8B523DCB742093246AA2C6
:20446000B056FFC5D15D0B236F429245CF526A892D95F7389939A2E5537644CEF10BACC7E6
:20448000D13052DEB543B963E740F09E333458D6D07ABC491F6ACDF3D01645070AB37AFB91
:2044A000EECDDFE08FFE74EFEC936A76603D8C3B03C4C37A7737F3A56FD5185B35D671FA58
:2044C00060BF55623F5FF238DCD79888B3243C50E2B277832C4B67D3B40C8D6D25AAEA3E18
:2044E000D92B3532DBB963B1D9C92A2BE01A652A8F08A00F0E9B975272A47076DD64711B88
:20450000555677D57378E057A2B19B64198DCA249B95136553D1DBAD08A19F44DEB730B740
:20452000A204DEA25B82CA56DB1AEBC2B3804A46087055222BBA8F6C976DCC127AAA5423A7
:204540000F30C8A834E214946426ABADCCE397901C157B63ECB1D786BB229307D1B08EB2F5
:20456000B26FA1666D63E17EB404EF2E52F07BAD902BB5DDCA8A5E5193014302DECC5DAEC7
:204580006331988A1A6925E481B98D427884CF852C44115731479D93D116EEA6F9C433A6EF
:2045A00066A991204D036E4B520428016EE24D58E3CA101667A3297DB3AC67E3011AA9A12D
:2045C00043732A99803A4593AC48D4E62584BE2DAD4A6A171226278005829A63633EC67AD2
:2045E000DCC7A7BD309526F02F19D1E8F3E07A041595C8BCC1E5A2D86C708B76229B0D1082
:20460000FEBA10A69F61053AED43DA3271C2E68CB96B7BD7CCF04AD6CA208D1DCF94B8D635
:20462000B3078629EDFF34A7CC999309806E85ACBCC5C19D8C1F7A89D05F743C0C12A1E51A
:20464000A02CE0B2C3FBDD23A6DDF96331E30F6A841E9B7B5C922A995E2B8FE55A4BAEE831
:20466000E78C20E88E0C528645B74200BBCB0E99E29E4D75F47276FBCE2C763ADBE15741CB
:204680004830449DAD604B0BF3A9CFB33B0DEFC301DC4238FD370C0A85D1F9FC00473F4094
:2046A00067384B722FDD817D732897CF860304746BF1AAD28483092375E2F893D409432461
:2046C0007629E739DBEFDBF5A28336540FF4F381290FE0D7B25726804DDF1DA98B4DF314EC
:2046E00055B27F365375D145FFACA8D5B114784074E631515D5F6E9CA5F61C1D96C0D9F5E1
:2047000047412BF0F6B18EC72C9F24CD7934A4C8087F575449D8D8E0070E414764324A8E0F
:20472000D9C286F05E40879841D264C63D51EBB065A31A071E447A739A644841F9886183E1
:20474000A4EFF09A7EC69565519968CFFEA7D756F9F2B95450492FB74CA696D2E0153DA464
:20476000008EC061F0987B3AD30E66AF5D16A76665F5E122BC5AFD9BB2E7120F7B7FB70E53
:20478000AF3F7D5953B1E9A1ABBA7E1F9C5CBF9F8F0690488316002D07205F4390EDF08F77
:2047A000D787C13C34C11508AEE6F83B1B4299E8142767F83B19800D61027B04F786089372
:2047C00083E3179FBF5EFC33FC7873F90B3CDA1FEB3F27A3AB8B3B60D64D36F137DE78F2C3
:2047E0002C8179FDED8AA5E053A372737971F9E95F97E1B74F5F3E7CFD463EE8D3E6FAF2EF
:20480000069B7C9DAC5494EAE7D053572405803FAD3E87EF57771F880E5FB6BE5DDDAEC3B5
:20482000F5DDD5FA1740D697040968FBF23AFC70F979F51F6CBC52E5D0A298D1E5B06E2127
:204840004D7D6F3E21374EB724224F7FF97C0EFED829F1F6F2EAFAF266757B77A32F81C956
:204860005CAFC6A3F35FC7275EF01B16EF6981329B5717B442EEE7D5075AA1A4E2D525AD22
:2048800050EBF1EA23AD161D957FD06AA9A9BCB2CB1B3659BD1C06884D8E32BEE69C953300
:2048A000A503A88914F94385C2305489615E684BDD701E64F75DA5E4702FA2AB9912EE02D6
:2048C0002EA25CE44523E07982A2974020E5E829B40389A79DC2373B422D4AB8326EE23417
:2048E00081B37F6D2873A084DF822A6AE5A811AA1691B92B8A1BF528B90B34C835A1921314
:204900007149C0BB3AC908727C5C2773D1D5F4F63C1E7FC103015146158C45C8AA2A2A9D65
:20492000573A402591EBEA4677CF1F23309D88A6103AF650A347052FD7829F7238AF4A0405
:204940006C54C4BB28CF65CAF56F07E81A6AD7DE73A2E4C0D161990985EEAFDD1ED088C59F
:204960002893C8B2DCD276C0AC78941D97825A452E3D3BB06D2C6D2BC97DCE01DCD466F6E9
:20498000FE498F7508565093C2D1B2DBA50E509B15A5D4FE6617B6FCDEFE5E6D13EF5469AC
:2049A0000852857A153D93592D3A11711ABA429B1C6DA540EB803CD6A98600AAAEA1861A13
:2049C0008558D2A6D4BAE030A5736122AAB653F92849B634CDF9E303BBA84AB46D1A6C1A28
:2049E000D55C9140758123F0556DD2E289FB862F30E848F073C81BB457D368A30F20F56BDF
:204A00000015F67D80CA4B2E24B803D2A09C3875DB9E8E70D6CECBAAD842E519588FE86DCD
:204A20001B646C7009114BF233AAC36EA4791499250CBDC235246A180BD92C15116B8B70C5
:204A4000201DF1A4D214892C06BDBD5E9FEB1977D24AE80727A84359C3DF58879A01C2504D
:204A6000599B757B9DB94396EB6E36A0BB1610D31EAA43861D6A1141E3B24D51884DA45FCB
:204A8000C72FA371C16DDFA48E84A7E50085A40A5A7AC8C165FBAD161911479AAFA56E90AD
:204AA000EFF2BA2D29D54BF670B670989D9E17A2FA6FF307D0A048C0F5486FBF76003709D1
:204AC000E03054E42922D723C0D17DDA0524FB54EEBE842952B87819B47BE7E22B4222125C
:204AE000D03DD5151B6AF9EBBFF0E0490F306D743463CD849BD99A9A36C422631E31C0DA66
:204B0000786C1DA5038396411A552437EAF58E5428A41BB6649ACD9820CA7E421303648D56
:204B2000839906A50DA4EB89B798CD7486318B4067205E0433AD682C82608EEFC9EBAB6EEE
:204B40000F4AC401C9735A6E05F78ACC9AE25D1ECB41FFB8C41D1D7AAF3AC4A7E70A39AC85
:204B60007CB74A556FCE0A627DCA08FA0B4770AF3AD48B1E51BD766471122AB53DE9DE906B
:204B800041479EF05867B5E84D9EF74E44BD86536808BF7741F322DD3FB98BE776FA839CC7
:204BA00069A613BAE2D5530C9D2E7ACF054A6785DC51E909946E637FC4B421603E7ACF5ED3
:204BC0007A6E7454C3CFEC24683E7783973DC2BB02BDECF6F08AFE5C07C7976E901176E64D
:204BE000E1CA6B5E1BA14CDDACA2876A87166C2E67844AE59A138018963DAC95F9B837C1CA
:204C000030AFEAACA08D633DCCA5E93A1E88ABFA73B439F5372ED039533976CBA035FBB360
:204C200047FABA4AAB1A5D36054BAED96AA798BACDCC4FFD9D15E0BB666BD089F124065DC9
:204C4000FA7C31F0E2FDE71E35DC96032ACB60E2DAB343FEA931D3BC07FD8ECB59421CD9D4
:204C6000F6EFE8F4AE67E40BDD45E9D26EA7B63B6D89CE03260821E6BF9C50FB3F8ECF96B8
:204C800067DEE96C119C6E17F7B15C2CFDE9E8F57F194BD3EF0000000000000000000000B0
:204CA0000000000001020102D44F00080D1700080201000198510008F50D00080301000193
:204CC000D84F00082512000804040004885100081D2D00080502000274510008E52E000836
:204CE0000600010000000000690A000807020002D44F000891040008080200027451000886
:204D0000B92E00080902000274510008152E00080A010001D84F0008451600080B030003D0
:204D200080510008C53C00080C020002DC4F0008A51A00080D020002DC4F0008B11000087A
:204D40000E00010000000000491700080F080008E04F0008111B000810060006E84F0008F7
:204D6000650F00081102000274510008A50C000812020101A0510008BD1600081303000319
:204D8000F04F0008A904000814040004F44F00087D1B000815010001D84F00086D0E000847
:204DA00016050005F84F00086D2E0008170300030050000849120008180400037051000821
:204DC000ED1000081905000504500008E51200081A010001D84F0008851600081B03000242
:204DE00068510008B90A00081C0800080C5000084D1A00081D020002DC4F0008ED0C0008D3
:204E00001E05000314500008110B00081F08000818500008493B00082003000268510008CB
:204E20008130000821040004A8510008CD390008220400046C510008D91A0008230300036E
:204E400000500008751000082403000268510008111600082503000268510008AD0B0008A9
:204E60002600010000000000ED2800082706000620500008D50E000828000100000000002F
:204E8000850A000829010001D84F0008392F00082A04000488510008ED0B00082B0300036D
:204EA00028500008913900082C00010000000000751700082D0400032C500008812D000871
:204EC0002E040004305000087D1200082F020002DC4F0008510D00083003010380510008A1
:204EE0008D0200083103000364510008A91900083203000268510008A53000083306000649
:204F000020500008913D000834040003845100084D2D000835020102DC4F0008CD16000851
:204F20003605000534500008191A000837020002DC4F00083511000838010001D84F000845
:204F400025110008390500053C500008893A00083A03000268510008CD0B00083B0400034F
:204F600044500008851500083C02000274510008191800083D03000268510008E50A0008B3
:204F80003E00010000000000891700083F02000274510008210D00084005000548500008FA
:204FA000D53A00084102000274510008311C00084203000380510008B91C0008430400042A
:204FC00088510008A10F000844000100000000008902000800040000040000000400000054
:204FE00004000004000404040400000202000000000002000400020304000004040000007E
:20500000040404000400040400000000040000040002020404070700040000000000000052
:2050200004000000000000000400040004070400040404040400000000000000040002003B
:20504000000000000407000004000400000000000005000000000000005400401617000077
:205060000054004018190000005800401A1B0000003800401E1F1D520030014006070552A5
:2050800000300140141513520038004022231A52003C004014151362004002008C510008A7
:2050A00045060000000000004609010058510008470E02005C51000848150300905100084F
:2050C00049100200945100084A0B0100985100084B1204009C5100084C400100A051000865
:2050E0004D0B0100985100084E0D0200A45100084F110400A8510008501104006051000889
:2051000051100300645100085240020068510008531404006C510008544002006851000892
:2051200055400300705100085640020068510008570A02007451000858180500785100083F
:2051400059120300805100085A400300845100085B17040088510008020000000002000033
:205160000404040004000200040700000400000404040700040400000400000202000000EB
:205180000400000004020700040000000006000000000000000000000000000004000204EA
:2051A00007000000040100000404000400080140000C014000100140001401400018014042
:2051C000001C014000200140000000400001220000000040010222000000004002032200E2
:2051E0000000004003042200000000400F0112000000004013021200000000401A0312000E
:20520000000000401B041200000400400601120000040040070212000004004010031200F8
:20522000000400401104120000040040260122000004004027022200000400402803220056
:205240000004004029042200000800403C012200000800403D022200000800403E032200C0
:20526000000800403F042200000800401601220000080040170222000008004018032200F8
:205280000008004019042200000000005103000800000000100000001C000020550300087F
:1452A0000000000000000000C5170008000000801000002066
:00000001FF
